{
  "contractName": "ERC721Enumerable",
  "abi": [
    {
      "inputs": [],
      "stateMutability": "nonpayable",
      "type": "constructor"
    },
    {
      "anonymous": false,
      "inputs": [
        {
          "indexed": true,
          "internalType": "address",
          "name": "_owner",
          "type": "address"
        },
        {
          "indexed": true,
          "internalType": "address",
          "name": "_approved",
          "type": "address"
        },
        {
          "indexed": true,
          "internalType": "uint256",
          "name": "_tokenId",
          "type": "uint256"
        }
      ],
      "name": "Approval",
      "type": "event"
    },
    {
      "anonymous": false,
      "inputs": [
        {
          "indexed": true,
          "internalType": "address",
          "name": "_from",
          "type": "address"
        },
        {
          "indexed": true,
          "internalType": "address",
          "name": "_to",
          "type": "address"
        },
        {
          "indexed": true,
          "internalType": "uint256",
          "name": "_tokenId",
          "type": "uint256"
        }
      ],
      "name": "Transfer",
      "type": "event"
    },
    {
      "inputs": [
        {
          "internalType": "address",
          "name": "_to",
          "type": "address"
        },
        {
          "internalType": "uint256",
          "name": "tokenId",
          "type": "uint256"
        }
      ],
      "name": "approve",
      "outputs": [],
      "stateMutability": "nonpayable",
      "type": "function"
    },
    {
      "inputs": [
        {
          "internalType": "address",
          "name": "_owner",
          "type": "address"
        }
      ],
      "name": "balanceOf",
      "outputs": [
        {
          "internalType": "uint256",
          "name": "",
          "type": "uint256"
        }
      ],
      "stateMutability": "view",
      "type": "function"
    },
    {
      "inputs": [
        {
          "internalType": "string",
          "name": "a",
          "type": "string"
        },
        {
          "internalType": "string",
          "name": "b",
          "type": "string"
        }
      ],
      "name": "compareStrings",
      "outputs": [
        {
          "internalType": "bool",
          "name": "",
          "type": "bool"
        }
      ],
      "stateMutability": "view",
      "type": "function"
    },
    {
      "inputs": [
        {
          "internalType": "uint256",
          "name": "_tokenId",
          "type": "uint256"
        }
      ],
      "name": "ownerOf",
      "outputs": [
        {
          "internalType": "address",
          "name": "",
          "type": "address"
        }
      ],
      "stateMutability": "view",
      "type": "function"
    },
    {
      "inputs": [
        {
          "internalType": "bytes4",
          "name": "interfaceID",
          "type": "bytes4"
        }
      ],
      "name": "supportsInterface",
      "outputs": [
        {
          "internalType": "bool",
          "name": "",
          "type": "bool"
        }
      ],
      "stateMutability": "view",
      "type": "function"
    },
    {
      "inputs": [
        {
          "internalType": "address",
          "name": "_from",
          "type": "address"
        },
        {
          "internalType": "address",
          "name": "_to",
          "type": "address"
        },
        {
          "internalType": "uint256",
          "name": "_tokenId",
          "type": "uint256"
        }
      ],
      "name": "transferFrom",
      "outputs": [],
      "stateMutability": "nonpayable",
      "type": "function"
    },
    {
      "inputs": [
        {
          "internalType": "uint256",
          "name": "index",
          "type": "uint256"
        }
      ],
      "name": "tokenByIndex",
      "outputs": [
        {
          "internalType": "uint256",
          "name": "",
          "type": "uint256"
        }
      ],
      "stateMutability": "view",
      "type": "function"
    },
    {
      "inputs": [
        {
          "internalType": "address",
          "name": "owner",
          "type": "address"
        },
        {
          "internalType": "uint256",
          "name": "index",
          "type": "uint256"
        }
      ],
      "name": "tokenOfOwnerByIndex",
      "outputs": [
        {
          "internalType": "uint256",
          "name": "",
          "type": "uint256"
        }
      ],
      "stateMutability": "view",
      "type": "function"
    },
    {
      "inputs": [],
      "name": "totalSupply",
      "outputs": [
        {
          "internalType": "uint256",
          "name": "",
          "type": "uint256"
        }
      ],
      "stateMutability": "view",
      "type": "function"
    }
  ],
  "bytecode": "0x60806040523480156200001157600080fd5b50620000437f01ffc9a7a5cef8baa21ed3c5c0d7e23accb804b619e9333b597f47a0d84076e26200013360201b60201c565b620000b87f22c82707ba960a14c7592ffb6b8cfaa073fed0048a84cc7fa41f6b5bd8e7f2e47f3a6eb71757dfc6e784c1459d26270140c2c147d95ca985c80026fc5301c3eca17f8a7e378434598edc36d108689a030cbc9d7d465de4f74c71bae1028eed6a881b18186200013360201b60201c565b6200012d7f8230223f691b981717299fae9549350a0d894555723531f02108b1f522c1a7977f6da5e1284143cdd2d15038a59bde3be031250f00291d64494c12d967b3a4e0c37fc53637662700e6c65104059db8bba34439e0c32483ab7c34e3ccae52c739549518186200013360201b60201c565b6200028d565b63ffffffff60e01b817bffffffffffffffffffffffffffffffffffffffffffffffffffffffff1916036200019e576040517f08c379a000000000000000000000000000000000000000000000000000000000815260040162000195906200026b565b60405180910390fd5b6001600080837bffffffffffffffffffffffffffffffffffffffffffffffffffffffff19167bffffffffffffffffffffffffffffffffffffffffffffffffffffffff1916815260200190815260200160002060006101000a81548160ff02191690831515021790555050565b600082825260208201905092915050565b7f496e76616c696420696e74657266616365207265717565737400000000000000600082015250565b6000620002536019836200020a565b915062000260826200021b565b602082019050919050565b60006020820190508181036000830152620002868162000244565b9050919050565b6115aa806200029d6000396000f3fe608060405234801561001057600080fd5b50600436106100935760003560e01c80632f745c59116100665780632f745c591461011e5780634f6ccce71461014e5780636352211e1461017e57806370a08231146101ae578063bed34bba146101de57610093565b806301ffc9a714610098578063095ea7b3146100c857806318160ddd146100e457806323b872dd14610102575b600080fd5b6100b260048036038101906100ad9190610b6a565b61020e565b6040516100bf9190610bb2565b60405180910390f35b6100e260048036038101906100dd9190610c61565b610275565b005b6100ec610410565b6040516100f99190610cb0565b60405180910390f35b61011c60048036038101906101179190610ccb565b61041d565b005b61013860048036038101906101339190610c61565b610440565b6040516101459190610cb0565b60405180910390f35b61016860048036038101906101639190610d1e565b6104f0565b6040516101759190610cb0565b60405180910390f35b61019860048036038101906101939190610d1e565b610561565b6040516101a59190610d5a565b60405180910390f35b6101c860048036038101906101c39190610d75565b610612565b6040516101d59190610cb0565b60405180910390f35b6101f860048036038101906101f39190610ee8565b6106d0565b6040516102059190610bb2565b60405180910390f35b6000806000837bffffffffffffffffffffffffffffffffffffffffffffffffffffffff19167bffffffffffffffffffffffffffffffffffffffffffffffffffffffff1916815260200190815260200160002060009054906101000a900460ff169050919050565b600061028082610561565b90508073ffffffffffffffffffffffffffffffffffffffff168373ffffffffffffffffffffffffffffffffffffffff16036102f0576040517f08c379a00000000000000000000000000000000000000000000000000000000081526004016102e790610fe3565b60405180910390fd5b8073ffffffffffffffffffffffffffffffffffffffff163373ffffffffffffffffffffffffffffffffffffffff161461035e576040517f08c379a000000000000000000000000000000000000000000000000000000000815260040161035590611075565b60405180910390fd5b826003600084815260200190815260200160002060006101000a81548173ffffffffffffffffffffffffffffffffffffffff021916908373ffffffffffffffffffffffffffffffffffffffff160217905550818373ffffffffffffffffffffffffffffffffffffffff168273ffffffffffffffffffffffffffffffffffffffff167f8c5be1e5ebec7d5bd14f71427d1e84f3dd0314c0f7b2291e5b200ac8c7c3b92560405160405180910390a4505050565b6000600780549050905090565b6104273382610729565b61043057600080fd5b61043b8383836107b8565b505050565b600061044b83610612565b821061048c576040517f08c379a0000000000000000000000000000000000000000000000000000000008152600401610483906110e1565b60405180910390fd5b600960008473ffffffffffffffffffffffffffffffffffffffff1673ffffffffffffffffffffffffffffffffffffffff16815260200190815260200160002082815481106104dd576104dc611101565b5b9060005260206000200154905092915050565b60006104fa610410565b821061053b576040517f08c379a00000000000000000000000000000000000000000000000000000000081526004016105329061117c565b60405180910390fd5b6007828154811061054f5761054e611101565b5b90600052602060002001549050919050565b6000806001600084815260200190815260200160002060009054906101000a900473ffffffffffffffffffffffffffffffffffffffff169050600073ffffffffffffffffffffffffffffffffffffffff168173ffffffffffffffffffffffffffffffffffffffff1603610609576040517f08c379a00000000000000000000000000000000000000000000000000000000081526004016106009061120e565b60405180910390fd5b80915050919050565b60008073ffffffffffffffffffffffffffffffffffffffff168273ffffffffffffffffffffffffffffffffffffffff1603610682576040517f08c379a00000000000000000000000000000000000000000000000000000000081526004016106799061120e565b60405180910390fd5b6106c9600260008473ffffffffffffffffffffffffffffffffffffffff1673ffffffffffffffffffffffffffffffffffffffff1681526020019081526020016000206109dd565b9050919050565b6000816040516020016106e391906112a8565b604051602081830303815290604052805190602001208360405160200161070a91906112a8565b6040516020818303038152906040528051906020012014905092915050565b6000610734826109eb565b610773576040517f08c379a000000000000000000000000000000000000000000000000000000000815260040161076a9061130b565b60405180910390fd5b600061077e83610561565b90508073ffffffffffffffffffffffffffffffffffffffff168473ffffffffffffffffffffffffffffffffffffffff161491505092915050565b600073ffffffffffffffffffffffffffffffffffffffff168273ffffffffffffffffffffffffffffffffffffffff1603610827576040517f08c379a000000000000000000000000000000000000000000000000000000000815260040161081e9061139d565b60405180910390fd5b8273ffffffffffffffffffffffffffffffffffffffff1661084782610561565b73ffffffffffffffffffffffffffffffffffffffff161461089d576040517f08c379a00000000000000000000000000000000000000000000000000000000081526004016108949061142f565b60405180910390fd5b6108e4600260008573ffffffffffffffffffffffffffffffffffffffff1673ffffffffffffffffffffffffffffffffffffffff168152602001908152602001600020610a5d565b61092b600260008473ffffffffffffffffffffffffffffffffffffffff1673ffffffffffffffffffffffffffffffffffffffff168152602001908152602001600020610a80565b816001600083815260200190815260200160002060006101000a81548173ffffffffffffffffffffffffffffffffffffffff021916908373ffffffffffffffffffffffffffffffffffffffff160217905550808273ffffffffffffffffffffffffffffffffffffffff168473ffffffffffffffffffffffffffffffffffffffff167fddf252ad1be2c89b69c2b068fc378daa952ba7f163c4a11628f55a4df523b3ef60405160405180910390a4505050565b600081600001549050919050565b6000806001600084815260200190815260200160002060009054906101000a900473ffffffffffffffffffffffffffffffffffffffff169050600073ffffffffffffffffffffffffffffffffffffffff168173ffffffffffffffffffffffffffffffffffffffff161415915050919050565b610a7560018260000154610a9f90919063ffffffff16565b816000018190555050565b6001816000016000828254610a95919061147e565b9250508190555050565b600082821115610ae4576040517f08c379a0000000000000000000000000000000000000000000000000000000008152600401610adb90611520565b60405180910390fd5b60008284610af29190611540565b90508091505092915050565b6000604051905090565b600080fd5b600080fd5b60007fffffffff0000000000000000000000000000000000000000000000000000000082169050919050565b610b4781610b12565b8114610b5257600080fd5b50565b600081359050610b6481610b3e565b92915050565b600060208284031215610b8057610b7f610b08565b5b6000610b8e84828501610b55565b91505092915050565b60008115159050919050565b610bac81610b97565b82525050565b6000602082019050610bc76000830184610ba3565b92915050565b600073ffffffffffffffffffffffffffffffffffffffff82169050919050565b6000610bf882610bcd565b9050919050565b610c0881610bed565b8114610c1357600080fd5b50565b600081359050610c2581610bff565b92915050565b6000819050919050565b610c3e81610c2b565b8114610c4957600080fd5b50565b600081359050610c5b81610c35565b92915050565b60008060408385031215610c7857610c77610b08565b5b6000610c8685828601610c16565b9250506020610c9785828601610c4c565b9150509250929050565b610caa81610c2b565b82525050565b6000602082019050610cc56000830184610ca1565b92915050565b600080600060608486031215610ce457610ce3610b08565b5b6000610cf286828701610c16565b9350506020610d0386828701610c16565b9250506040610d1486828701610c4c565b9150509250925092565b600060208284031215610d3457610d33610b08565b5b6000610d4284828501610c4c565b91505092915050565b610d5481610bed565b82525050565b6000602082019050610d6f6000830184610d4b565b92915050565b600060208284031215610d8b57610d8a610b08565b5b6000610d9984828501610c16565b91505092915050565b600080fd5b600080fd5b6000601f19601f8301169050919050565b7f4e487b7100000000000000000000000000000000000000000000000000000000600052604160045260246000fd5b610df582610dac565b810181811067ffffffffffffffff82111715610e1457610e13610dbd565b5b80604052505050565b6000610e27610afe565b9050610e338282610dec565b919050565b600067ffffffffffffffff821115610e5357610e52610dbd565b5b610e5c82610dac565b9050602081019050919050565b82818337600083830152505050565b6000610e8b610e8684610e38565b610e1d565b905082815260208101848484011115610ea757610ea6610da7565b5b610eb2848285610e69565b509392505050565b600082601f830112610ecf57610ece610da2565b5b8135610edf848260208601610e78565b91505092915050565b60008060408385031215610eff57610efe610b08565b5b600083013567ffffffffffffffff811115610f1d57610f1c610b0d565b5b610f2985828601610eba565b925050602083013567ffffffffffffffff811115610f4a57610f49610b0d565b5b610f5685828601610eba565b9150509250929050565b600082825260208201905092915050565b7f4572726f72202d20617070726f76616c20746f2063757272656e74206f776e6560008201527f7200000000000000000000000000000000000000000000000000000000000000602082015250565b6000610fcd602183610f60565b9150610fd882610f71565b604082019050919050565b60006020820190508181036000830152610ffc81610fc0565b9050919050565b7f43757272656e742063616c6c6572206973206e6f7420746865206f776e65722060008201527f6f662074686520746f6b656e0000000000000000000000000000000000000000602082015250565b600061105f602c83610f60565b915061106a82611003565b604082019050919050565b6000602082019050818103600083015261108e81611052565b9050919050565b7f6f776e657220696e646578206973206f7574206f6620626f756e647321000000600082015250565b60006110cb601d83610f60565b91506110d682611095565b602082019050919050565b600060208201905081810360008301526110fa816110be565b9050919050565b7f4e487b7100000000000000000000000000000000000000000000000000000000600052603260045260246000fd5b7f676c6f62616c20696e646578206973206f7574206f6620626f756e6473210000600082015250565b6000611166601e83610f60565b915061117182611130565b602082019050919050565b6000602082019050818103600083015261119581611159565b9050919050565b7f6f776e657220717565727920666f72206e6f6e2d6578697374656e7420746f6b60008201527f656e000000000000000000000000000000000000000000000000000000000000602082015250565b60006111f8602283610f60565b91506112038261119c565b604082019050919050565b60006020820190508181036000830152611227816111eb565b9050919050565b600081519050919050565b600081905092915050565b60005b83811015611262578082015181840152602081019050611247565b83811115611271576000848401525b50505050565b60006112828261122e565b61128c8185611239565b935061129c818560208601611244565b80840191505092915050565b60006112b48284611277565b915081905092915050565b7f746f6b656e20646f6573206e6f74206578697374000000000000000000000000600082015250565b60006112f5601483610f60565b9150611300826112bf565b602082019050919050565b60006020820190508181036000830152611324816112e8565b9050919050565b7f4572726f72202d20455243373231205472616e7366657220746f20746865207a60008201527f65726f2061646472657373000000000000000000000000000000000000000000602082015250565b6000611387602b83610f60565b91506113928261132b565b604082019050919050565b600060208201905081810360008301526113b68161137a565b9050919050565b7f547279696e6720746f207472616e73666572206120746f6b656e20746865206160008201527f64647265737320646f6573206e6f74206f776e21000000000000000000000000602082015250565b6000611419603483610f60565b9150611424826113bd565b604082019050919050565b600060208201905081810360008301526114488161140c565b9050919050565b7f4e487b7100000000000000000000000000000000000000000000000000000000600052601160045260246000fd5b600061148982610c2b565b915061149483610c2b565b9250827fffffffffffffffffffffffffffffffffffffffffffffffffffffffffffffffff038211156114c9576114c861144f565b5b828201905092915050565b7f536166654d6174683a207375627472616374696f6e206f766572666c6f770000600082015250565b600061150a601e83610f60565b9150611515826114d4565b602082019050919050565b60006020820190508181036000830152611539816114fd565b9050919050565b600061154b82610c2b565b915061155683610c2b565b9250828210156115695761156861144f565b5b82820390509291505056fea264697066735822122072d7c9e180fa906c7d3601ee09012f13edb43c49202a0b82c7cf22c076106fed64736f6c634300080d0033",
  "immutableReferences": {},
  "source": "// SPDX-License-Identifier: MIT\npragma solidity ^0.8.0;\n\nimport './ERC721.sol';\nimport './interfaces/IERC721Enumerable.sol';\n\ncontract ERC721Enumerable is IERC721Enumerable, ERC721 {\n\n    uint256[] private _allTokens;\n\n    // mapping from tokenId to position in _allTokens array\n        mapping(uint256 => uint256) private _allTokensIndex;\n\n    // mapping of owner to list of all owner token ids\n        mapping(address => uint256[]) private _ownedTokens;\n\n    // mapping from token ID to index of the owner tokens list \n        mapping(uint256 => uint256) private _ownedTokensIndex;\n\n    \n    constructor() {\n        _registerInterface(bytes4(keccak256('totalSupply(bytes4)')^\n        keccak256('tokenByIndex(bytes4)')^keccak256('tokenOfOwnerByIndex(bytes4)')));\n    }\n\n    function _mint(address idIssuedToAddress, uint tokenId, string memory _identityType, string memory _organizationType, address issuedBy) internal override(ERC721) {\n        super._mint(idIssuedToAddress, tokenId, _identityType, _organizationType, issuedBy);\n        // 2 things! A. add tokens to the owner\n        // B. all tokens to our totalsuppy - to allTokens\n        _addTokensToAllTokenEnumeration(tokenId); \n        _addTokensToOwnerEnumeration(idIssuedToAddress, tokenId);\n    }\n\n    // add tokens to the _alltokens array and set the position of the tokens indexes\n    function _addTokensToAllTokenEnumeration(uint256 tokenId) private {\n        _allTokensIndex[tokenId] = _allTokens.length;\n        _allTokens.push(tokenId); \n    }\n\n    function _addTokensToOwnerEnumeration(address to, uint256 tokenId) private {\n        // EXERCISE - CHALLENGE - DO THESE THREE THINGS:\n        // 1. add address and token id to the _ownedTokens\n        // 2. ownedTokensIndex tokenId set to address of \n        // ownedTokens position\n        // 3. we want to execute the function with minting\n        _ownedTokensIndex[tokenId] = _ownedTokens[to].length;\n        _ownedTokens[to].push(tokenId);   \n    }\n\n    // two functions - one that returns tokenByIndex and \n    // another one that returns tokenOfOwnerByIndex\n    function tokenByIndex(uint256 index) public override view returns(uint256) {\n        // make sure that the index is not out of bounds of the total supply \n        require(index < totalSupply(), 'global index is out of bounds!');\n        return _allTokens[index];\n    }\n\n    function tokenOfOwnerByIndex(address owner, uint index) public override view returns(uint256) {\n        require(index < balanceOf(owner),'owner index is out of bounds!');\n        return _ownedTokens[owner][index];  \n    }\n\n    // return the total supply of the _allTokens array\n    function totalSupply() public override view returns(uint256) {\n        return _allTokens.length;\n    }\n\n}",
  "sourcePath": "/Users/jakegny/Downloads/nft-marketplace-solution/src/contracts/ERC721Enumerable.sol",
  "compiler": {
    "name": "solc",
    "version": "0.8.13+commit.abaa5c0e.Emscripten.clang"
  },
  "schemaVersion": "3.4.6",
  "updatedAt": "2022-04-07T21:04:28.006Z",
  "devdoc": {
    "kind": "dev",
    "methods": {
      "ownerOf(uint256)": {
        "details": "NFTs assigned to zero address are considered invalid, and queries  about them do throw.",
        "params": {
          "_tokenId": "The identifier for an NFT"
        },
        "returns": {
          "_0": "The address of the owner of the NFT"
        }
      },
      "supportsInterface(bytes4)": {
        "details": "Interface identification is specified in ERC-165. This function  uses less than 30,000 gas.",
        "params": {
          "interfaceID": "The interface identifier, as specified in ERC-165"
        },
        "returns": {
          "_0": "`true` if the contract implements `interfaceID` and  `interfaceID` is not 0xffffffff, `false` otherwise"
        }
      }
    },
    "version": 1
  },
  "userdoc": {
    "kind": "user",
    "methods": {
      "ownerOf(uint256)": {
        "notice": "Find the owner of an NFT"
      },
      "supportsInterface(bytes4)": {
        "notice": "Query if a contract implements an interface"
      }
    },
    "version": 1
  }
}