{
  "contractName": "ERC721",
  "abi": [
    {
      "inputs": [],
      "stateMutability": "nonpayable",
      "type": "constructor"
    },
    {
      "anonymous": false,
      "inputs": [
        {
          "indexed": true,
          "internalType": "address",
          "name": "_owner",
          "type": "address"
        },
        {
          "indexed": true,
          "internalType": "address",
          "name": "_approved",
          "type": "address"
        },
        {
          "indexed": true,
          "internalType": "uint256",
          "name": "_tokenId",
          "type": "uint256"
        }
      ],
      "name": "Approval",
      "type": "event"
    },
    {
      "anonymous": false,
      "inputs": [
        {
          "indexed": true,
          "internalType": "address",
          "name": "_from",
          "type": "address"
        },
        {
          "indexed": true,
          "internalType": "address",
          "name": "_to",
          "type": "address"
        },
        {
          "indexed": true,
          "internalType": "uint256",
          "name": "_tokenId",
          "type": "uint256"
        }
      ],
      "name": "Transfer",
      "type": "event"
    },
    {
      "inputs": [
        {
          "internalType": "bytes4",
          "name": "interfaceID",
          "type": "bytes4"
        }
      ],
      "name": "supportsInterface",
      "outputs": [
        {
          "internalType": "bool",
          "name": "",
          "type": "bool"
        }
      ],
      "stateMutability": "view",
      "type": "function"
    },
    {
      "inputs": [
        {
          "internalType": "address",
          "name": "_owner",
          "type": "address"
        }
      ],
      "name": "balanceOf",
      "outputs": [
        {
          "internalType": "uint256",
          "name": "",
          "type": "uint256"
        }
      ],
      "stateMutability": "view",
      "type": "function"
    },
    {
      "inputs": [
        {
          "internalType": "uint256",
          "name": "_tokenId",
          "type": "uint256"
        }
      ],
      "name": "ownerOf",
      "outputs": [
        {
          "internalType": "address",
          "name": "",
          "type": "address"
        }
      ],
      "stateMutability": "view",
      "type": "function"
    },
    {
      "inputs": [
        {
          "internalType": "string",
          "name": "a",
          "type": "string"
        },
        {
          "internalType": "string",
          "name": "b",
          "type": "string"
        }
      ],
      "name": "compareStrings",
      "outputs": [
        {
          "internalType": "bool",
          "name": "",
          "type": "bool"
        }
      ],
      "stateMutability": "view",
      "type": "function"
    },
    {
      "inputs": [
        {
          "internalType": "address",
          "name": "_from",
          "type": "address"
        },
        {
          "internalType": "address",
          "name": "_to",
          "type": "address"
        },
        {
          "internalType": "uint256",
          "name": "_tokenId",
          "type": "uint256"
        }
      ],
      "name": "transferFrom",
      "outputs": [],
      "stateMutability": "nonpayable",
      "type": "function"
    },
    {
      "inputs": [
        {
          "internalType": "address",
          "name": "_to",
          "type": "address"
        },
        {
          "internalType": "uint256",
          "name": "tokenId",
          "type": "uint256"
        }
      ],
      "name": "approve",
      "outputs": [],
      "stateMutability": "nonpayable",
      "type": "function"
    }
  ],
  "bytecode": "0x60806040523480156200001157600080fd5b50620000437f01ffc9a7a5cef8baa21ed3c5c0d7e23accb804b619e9333b597f47a0d84076e2620000be60201b60201c565b620000b87f22c82707ba960a14c7592ffb6b8cfaa073fed0048a84cc7fa41f6b5bd8e7f2e47f3a6eb71757dfc6e784c1459d26270140c2c147d95ca985c80026fc5301c3eca17f8a7e378434598edc36d108689a030cbc9d7d465de4f74c71bae1028eed6a881b1818620000be60201b60201c565b62000218565b63ffffffff60e01b817bffffffffffffffffffffffffffffffffffffffffffffffffffffffff19160362000129576040517f08c379a00000000000000000000000000000000000000000000000000000000081526004016200012090620001f6565b60405180910390fd5b6001600080837bffffffffffffffffffffffffffffffffffffffffffffffffffffffff19167bffffffffffffffffffffffffffffffffffffffffffffffffffffffff1916815260200190815260200160002060006101000a81548160ff02191690831515021790555050565b600082825260208201905092915050565b7f496e76616c696420696e74657266616365207265717565737400000000000000600082015250565b6000620001de60198362000195565b9150620001eb82620001a6565b602082019050919050565b600060208201905081810360008301526200021181620001cf565b9050919050565b6112c680620002286000396000f3fe608060405234801561001057600080fd5b50600436106100625760003560e01c806301ffc9a714610067578063095ea7b31461009757806323b872dd146100b35780636352211e146100cf57806370a08231146100ff578063bed34bba1461012f575b600080fd5b610081600480360381019061007c919061098d565b61015f565b60405161008e91906109d5565b60405180910390f35b6100b160048036038101906100ac9190610a84565b6101c6565b005b6100cd60048036038101906100c89190610ac4565b610361565b005b6100e960048036038101906100e49190610b17565b610384565b6040516100f69190610b53565b60405180910390f35b61011960048036038101906101149190610b6e565b610435565b6040516101269190610baa565b60405180910390f35b61014960048036038101906101449190610d0b565b6104f3565b60405161015691906109d5565b60405180910390f35b6000806000837bffffffffffffffffffffffffffffffffffffffffffffffffffffffff19167bffffffffffffffffffffffffffffffffffffffffffffffffffffffff1916815260200190815260200160002060009054906101000a900460ff169050919050565b60006101d182610384565b90508073ffffffffffffffffffffffffffffffffffffffff168373ffffffffffffffffffffffffffffffffffffffff1603610241576040517f08c379a000000000000000000000000000000000000000000000000000000000815260040161023890610e06565b60405180910390fd5b8073ffffffffffffffffffffffffffffffffffffffff163373ffffffffffffffffffffffffffffffffffffffff16146102af576040517f08c379a00000000000000000000000000000000000000000000000000000000081526004016102a690610e98565b60405180910390fd5b826003600084815260200190815260200160002060006101000a81548173ffffffffffffffffffffffffffffffffffffffff021916908373ffffffffffffffffffffffffffffffffffffffff160217905550818373ffffffffffffffffffffffffffffffffffffffff168273ffffffffffffffffffffffffffffffffffffffff167f8c5be1e5ebec7d5bd14f71427d1e84f3dd0314c0f7b2291e5b200ac8c7c3b92560405160405180910390a4505050565b61036b338261054c565b61037457600080fd5b61037f8383836105db565b505050565b6000806001600084815260200190815260200160002060009054906101000a900473ffffffffffffffffffffffffffffffffffffffff169050600073ffffffffffffffffffffffffffffffffffffffff168173ffffffffffffffffffffffffffffffffffffffff160361042c576040517f08c379a000000000000000000000000000000000000000000000000000000000815260040161042390610f2a565b60405180910390fd5b80915050919050565b60008073ffffffffffffffffffffffffffffffffffffffff168273ffffffffffffffffffffffffffffffffffffffff16036104a5576040517f08c379a000000000000000000000000000000000000000000000000000000000815260040161049c90610f2a565b60405180910390fd5b6104ec600260008473ffffffffffffffffffffffffffffffffffffffff1673ffffffffffffffffffffffffffffffffffffffff168152602001908152602001600020610800565b9050919050565b6000816040516020016105069190610fc4565b604051602081830303815290604052805190602001208360405160200161052d9190610fc4565b6040516020818303038152906040528051906020012014905092915050565b60006105578261080e565b610596576040517f08c379a000000000000000000000000000000000000000000000000000000000815260040161058d90611027565b60405180910390fd5b60006105a183610384565b90508073ffffffffffffffffffffffffffffffffffffffff168473ffffffffffffffffffffffffffffffffffffffff161491505092915050565b600073ffffffffffffffffffffffffffffffffffffffff168273ffffffffffffffffffffffffffffffffffffffff160361064a576040517f08c379a0000000000000000000000000000000000000000000000000000000008152600401610641906110b9565b60405180910390fd5b8273ffffffffffffffffffffffffffffffffffffffff1661066a82610384565b73ffffffffffffffffffffffffffffffffffffffff16146106c0576040517f08c379a00000000000000000000000000000000000000000000000000000000081526004016106b79061114b565b60405180910390fd5b610707600260008573ffffffffffffffffffffffffffffffffffffffff1673ffffffffffffffffffffffffffffffffffffffff168152602001908152602001600020610880565b61074e600260008473ffffffffffffffffffffffffffffffffffffffff1673ffffffffffffffffffffffffffffffffffffffff1681526020019081526020016000206108a3565b816001600083815260200190815260200160002060006101000a81548173ffffffffffffffffffffffffffffffffffffffff021916908373ffffffffffffffffffffffffffffffffffffffff160217905550808273ffffffffffffffffffffffffffffffffffffffff168473ffffffffffffffffffffffffffffffffffffffff167fddf252ad1be2c89b69c2b068fc378daa952ba7f163c4a11628f55a4df523b3ef60405160405180910390a4505050565b600081600001549050919050565b6000806001600084815260200190815260200160002060009054906101000a900473ffffffffffffffffffffffffffffffffffffffff169050600073ffffffffffffffffffffffffffffffffffffffff168173ffffffffffffffffffffffffffffffffffffffff161415915050919050565b610898600182600001546108c290919063ffffffff16565b816000018190555050565b60018160000160008282546108b8919061119a565b9250508190555050565b600082821115610907576040517f08c379a00000000000000000000000000000000000000000000000000000000081526004016108fe9061123c565b60405180910390fd5b60008284610915919061125c565b90508091505092915050565b6000604051905090565b600080fd5b600080fd5b60007fffffffff0000000000000000000000000000000000000000000000000000000082169050919050565b61096a81610935565b811461097557600080fd5b50565b60008135905061098781610961565b92915050565b6000602082840312156109a3576109a261092b565b5b60006109b184828501610978565b91505092915050565b60008115159050919050565b6109cf816109ba565b82525050565b60006020820190506109ea60008301846109c6565b92915050565b600073ffffffffffffffffffffffffffffffffffffffff82169050919050565b6000610a1b826109f0565b9050919050565b610a2b81610a10565b8114610a3657600080fd5b50565b600081359050610a4881610a22565b92915050565b6000819050919050565b610a6181610a4e565b8114610a6c57600080fd5b50565b600081359050610a7e81610a58565b92915050565b60008060408385031215610a9b57610a9a61092b565b5b6000610aa985828601610a39565b9250506020610aba85828601610a6f565b9150509250929050565b600080600060608486031215610add57610adc61092b565b5b6000610aeb86828701610a39565b9350506020610afc86828701610a39565b9250506040610b0d86828701610a6f565b9150509250925092565b600060208284031215610b2d57610b2c61092b565b5b6000610b3b84828501610a6f565b91505092915050565b610b4d81610a10565b82525050565b6000602082019050610b686000830184610b44565b92915050565b600060208284031215610b8457610b8361092b565b5b6000610b9284828501610a39565b91505092915050565b610ba481610a4e565b82525050565b6000602082019050610bbf6000830184610b9b565b92915050565b600080fd5b600080fd5b6000601f19601f8301169050919050565b7f4e487b7100000000000000000000000000000000000000000000000000000000600052604160045260246000fd5b610c1882610bcf565b810181811067ffffffffffffffff82111715610c3757610c36610be0565b5b80604052505050565b6000610c4a610921565b9050610c568282610c0f565b919050565b600067ffffffffffffffff821115610c7657610c75610be0565b5b610c7f82610bcf565b9050602081019050919050565b82818337600083830152505050565b6000610cae610ca984610c5b565b610c40565b905082815260208101848484011115610cca57610cc9610bca565b5b610cd5848285610c8c565b509392505050565b600082601f830112610cf257610cf1610bc5565b5b8135610d02848260208601610c9b565b91505092915050565b60008060408385031215610d2257610d2161092b565b5b600083013567ffffffffffffffff811115610d4057610d3f610930565b5b610d4c85828601610cdd565b925050602083013567ffffffffffffffff811115610d6d57610d6c610930565b5b610d7985828601610cdd565b9150509250929050565b600082825260208201905092915050565b7f4572726f72202d20617070726f76616c20746f2063757272656e74206f776e6560008201527f7200000000000000000000000000000000000000000000000000000000000000602082015250565b6000610df0602183610d83565b9150610dfb82610d94565b604082019050919050565b60006020820190508181036000830152610e1f81610de3565b9050919050565b7f43757272656e742063616c6c6572206973206e6f7420746865206f776e65722060008201527f6f662074686520746f6b656e0000000000000000000000000000000000000000602082015250565b6000610e82602c83610d83565b9150610e8d82610e26565b604082019050919050565b60006020820190508181036000830152610eb181610e75565b9050919050565b7f6f776e657220717565727920666f72206e6f6e2d6578697374656e7420746f6b60008201527f656e000000000000000000000000000000000000000000000000000000000000602082015250565b6000610f14602283610d83565b9150610f1f82610eb8565b604082019050919050565b60006020820190508181036000830152610f4381610f07565b9050919050565b600081519050919050565b600081905092915050565b60005b83811015610f7e578082015181840152602081019050610f63565b83811115610f8d576000848401525b50505050565b6000610f9e82610f4a565b610fa88185610f55565b9350610fb8818560208601610f60565b80840191505092915050565b6000610fd08284610f93565b915081905092915050565b7f746f6b656e20646f6573206e6f74206578697374000000000000000000000000600082015250565b6000611011601483610d83565b915061101c82610fdb565b602082019050919050565b6000602082019050818103600083015261104081611004565b9050919050565b7f4572726f72202d20455243373231205472616e7366657220746f20746865207a60008201527f65726f2061646472657373000000000000000000000000000000000000000000602082015250565b60006110a3602b83610d83565b91506110ae82611047565b604082019050919050565b600060208201905081810360008301526110d281611096565b9050919050565b7f547279696e6720746f207472616e73666572206120746f6b656e20746865206160008201527f64647265737320646f6573206e6f74206f776e21000000000000000000000000602082015250565b6000611135603483610d83565b9150611140826110d9565b604082019050919050565b6000602082019050818103600083015261116481611128565b9050919050565b7f4e487b7100000000000000000000000000000000000000000000000000000000600052601160045260246000fd5b60006111a582610a4e565b91506111b083610a4e565b9250827fffffffffffffffffffffffffffffffffffffffffffffffffffffffffffffffff038211156111e5576111e461116b565b5b828201905092915050565b7f536166654d6174683a207375627472616374696f6e206f766572666c6f770000600082015250565b6000611226601e83610d83565b9150611231826111f0565b602082019050919050565b6000602082019050818103600083015261125581611219565b9050919050565b600061126782610a4e565b915061127283610a4e565b9250828210156112855761128461116b565b5b82820390509291505056fea2646970667358221220b10a621c3c88b352e08662d22384b0ef7ef5f19435bb1430e2b8ae8ccbc5535b64736f6c634300080d0033",
  "immutableReferences": {},
  "source": "// SPDX-License-Identifier: MIT\npragma solidity ^0.8.0;\n\nimport './ERC165.sol';\nimport './interfaces/IERC721.sol';\nimport './Libraries/Counters.sol';\n\n    /*\n    building out the minting function:\n        a. nft to point to an address\n        b. keep track of the token ids \n        c. keep track of token owner addresses to token ids\n        d. keep track of how many tokens an owner address has\n        e. create an event that emits a transfer log - contract address, \n         where it is being minted to, the id\n\n    */\n\ncontract ERC721 is ERC165, IERC721 {\n    using SafeMath for uint256; \n    using Counters for Counters.Counter;\n\n    // mapping in solidity creates a hash table of key pair values\n   \n    // Mapping from token id to the owner\n    mapping(uint256 => address) private _tokenOwner; \n\n    // Mapping from owner to number of owned tokens \n    mapping(address => Counters.Counter) private _OwnedTokensCount;\n\n    // Mapping from token id to approved addresses\n    mapping(uint256 => address) private _tokenApprovals; \n\n\t\t// https://github.com/ethereum/EIPs/issues/1238#issuecomment-469764886\n\t\taddress _owner; \n\t\tstring identityType;\n\t\tstring organizationType;\n\n\n    constructor() {\n        _registerInterface(bytes4(keccak256('balanceOf(bytes4)')^\n        keccak256('ownerOf(bytes4)')^keccak256('transferFrom(bytes4)')));\n    }\n\n        // well we find the current balanceOf\n        function balanceOf(address _owner) public override view returns(uint256) {\n            require(_owner != address(0), 'owner query for non-existent token');\n            return _OwnedTokensCount[_owner].current();\n        }\n\n    /// @notice Find the owner of an NFT\n    /// @dev NFTs assigned to zero address are considered invalid, and queries\n    ///  about them do throw.\n    /// @param _tokenId The identifier for an NFT\n    /// @return The address of the owner of the NFT\n    function ownerOf(uint256 _tokenId) public view override returns (address) {\n        address owner = _tokenOwner[_tokenId];\n        require(owner != address(0), 'owner query for non-existent token');\n        return owner;\n    }\n\n\n    function _exists(uint256 tokenId) internal view returns(bool){\n        // setting the address of nft owner to check the mapping\n        // of the address from tokenOwner at the tokenId \n         address owner = _tokenOwner[tokenId];\n         // return truthiness tha address is not zero\n         return owner != address(0);\n    }\n\n        // FINAL Library Exercise!\n        // Refactor the ERC721 NFT Smart Contract to be \n        // wired into our SafeMath & Counters Library\n\n    // this function is not safe \n    // any type of mathematics can be held to dubious standards \n    // in SOLIDITY\n    function _mint(address idIssuedToAddress, uint tokenId, string memory _identityType, string memory _organizationType, address issuedBy) internal virtual {\n        // requires that the address isn't zero\n        require(idIssuedToAddress != address(0), 'ERC721: minting to the zero addres');\n        // TODO: requires that the token does not already exist\n        // require(!_exists(tokenId), 'ERC721: token already minted');\n\n\t\t\t\trequire(compareStrings(_identityType,\"individual\") || compareStrings(_organizationType,\"organization\"), 'Identity must be either \\'individual\\' or \\'organization\\'');\n\n        // we are adding a new address with a token id for minting\n        _tokenOwner[tokenId] = idIssuedToAddress; \n        // keeping track of each address that is minting and adding one to the count\n        _OwnedTokensCount[idIssuedToAddress].increment();  \n\n\t\t\t\t_owner = idIssuedToAddress;\n\t\t\t\tidentityType = _identityType;\n\t\t\t\torganizationType = _organizationType;\n\n       \n       /* x = x + 1\n        r = x + y, abs r >= x\n        if x = 4 and y = 3 then r = 7\n       abs r >= x\n        r = x - y, abs y <= x\n        */  \n        \n\t\t\t\t// TODO: transfer?\n        emit Transfer(address(0), idIssuedToAddress, tokenId);\n    }\n\n\t\tfunction compareStrings(string memory a, string memory b) public view returns (bool) {\n    \treturn (keccak256(abi.encodePacked((a))) == keccak256(abi.encodePacked((b))));\n\t\t}\n\n\n/**\n\n\tNTT - Do not allow transfer (not ERC721 compliant)\n\n */\n\n    /// @notice Transfer ownership of an NFT \n    /// @dev Throws unless `msg.sender` is the current owner, an authorized\n    ///  operator, or the approved address for this NFT. Throws if `_from` is\n    ///  not the current owner. Throws if `_to` is the zero address. Throws if\n    ///  `_tokenId` is not a valid NFT.\n    /// @param _from The current owner of the NFT\n    /// @param _to The new owner\n    /// @param _tokenId The NFT to transfer\n\n    // this is not safe! \n    function _transferFrom(address _from, address _to, uint256 _tokenId) internal {\n        require(_to != address(0), 'Error - ERC721 Transfer to the zero address');\n        require(ownerOf(_tokenId) == _from, 'Trying to transfer a token the address does not own!');\n\n        _OwnedTokensCount[_from].decrement();\n        _OwnedTokensCount[_to].increment();\n\n        _tokenOwner[_tokenId] = _to;\n\n        emit Transfer(_from, _to, _tokenId);\n    }\n\n    function transferFrom(address _from, address _to, uint256 _tokenId) override public {\n        require(isApprovedOrOwner(msg.sender, _tokenId));\n        _transferFrom(_from, _to, _tokenId);\n\n    }\n\n    // 1. require that the person approving is the owner\n    // 2. we are approving an address to a token (tokenId)\n    // 3. require that we cant approve sending tokens of the owner to the owner (current caller)\n    // 4. update the map of the approval addresses\n\n    function approve(address _to, uint256 tokenId) public {\n        address owner = ownerOf(tokenId);\n        require(_to != owner, 'Error - approval to current owner');\n        require(msg.sender == owner, 'Current caller is not the owner of the token');\n        _tokenApprovals[tokenId] = _to;\n        emit Approval(owner, _to, tokenId);\n    } \n\n    function isApprovedOrOwner(address spender, uint256 tokenId) internal view returns(bool) {\n        require(_exists(tokenId), 'token does not exist');\n        address owner = ownerOf(tokenId);\n        return(spender == owner); \n    }\n\n}\n\n",
  "sourcePath": "/Users/jakegny/Downloads/nft-marketplace-solution/src/contracts/ERC721.sol",
  "compiler": {
    "name": "solc",
    "version": "0.8.13+commit.abaa5c0e.Emscripten.clang"
  },
  "schemaVersion": "3.4.6",
  "updatedAt": "2022-04-07T21:04:27.995Z",
  "devdoc": {
    "kind": "dev",
    "methods": {
      "ownerOf(uint256)": {
        "details": "NFTs assigned to zero address are considered invalid, and queries  about them do throw.",
        "params": {
          "_tokenId": "The identifier for an NFT"
        },
        "returns": {
          "_0": "The address of the owner of the NFT"
        }
      },
      "supportsInterface(bytes4)": {
        "details": "Interface identification is specified in ERC-165. This function  uses less than 30,000 gas.",
        "params": {
          "interfaceID": "The interface identifier, as specified in ERC-165"
        },
        "returns": {
          "_0": "`true` if the contract implements `interfaceID` and  `interfaceID` is not 0xffffffff, `false` otherwise"
        }
      }
    },
    "version": 1
  },
  "userdoc": {
    "kind": "user",
    "methods": {
      "ownerOf(uint256)": {
        "notice": "Find the owner of an NFT"
      },
      "supportsInterface(bytes4)": {
        "notice": "Query if a contract implements an interface"
      }
    },
    "version": 1
  }
}