{
  "contractName": "ERC721Connector",
  "abi": [
    {
      "inputs": [
        {
          "internalType": "string",
          "name": "name",
          "type": "string"
        },
        {
          "internalType": "string",
          "name": "symbol",
          "type": "string"
        }
      ],
      "stateMutability": "nonpayable",
      "type": "constructor"
    },
    {
      "anonymous": false,
      "inputs": [
        {
          "indexed": true,
          "internalType": "address",
          "name": "_owner",
          "type": "address"
        },
        {
          "indexed": true,
          "internalType": "address",
          "name": "_approved",
          "type": "address"
        },
        {
          "indexed": true,
          "internalType": "uint256",
          "name": "_tokenId",
          "type": "uint256"
        }
      ],
      "name": "Approval",
      "type": "event"
    },
    {
      "anonymous": false,
      "inputs": [
        {
          "indexed": true,
          "internalType": "address",
          "name": "_from",
          "type": "address"
        },
        {
          "indexed": true,
          "internalType": "address",
          "name": "_to",
          "type": "address"
        },
        {
          "indexed": true,
          "internalType": "uint256",
          "name": "_tokenId",
          "type": "uint256"
        }
      ],
      "name": "Transfer",
      "type": "event"
    },
    {
      "inputs": [
        {
          "internalType": "address",
          "name": "_to",
          "type": "address"
        },
        {
          "internalType": "uint256",
          "name": "tokenId",
          "type": "uint256"
        }
      ],
      "name": "approve",
      "outputs": [],
      "stateMutability": "nonpayable",
      "type": "function"
    },
    {
      "inputs": [
        {
          "internalType": "address",
          "name": "_owner",
          "type": "address"
        }
      ],
      "name": "balanceOf",
      "outputs": [
        {
          "internalType": "uint256",
          "name": "",
          "type": "uint256"
        }
      ],
      "stateMutability": "view",
      "type": "function"
    },
    {
      "inputs": [
        {
          "internalType": "string",
          "name": "a",
          "type": "string"
        },
        {
          "internalType": "string",
          "name": "b",
          "type": "string"
        }
      ],
      "name": "compareStrings",
      "outputs": [
        {
          "internalType": "bool",
          "name": "",
          "type": "bool"
        }
      ],
      "stateMutability": "view",
      "type": "function"
    },
    {
      "inputs": [],
      "name": "name",
      "outputs": [
        {
          "internalType": "string",
          "name": "",
          "type": "string"
        }
      ],
      "stateMutability": "view",
      "type": "function"
    },
    {
      "inputs": [
        {
          "internalType": "uint256",
          "name": "_tokenId",
          "type": "uint256"
        }
      ],
      "name": "ownerOf",
      "outputs": [
        {
          "internalType": "address",
          "name": "",
          "type": "address"
        }
      ],
      "stateMutability": "view",
      "type": "function"
    },
    {
      "inputs": [
        {
          "internalType": "bytes4",
          "name": "interfaceID",
          "type": "bytes4"
        }
      ],
      "name": "supportsInterface",
      "outputs": [
        {
          "internalType": "bool",
          "name": "",
          "type": "bool"
        }
      ],
      "stateMutability": "view",
      "type": "function"
    },
    {
      "inputs": [],
      "name": "symbol",
      "outputs": [
        {
          "internalType": "string",
          "name": "",
          "type": "string"
        }
      ],
      "stateMutability": "view",
      "type": "function"
    },
    {
      "inputs": [
        {
          "internalType": "uint256",
          "name": "index",
          "type": "uint256"
        }
      ],
      "name": "tokenByIndex",
      "outputs": [
        {
          "internalType": "uint256",
          "name": "",
          "type": "uint256"
        }
      ],
      "stateMutability": "view",
      "type": "function"
    },
    {
      "inputs": [
        {
          "internalType": "address",
          "name": "owner",
          "type": "address"
        },
        {
          "internalType": "uint256",
          "name": "index",
          "type": "uint256"
        }
      ],
      "name": "tokenOfOwnerByIndex",
      "outputs": [
        {
          "internalType": "uint256",
          "name": "",
          "type": "uint256"
        }
      ],
      "stateMutability": "view",
      "type": "function"
    },
    {
      "inputs": [],
      "name": "totalSupply",
      "outputs": [
        {
          "internalType": "uint256",
          "name": "",
          "type": "uint256"
        }
      ],
      "stateMutability": "view",
      "type": "function"
    },
    {
      "inputs": [
        {
          "internalType": "address",
          "name": "_from",
          "type": "address"
        },
        {
          "internalType": "address",
          "name": "_to",
          "type": "address"
        },
        {
          "internalType": "uint256",
          "name": "_tokenId",
          "type": "uint256"
        }
      ],
      "name": "transferFrom",
      "outputs": [],
      "stateMutability": "nonpayable",
      "type": "function"
    }
  ],
  "bytecode": "0x60806040523480156200001157600080fd5b5060405162001e5e38038062001e5e833981810160405281019062000037919062000507565b81816200006a7f01ffc9a7a5cef8baa21ed3c5c0d7e23accb804b619e9333b597f47a0d84076e2620001e360201b60201c565b620000bd7f13b182f4c0e5b2efbac0efe6cf6d756c8b89f4b79c5707a043ed9ea740574ee97f7feaf19471f34a12a7eaf32d5f3090aa2260ea8624dc8a138e74e0bf0f62307618620001e360201b60201c565b8160019080519060200190620000d5929190620002ba565b508060029080519060200190620000ee929190620002ba565b505050620001667f22c82707ba960a14c7592ffb6b8cfaa073fed0048a84cc7fa41f6b5bd8e7f2e47f3a6eb71757dfc6e784c1459d26270140c2c147d95ca985c80026fc5301c3eca17f8a7e378434598edc36d108689a030cbc9d7d465de4f74c71bae1028eed6a881b1818620001e360201b60201c565b620001db7f8230223f691b981717299fae9549350a0d894555723531f02108b1f522c1a7977f6da5e1284143cdd2d15038a59bde3be031250f00291d64494c12d967b3a4e0c37fc53637662700e6c65104059db8bba34439e0c32483ab7c34e3ccae52c73954951818620001e360201b60201c565b505062000673565b63ffffffff60e01b817bffffffffffffffffffffffffffffffffffffffffffffffffffffffff1916036200024e576040517f08c379a00000000000000000000000000000000000000000000000000000000081526004016200024590620005ed565b60405180910390fd5b6001600080837bffffffffffffffffffffffffffffffffffffffffffffffffffffffff19167bffffffffffffffffffffffffffffffffffffffffffffffffffffffff1916815260200190815260200160002060006101000a81548160ff02191690831515021790555050565b828054620002c8906200063e565b90600052602060002090601f016020900481019282620002ec576000855562000338565b82601f106200030757805160ff191683800117855562000338565b8280016001018555821562000338579182015b82811115620003375782518255916020019190600101906200031a565b5b5090506200034791906200034b565b5090565b5b80821115620003665760008160009055506001016200034c565b5090565b6000604051905090565b600080fd5b600080fd5b600080fd5b600080fd5b6000601f19601f8301169050919050565b7f4e487b7100000000000000000000000000000000000000000000000000000000600052604160045260246000fd5b620003d38262000388565b810181811067ffffffffffffffff82111715620003f557620003f462000399565b5b80604052505050565b60006200040a6200036a565b9050620004188282620003c8565b919050565b600067ffffffffffffffff8211156200043b576200043a62000399565b5b620004468262000388565b9050602081019050919050565b60005b838110156200047357808201518184015260208101905062000456565b8381111562000483576000848401525b50505050565b6000620004a06200049a846200041d565b620003fe565b905082815260208101848484011115620004bf57620004be62000383565b5b620004cc84828562000453565b509392505050565b600082601f830112620004ec57620004eb6200037e565b5b8151620004fe84826020860162000489565b91505092915050565b6000806040838503121562000521576200052062000374565b5b600083015167ffffffffffffffff81111562000542576200054162000379565b5b6200055085828601620004d4565b925050602083015167ffffffffffffffff81111562000574576200057362000379565b5b6200058285828601620004d4565b9150509250929050565b600082825260208201905092915050565b7f496e76616c696420696e74657266616365207265717565737400000000000000600082015250565b6000620005d56019836200058c565b9150620005e2826200059d565b602082019050919050565b600060208201905081810360008301526200060881620005c6565b9050919050565b7f4e487b7100000000000000000000000000000000000000000000000000000000600052602260045260246000fd5b600060028204905060018216806200065757607f821691505b6020821081036200066d576200066c6200060f565b5b50919050565b6117db80620006836000396000f3fe608060405234801561001057600080fd5b50600436106100a95760003560e01c80632f745c59116100715780632f745c59146101525780634f6ccce7146101825780636352211e146101b257806370a08231146101e257806395d89b4114610212578063bed34bba14610230576100a9565b806301ffc9a7146100ae57806306fdde03146100de578063095ea7b3146100fc57806318160ddd1461011857806323b872dd14610136575b600080fd5b6100c860048036038101906100c39190610ce0565b610260565b6040516100d59190610d28565b60405180910390f35b6100e66102c7565b6040516100f39190610ddc565b60405180910390f35b61011660048036038101906101119190610e92565b610359565b005b6101206104f4565b60405161012d9190610ee1565b60405180910390f35b610150600480360381019061014b9190610efc565b610501565b005b61016c60048036038101906101679190610e92565b610524565b6040516101799190610ee1565b60405180910390f35b61019c60048036038101906101979190610f4f565b6105d4565b6040516101a99190610ee1565b60405180910390f35b6101cc60048036038101906101c79190610f4f565b610645565b6040516101d99190610f8b565b60405180910390f35b6101fc60048036038101906101f79190610fa6565b6106f6565b6040516102099190610ee1565b60405180910390f35b61021a6107b4565b6040516102279190610ddc565b60405180910390f35b61024a60048036038101906102459190611108565b610846565b6040516102579190610d28565b60405180910390f35b6000806000837bffffffffffffffffffffffffffffffffffffffffffffffffffffffff19167bffffffffffffffffffffffffffffffffffffffffffffffffffffffff1916815260200190815260200160002060009054906101000a900460ff169050919050565b6060600180546102d6906111af565b80601f0160208091040260200160405190810160405280929190818152602001828054610302906111af565b801561034f5780601f106103245761010080835404028352916020019161034f565b820191906000526020600020905b81548152906001019060200180831161033257829003601f168201915b5050505050905090565b600061036482610645565b90508073ffffffffffffffffffffffffffffffffffffffff168373ffffffffffffffffffffffffffffffffffffffff16036103d4576040517f08c379a00000000000000000000000000000000000000000000000000000000081526004016103cb90611252565b60405180910390fd5b8073ffffffffffffffffffffffffffffffffffffffff163373ffffffffffffffffffffffffffffffffffffffff1614610442576040517f08c379a0000000000000000000000000000000000000000000000000000000008152600401610439906112e4565b60405180910390fd5b826005600084815260200190815260200160002060006101000a81548173ffffffffffffffffffffffffffffffffffffffff021916908373ffffffffffffffffffffffffffffffffffffffff160217905550818373ffffffffffffffffffffffffffffffffffffffff168273ffffffffffffffffffffffffffffffffffffffff167f8c5be1e5ebec7d5bd14f71427d1e84f3dd0314c0f7b2291e5b200ac8c7c3b92560405160405180910390a4505050565b6000600980549050905090565b61050b338261089f565b61051457600080fd5b61051f83838361092e565b505050565b600061052f836106f6565b8210610570576040517f08c379a000000000000000000000000000000000000000000000000000000000815260040161056790611350565b60405180910390fd5b600b60008473ffffffffffffffffffffffffffffffffffffffff1673ffffffffffffffffffffffffffffffffffffffff16815260200190815260200160002082815481106105c1576105c0611370565b5b9060005260206000200154905092915050565b60006105de6104f4565b821061061f576040517f08c379a0000000000000000000000000000000000000000000000000000000008152600401610616906113eb565b60405180910390fd5b6009828154811061063357610632611370565b5b90600052602060002001549050919050565b6000806003600084815260200190815260200160002060009054906101000a900473ffffffffffffffffffffffffffffffffffffffff169050600073ffffffffffffffffffffffffffffffffffffffff168173ffffffffffffffffffffffffffffffffffffffff16036106ed576040517f08c379a00000000000000000000000000000000000000000000000000000000081526004016106e49061147d565b60405180910390fd5b80915050919050565b60008073ffffffffffffffffffffffffffffffffffffffff168273ffffffffffffffffffffffffffffffffffffffff1603610766576040517f08c379a000000000000000000000000000000000000000000000000000000000815260040161075d9061147d565b60405180910390fd5b6107ad600460008473ffffffffffffffffffffffffffffffffffffffff1673ffffffffffffffffffffffffffffffffffffffff168152602001908152602001600020610b53565b9050919050565b6060600280546107c3906111af565b80601f01602080910402602001604051908101604052809291908181526020018280546107ef906111af565b801561083c5780601f106108115761010080835404028352916020019161083c565b820191906000526020600020905b81548152906001019060200180831161081f57829003601f168201915b5050505050905090565b60008160405160200161085991906114d9565b604051602081830303815290604052805190602001208360405160200161088091906114d9565b6040516020818303038152906040528051906020012014905092915050565b60006108aa82610b61565b6108e9576040517f08c379a00000000000000000000000000000000000000000000000000000000081526004016108e09061153c565b60405180910390fd5b60006108f483610645565b90508073ffffffffffffffffffffffffffffffffffffffff168473ffffffffffffffffffffffffffffffffffffffff161491505092915050565b600073ffffffffffffffffffffffffffffffffffffffff168273ffffffffffffffffffffffffffffffffffffffff160361099d576040517f08c379a0000000000000000000000000000000000000000000000000000000008152600401610994906115ce565b60405180910390fd5b8273ffffffffffffffffffffffffffffffffffffffff166109bd82610645565b73ffffffffffffffffffffffffffffffffffffffff1614610a13576040517f08c379a0000000000000000000000000000000000000000000000000000000008152600401610a0a90611660565b60405180910390fd5b610a5a600460008573ffffffffffffffffffffffffffffffffffffffff1673ffffffffffffffffffffffffffffffffffffffff168152602001908152602001600020610bd3565b610aa1600460008473ffffffffffffffffffffffffffffffffffffffff1673ffffffffffffffffffffffffffffffffffffffff168152602001908152602001600020610bf6565b816003600083815260200190815260200160002060006101000a81548173ffffffffffffffffffffffffffffffffffffffff021916908373ffffffffffffffffffffffffffffffffffffffff160217905550808273ffffffffffffffffffffffffffffffffffffffff168473ffffffffffffffffffffffffffffffffffffffff167fddf252ad1be2c89b69c2b068fc378daa952ba7f163c4a11628f55a4df523b3ef60405160405180910390a4505050565b600081600001549050919050565b6000806003600084815260200190815260200160002060009054906101000a900473ffffffffffffffffffffffffffffffffffffffff169050600073ffffffffffffffffffffffffffffffffffffffff168173ffffffffffffffffffffffffffffffffffffffff161415915050919050565b610beb60018260000154610c1590919063ffffffff16565b816000018190555050565b6001816000016000828254610c0b91906116af565b9250508190555050565b600082821115610c5a576040517f08c379a0000000000000000000000000000000000000000000000000000000008152600401610c5190611751565b60405180910390fd5b60008284610c689190611771565b90508091505092915050565b6000604051905090565b600080fd5b600080fd5b60007fffffffff0000000000000000000000000000000000000000000000000000000082169050919050565b610cbd81610c88565b8114610cc857600080fd5b50565b600081359050610cda81610cb4565b92915050565b600060208284031215610cf657610cf5610c7e565b5b6000610d0484828501610ccb565b91505092915050565b60008115159050919050565b610d2281610d0d565b82525050565b6000602082019050610d3d6000830184610d19565b92915050565b600081519050919050565b600082825260208201905092915050565b60005b83811015610d7d578082015181840152602081019050610d62565b83811115610d8c576000848401525b50505050565b6000601f19601f8301169050919050565b6000610dae82610d43565b610db88185610d4e565b9350610dc8818560208601610d5f565b610dd181610d92565b840191505092915050565b60006020820190508181036000830152610df68184610da3565b905092915050565b600073ffffffffffffffffffffffffffffffffffffffff82169050919050565b6000610e2982610dfe565b9050919050565b610e3981610e1e565b8114610e4457600080fd5b50565b600081359050610e5681610e30565b92915050565b6000819050919050565b610e6f81610e5c565b8114610e7a57600080fd5b50565b600081359050610e8c81610e66565b92915050565b60008060408385031215610ea957610ea8610c7e565b5b6000610eb785828601610e47565b9250506020610ec885828601610e7d565b9150509250929050565b610edb81610e5c565b82525050565b6000602082019050610ef66000830184610ed2565b92915050565b600080600060608486031215610f1557610f14610c7e565b5b6000610f2386828701610e47565b9350506020610f3486828701610e47565b9250506040610f4586828701610e7d565b9150509250925092565b600060208284031215610f6557610f64610c7e565b5b6000610f7384828501610e7d565b91505092915050565b610f8581610e1e565b82525050565b6000602082019050610fa06000830184610f7c565b92915050565b600060208284031215610fbc57610fbb610c7e565b5b6000610fca84828501610e47565b91505092915050565b600080fd5b600080fd5b7f4e487b7100000000000000000000000000000000000000000000000000000000600052604160045260246000fd5b61101582610d92565b810181811067ffffffffffffffff8211171561103457611033610fdd565b5b80604052505050565b6000611047610c74565b9050611053828261100c565b919050565b600067ffffffffffffffff82111561107357611072610fdd565b5b61107c82610d92565b9050602081019050919050565b82818337600083830152505050565b60006110ab6110a684611058565b61103d565b9050828152602081018484840111156110c7576110c6610fd8565b5b6110d2848285611089565b509392505050565b600082601f8301126110ef576110ee610fd3565b5b81356110ff848260208601611098565b91505092915050565b6000806040838503121561111f5761111e610c7e565b5b600083013567ffffffffffffffff81111561113d5761113c610c83565b5b611149858286016110da565b925050602083013567ffffffffffffffff81111561116a57611169610c83565b5b611176858286016110da565b9150509250929050565b7f4e487b7100000000000000000000000000000000000000000000000000000000600052602260045260246000fd5b600060028204905060018216806111c757607f821691505b6020821081036111da576111d9611180565b5b50919050565b7f4572726f72202d20617070726f76616c20746f2063757272656e74206f776e6560008201527f7200000000000000000000000000000000000000000000000000000000000000602082015250565b600061123c602183610d4e565b9150611247826111e0565b604082019050919050565b6000602082019050818103600083015261126b8161122f565b9050919050565b7f43757272656e742063616c6c6572206973206e6f7420746865206f776e65722060008201527f6f662074686520746f6b656e0000000000000000000000000000000000000000602082015250565b60006112ce602c83610d4e565b91506112d982611272565b604082019050919050565b600060208201905081810360008301526112fd816112c1565b9050919050565b7f6f776e657220696e646578206973206f7574206f6620626f756e647321000000600082015250565b600061133a601d83610d4e565b915061134582611304565b602082019050919050565b600060208201905081810360008301526113698161132d565b9050919050565b7f4e487b7100000000000000000000000000000000000000000000000000000000600052603260045260246000fd5b7f676c6f62616c20696e646578206973206f7574206f6620626f756e6473210000600082015250565b60006113d5601e83610d4e565b91506113e08261139f565b602082019050919050565b60006020820190508181036000830152611404816113c8565b9050919050565b7f6f776e657220717565727920666f72206e6f6e2d6578697374656e7420746f6b60008201527f656e000000000000000000000000000000000000000000000000000000000000602082015250565b6000611467602283610d4e565b91506114728261140b565b604082019050919050565b600060208201905081810360008301526114968161145a565b9050919050565b600081905092915050565b60006114b382610d43565b6114bd818561149d565b93506114cd818560208601610d5f565b80840191505092915050565b60006114e582846114a8565b915081905092915050565b7f746f6b656e20646f6573206e6f74206578697374000000000000000000000000600082015250565b6000611526601483610d4e565b9150611531826114f0565b602082019050919050565b6000602082019050818103600083015261155581611519565b9050919050565b7f4572726f72202d20455243373231205472616e7366657220746f20746865207a60008201527f65726f2061646472657373000000000000000000000000000000000000000000602082015250565b60006115b8602b83610d4e565b91506115c38261155c565b604082019050919050565b600060208201905081810360008301526115e7816115ab565b9050919050565b7f547279696e6720746f207472616e73666572206120746f6b656e20746865206160008201527f64647265737320646f6573206e6f74206f776e21000000000000000000000000602082015250565b600061164a603483610d4e565b9150611655826115ee565b604082019050919050565b600060208201905081810360008301526116798161163d565b9050919050565b7f4e487b7100000000000000000000000000000000000000000000000000000000600052601160045260246000fd5b60006116ba82610e5c565b91506116c583610e5c565b9250827fffffffffffffffffffffffffffffffffffffffffffffffffffffffffffffffff038211156116fa576116f9611680565b5b828201905092915050565b7f536166654d6174683a207375627472616374696f6e206f766572666c6f770000600082015250565b600061173b601e83610d4e565b915061174682611705565b602082019050919050565b6000602082019050818103600083015261176a8161172e565b9050919050565b600061177c82610e5c565b915061178783610e5c565b92508282101561179a57611799611680565b5b82820390509291505056fea26469706673582212207c387cd20990954adb747f2ea99b898a858e683ce5a4d0a222c14229af54ca3964736f6c634300080d0033",
  "immutableReferences": {},
  "source": "// SPDX-License-Identifier: MIT\npragma solidity ^0.8.0;\n\nimport './ERC721Metadata.sol';\nimport './ERC721Enumerable.sol';\n\ncontract ERC721Connector is ERC721Metadata, ERC721Enumerable {\n\n    // we deploy connector right away\n    // we want to carry the metadata info over\n\n    constructor(string memory name, string memory symbol)  ERC721Metadata(name, symbol) {\n        \n    }\n\n}",
  "sourcePath": "/Users/jakegny/Downloads/nft-marketplace-solution/src/contracts/ERC721Connector.sol",
  "compiler": {
    "name": "solc",
    "version": "0.8.13+commit.abaa5c0e.Emscripten.clang"
  },
  "schemaVersion": "3.4.6",
  "updatedAt": "2022-04-07T21:04:28.002Z",
  "devdoc": {
    "kind": "dev",
    "methods": {
      "ownerOf(uint256)": {
        "details": "NFTs assigned to zero address are considered invalid, and queries  about them do throw.",
        "params": {
          "_tokenId": "The identifier for an NFT"
        },
        "returns": {
          "_0": "The address of the owner of the NFT"
        }
      },
      "supportsInterface(bytes4)": {
        "details": "Interface identification is specified in ERC-165. This function  uses less than 30,000 gas.",
        "params": {
          "interfaceID": "The interface identifier, as specified in ERC-165"
        },
        "returns": {
          "_0": "`true` if the contract implements `interfaceID` and  `interfaceID` is not 0xffffffff, `false` otherwise"
        }
      }
    },
    "version": 1
  },
  "userdoc": {
    "kind": "user",
    "methods": {
      "ownerOf(uint256)": {
        "notice": "Find the owner of an NFT"
      },
      "supportsInterface(bytes4)": {
        "notice": "Query if a contract implements an interface"
      }
    },
    "version": 1
  }
}