{
  "contractName": "Guild",
  "abi": [
    {
      "inputs": [],
      "stateMutability": "nonpayable",
      "type": "constructor"
    },
    {
      "anonymous": false,
      "inputs": [
        {
          "indexed": true,
          "internalType": "address",
          "name": "owner",
          "type": "address"
        },
        {
          "indexed": true,
          "internalType": "address",
          "name": "approved",
          "type": "address"
        },
        {
          "indexed": true,
          "internalType": "uint256",
          "name": "tokenId",
          "type": "uint256"
        }
      ],
      "name": "Approval",
      "type": "event"
    },
    {
      "anonymous": false,
      "inputs": [
        {
          "indexed": true,
          "internalType": "address",
          "name": "owner",
          "type": "address"
        },
        {
          "indexed": true,
          "internalType": "address",
          "name": "operator",
          "type": "address"
        },
        {
          "indexed": false,
          "internalType": "bool",
          "name": "approved",
          "type": "bool"
        }
      ],
      "name": "ApprovalForAll",
      "type": "event"
    },
    {
      "anonymous": false,
      "inputs": [
        {
          "indexed": true,
          "internalType": "address",
          "name": "from",
          "type": "address"
        },
        {
          "indexed": true,
          "internalType": "address",
          "name": "to",
          "type": "address"
        },
        {
          "indexed": true,
          "internalType": "uint256",
          "name": "tokenId",
          "type": "uint256"
        }
      ],
      "name": "Transfer",
      "type": "event"
    },
    {
      "inputs": [
        {
          "internalType": "address",
          "name": "to",
          "type": "address"
        },
        {
          "internalType": "uint256",
          "name": "tokenId",
          "type": "uint256"
        }
      ],
      "name": "approve",
      "outputs": [],
      "stateMutability": "nonpayable",
      "type": "function"
    },
    {
      "inputs": [
        {
          "internalType": "address",
          "name": "owner",
          "type": "address"
        }
      ],
      "name": "balanceOf",
      "outputs": [
        {
          "internalType": "uint256",
          "name": "",
          "type": "uint256"
        }
      ],
      "stateMutability": "view",
      "type": "function"
    },
    {
      "inputs": [
        {
          "internalType": "uint256",
          "name": "tokenId",
          "type": "uint256"
        }
      ],
      "name": "getApproved",
      "outputs": [
        {
          "internalType": "address",
          "name": "",
          "type": "address"
        }
      ],
      "stateMutability": "view",
      "type": "function"
    },
    {
      "inputs": [
        {
          "internalType": "uint256",
          "name": "",
          "type": "uint256"
        }
      ],
      "name": "guildInfo",
      "outputs": [
        {
          "internalType": "string",
          "name": "profession",
          "type": "string"
        }
      ],
      "stateMutability": "view",
      "type": "function"
    },
    {
      "inputs": [
        {
          "internalType": "address",
          "name": "owner",
          "type": "address"
        },
        {
          "internalType": "address",
          "name": "operator",
          "type": "address"
        }
      ],
      "name": "isApprovedForAll",
      "outputs": [
        {
          "internalType": "bool",
          "name": "",
          "type": "bool"
        }
      ],
      "stateMutability": "view",
      "type": "function"
    },
    {
      "inputs": [],
      "name": "name",
      "outputs": [
        {
          "internalType": "string",
          "name": "",
          "type": "string"
        }
      ],
      "stateMutability": "view",
      "type": "function"
    },
    {
      "inputs": [
        {
          "internalType": "uint256",
          "name": "tokenId",
          "type": "uint256"
        }
      ],
      "name": "ownerOf",
      "outputs": [
        {
          "internalType": "address",
          "name": "",
          "type": "address"
        }
      ],
      "stateMutability": "view",
      "type": "function"
    },
    {
      "inputs": [
        {
          "internalType": "address",
          "name": "from",
          "type": "address"
        },
        {
          "internalType": "address",
          "name": "to",
          "type": "address"
        },
        {
          "internalType": "uint256",
          "name": "tokenId",
          "type": "uint256"
        }
      ],
      "name": "safeTransferFrom",
      "outputs": [],
      "stateMutability": "nonpayable",
      "type": "function"
    },
    {
      "inputs": [
        {
          "internalType": "address",
          "name": "from",
          "type": "address"
        },
        {
          "internalType": "address",
          "name": "to",
          "type": "address"
        },
        {
          "internalType": "uint256",
          "name": "tokenId",
          "type": "uint256"
        },
        {
          "internalType": "bytes",
          "name": "_data",
          "type": "bytes"
        }
      ],
      "name": "safeTransferFrom",
      "outputs": [],
      "stateMutability": "nonpayable",
      "type": "function"
    },
    {
      "inputs": [
        {
          "internalType": "address",
          "name": "operator",
          "type": "address"
        },
        {
          "internalType": "bool",
          "name": "approved",
          "type": "bool"
        }
      ],
      "name": "setApprovalForAll",
      "outputs": [],
      "stateMutability": "nonpayable",
      "type": "function"
    },
    {
      "inputs": [
        {
          "internalType": "bytes4",
          "name": "interfaceId",
          "type": "bytes4"
        }
      ],
      "name": "supportsInterface",
      "outputs": [
        {
          "internalType": "bool",
          "name": "",
          "type": "bool"
        }
      ],
      "stateMutability": "view",
      "type": "function"
    },
    {
      "inputs": [],
      "name": "symbol",
      "outputs": [
        {
          "internalType": "string",
          "name": "",
          "type": "string"
        }
      ],
      "stateMutability": "view",
      "type": "function"
    },
    {
      "inputs": [
        {
          "internalType": "address",
          "name": "from",
          "type": "address"
        },
        {
          "internalType": "address",
          "name": "to",
          "type": "address"
        },
        {
          "internalType": "uint256",
          "name": "tokenId",
          "type": "uint256"
        }
      ],
      "name": "transferFrom",
      "outputs": [],
      "stateMutability": "nonpayable",
      "type": "function"
    },
    {
      "inputs": [
        {
          "internalType": "address",
          "name": "to",
          "type": "address"
        },
        {
          "internalType": "string",
          "name": "_profession",
          "type": "string"
        }
      ],
      "name": "mint",
      "outputs": [],
      "stateMutability": "nonpayable",
      "type": "function"
    },
    {
      "inputs": [
        {
          "internalType": "uint256",
          "name": "tokenId",
          "type": "uint256"
        }
      ],
      "name": "tokenURI",
      "outputs": [
        {
          "internalType": "string",
          "name": "",
          "type": "string"
        }
      ],
      "stateMutability": "view",
      "type": "function"
    }
  ],
  "bytecode": "0x60806040523480156200001157600080fd5b506040518060400160405280600581526020017f4775696c640000000000000000000000000000000000000000000000000000008152506040518060400160405280600581526020017f4755494c44000000000000000000000000000000000000000000000000000000815250816000908051906020019062000096929190620000b8565b508060019080519060200190620000af929190620000b8565b505050620001cc565b828054620000c69062000197565b90600052602060002090601f016020900481019282620000ea576000855562000136565b82601f106200010557805160ff191683800117855562000136565b8280016001018555821562000136579182015b828111156200013557825182559160200191906001019062000118565b5b50905062000145919062000149565b5090565b5b80821115620001645760008160009055506001016200014a565b5090565b7f4e487b7100000000000000000000000000000000000000000000000000000000600052602260045260246000fd5b60006002820490506001821680620001b057607f821691505b602082108103620001c657620001c562000168565b5b50919050565b612b0d80620001dc6000396000f3fe608060405234801561001057600080fd5b50600436106100f55760003560e01c806370a0823111610097578063b88d4fde11610066578063b88d4fde14610296578063c87b56dd146102b2578063d0def521146102e2578063e985e9c5146102fe576100f5565b806370a08231146101fc57806395d89b411461022c578063a22cb4651461024a578063ae0d687e14610266576100f5565b8063095ea7b3116100d3578063095ea7b31461017857806323b872dd1461019457806342842e0e146101b05780636352211e146101cc576100f5565b806301ffc9a7146100fa57806306fdde031461012a578063081812fc14610148575b600080fd5b610114600480360381019061010f9190611892565b61032e565b60405161012191906118da565b60405180910390f35b610132610410565b60405161013f919061198e565b60405180910390f35b610162600480360381019061015d91906119e6565b6104a2565b60405161016f9190611a54565b60405180910390f35b610192600480360381019061018d9190611a9b565b610527565b005b6101ae60048036038101906101a99190611adb565b61063e565b005b6101ca60048036038101906101c59190611adb565b61069e565b005b6101e660048036038101906101e191906119e6565b6106be565b6040516101f39190611a54565b60405180910390f35b61021660048036038101906102119190611b2e565b61076f565b6040516102239190611b6a565b60405180910390f35b610234610826565b604051610241919061198e565b60405180910390f35b610264600480360381019061025f9190611bb1565b6108b8565b005b610280600480360381019061027b91906119e6565b6108ce565b60405161028d919061198e565b60405180910390f35b6102b060048036038101906102ab9190611d26565b610974565b005b6102cc60048036038101906102c791906119e6565b6109d6565b6040516102d9919061198e565b60405180910390f35b6102fc60048036038101906102f79190611e4a565b610a41565b005b61031860048036038101906103139190611ea6565b610aaa565b60405161032591906118da565b60405180910390f35b60007f80ac58cd000000000000000000000000000000000000000000000000000000007bffffffffffffffffffffffffffffffffffffffffffffffffffffffff1916827bffffffffffffffffffffffffffffffffffffffffffffffffffffffff191614806103f957507f5b5e139f000000000000000000000000000000000000000000000000000000007bffffffffffffffffffffffffffffffffffffffffffffffffffffffff1916827bffffffffffffffffffffffffffffffffffffffffffffffffffffffff1916145b80610409575061040882610b3e565b5b9050919050565b60606000805461041f90611f15565b80601f016020809104026020016040519081016040528092919081815260200182805461044b90611f15565b80156104985780601f1061046d57610100808354040283529160200191610498565b820191906000526020600020905b81548152906001019060200180831161047b57829003601f168201915b5050505050905090565b60006104ad82610ba8565b6104ec576040517f08c379a00000000000000000000000000000000000000000000000000000000081526004016104e390611fb8565b60405180910390fd5b6004600083815260200190815260200160002060009054906101000a900473ffffffffffffffffffffffffffffffffffffffff169050919050565b6000610532826106be565b90508073ffffffffffffffffffffffffffffffffffffffff168373ffffffffffffffffffffffffffffffffffffffff16036105a2576040517f08c379a00000000000000000000000000000000000000000000000000000000081526004016105999061204a565b60405180910390fd5b8073ffffffffffffffffffffffffffffffffffffffff166105c1610c14565b73ffffffffffffffffffffffffffffffffffffffff1614806105f057506105ef816105ea610c14565b610aaa565b5b61062f576040517f08c379a0000000000000000000000000000000000000000000000000000000008152600401610626906120dc565b60405180910390fd5b6106398383610c1c565b505050565b61064f610649610c14565b82610cd5565b61068e576040517f08c379a00000000000000000000000000000000000000000000000000000000081526004016106859061216e565b60405180910390fd5b610699838383610db3565b505050565b6106b983838360405180602001604052806000815250610974565b505050565b6000806002600084815260200190815260200160002060009054906101000a900473ffffffffffffffffffffffffffffffffffffffff169050600073ffffffffffffffffffffffffffffffffffffffff168173ffffffffffffffffffffffffffffffffffffffff1603610766576040517f08c379a000000000000000000000000000000000000000000000000000000000815260040161075d90612200565b60405180910390fd5b80915050919050565b60008073ffffffffffffffffffffffffffffffffffffffff168273ffffffffffffffffffffffffffffffffffffffff16036107df576040517f08c379a00000000000000000000000000000000000000000000000000000000081526004016107d690612292565b60405180910390fd5b600360008373ffffffffffffffffffffffffffffffffffffffff1673ffffffffffffffffffffffffffffffffffffffff168152602001908152602001600020549050919050565b60606001805461083590611f15565b80601f016020809104026020016040519081016040528092919081815260200182805461086190611f15565b80156108ae5780601f10610883576101008083540402835291602001916108ae565b820191906000526020600020905b81548152906001019060200180831161089157829003601f168201915b5050505050905090565b6108ca6108c3610c14565b8383611019565b5050565b60076020528060005260406000206000915090508060000180546108f190611f15565b80601f016020809104026020016040519081016040528092919081815260200182805461091d90611f15565b801561096a5780601f1061093f5761010080835404028352916020019161096a565b820191906000526020600020905b81548152906001019060200180831161094d57829003601f168201915b5050505050905081565b61098561097f610c14565b83610cd5565b6109c4576040517f08c379a00000000000000000000000000000000000000000000000000000000081526004016109bb9061216e565b60405180910390fd5b6109d084848484611185565b50505050565b60606000610a1760076000858152602001908152602001600020600001604051602001610a0391906123e9565b6040516020818303038152906040526111e1565b905080604051602001610a2a9190612493565b604051602081830303815290604052915050919050565b610a4b6006611359565b6000610a57600661136f565b9050610a63838261137d565b604051806020016040528083815250600760008381526020019081526020016000206000820151816000019080519060200190610aa1929190611783565b50905050505050565b6000600560008473ffffffffffffffffffffffffffffffffffffffff1673ffffffffffffffffffffffffffffffffffffffff16815260200190815260200160002060008373ffffffffffffffffffffffffffffffffffffffff1673ffffffffffffffffffffffffffffffffffffffff16815260200190815260200160002060009054906101000a900460ff16905092915050565b60007f01ffc9a7000000000000000000000000000000000000000000000000000000007bffffffffffffffffffffffffffffffffffffffffffffffffffffffff1916827bffffffffffffffffffffffffffffffffffffffffffffffffffffffff1916149050919050565b60008073ffffffffffffffffffffffffffffffffffffffff166002600084815260200190815260200160002060009054906101000a900473ffffffffffffffffffffffffffffffffffffffff1673ffffffffffffffffffffffffffffffffffffffff1614159050919050565b600033905090565b816004600083815260200190815260200160002060006101000a81548173ffffffffffffffffffffffffffffffffffffffff021916908373ffffffffffffffffffffffffffffffffffffffff160217905550808273ffffffffffffffffffffffffffffffffffffffff16610c8f836106be565b73ffffffffffffffffffffffffffffffffffffffff167f8c5be1e5ebec7d5bd14f71427d1e84f3dd0314c0f7b2291e5b200ac8c7c3b92560405160405180910390a45050565b6000610ce082610ba8565b610d1f576040517f08c379a0000000000000000000000000000000000000000000000000000000008152600401610d1690612527565b60405180910390fd5b6000610d2a836106be565b90508073ffffffffffffffffffffffffffffffffffffffff168473ffffffffffffffffffffffffffffffffffffffff161480610d9957508373ffffffffffffffffffffffffffffffffffffffff16610d81846104a2565b73ffffffffffffffffffffffffffffffffffffffff16145b80610daa5750610da98185610aaa565b5b91505092915050565b8273ffffffffffffffffffffffffffffffffffffffff16610dd3826106be565b73ffffffffffffffffffffffffffffffffffffffff1614610e29576040517f08c379a0000000000000000000000000000000000000000000000000000000008152600401610e20906125b9565b60405180910390fd5b600073ffffffffffffffffffffffffffffffffffffffff168273ffffffffffffffffffffffffffffffffffffffff1603610e98576040517f08c379a0000000000000000000000000000000000000000000000000000000008152600401610e8f9061264b565b60405180910390fd5b610ea383838361139b565b610eae600082610c1c565b6001600360008573ffffffffffffffffffffffffffffffffffffffff1673ffffffffffffffffffffffffffffffffffffffff1681526020019081526020016000206000828254610efe919061269a565b925050819055506001600360008473ffffffffffffffffffffffffffffffffffffffff1673ffffffffffffffffffffffffffffffffffffffff1681526020019081526020016000206000828254610f5591906126ce565b92505081905550816002600083815260200190815260200160002060006101000a81548173ffffffffffffffffffffffffffffffffffffffff021916908373ffffffffffffffffffffffffffffffffffffffff160217905550808273ffffffffffffffffffffffffffffffffffffffff168473ffffffffffffffffffffffffffffffffffffffff167fddf252ad1be2c89b69c2b068fc378daa952ba7f163c4a11628f55a4df523b3ef60405160405180910390a46110148383836113a0565b505050565b8173ffffffffffffffffffffffffffffffffffffffff168373ffffffffffffffffffffffffffffffffffffffff1603611087576040517f08c379a000000000000000000000000000000000000000000000000000000000815260040161107e90612770565b60405180910390fd5b80600560008573ffffffffffffffffffffffffffffffffffffffff1673ffffffffffffffffffffffffffffffffffffffff16815260200190815260200160002060008473ffffffffffffffffffffffffffffffffffffffff1673ffffffffffffffffffffffffffffffffffffffff16815260200190815260200160002060006101000a81548160ff0219169083151502179055508173ffffffffffffffffffffffffffffffffffffffff168373ffffffffffffffffffffffffffffffffffffffff167f17307eab39ab6107e8899845ad3d59bd9653f200f220920489ca2b5937696c318360405161117891906118da565b60405180910390a3505050565b611190848484610db3565b61119c848484846113a5565b6111db576040517f08c379a00000000000000000000000000000000000000000000000000000000081526004016111d290612802565b60405180910390fd5b50505050565b6060600082510361120357604051806020016040528060008152509050611354565b6000604051806060016040528060408152602001612a98604091399050600060036002855161123291906126ce565b61123c9190612851565b60046112489190612882565b9050600060208261125991906126ce565b67ffffffffffffffff81111561127257611271611bfb565b5b6040519080825280601f01601f1916602001820160405280156112a45781602001600182028036833780820191505090505b509050818152600183018586518101602084015b81831015611313576003830192508251603f8160121c168501518253600182019150603f81600c1c168501518253600182019150603f8160061c168501518253600182019150603f81168501518253600182019150506112b8565b60038951066001811461132d576002811461133d57611348565b613d3d60f01b6002830352611348565b603d60f81b60018303525b50505050508093505050505b919050565b6001816000016000828254019250508190555050565b600081600001549050919050565b61139782826040518060200160405280600081525061152c565b5050565b505050565b505050565b60006113c68473ffffffffffffffffffffffffffffffffffffffff16611587565b1561151f578373ffffffffffffffffffffffffffffffffffffffff1663150b7a026113ef610c14565b8786866040518563ffffffff1660e01b81526004016114119493929190612931565b6020604051808303816000875af192505050801561144d57506040513d601f19601f8201168201806040525081019061144a9190612992565b60015b6114cf573d806000811461147d576040519150601f19603f3d011682016040523d82523d6000602084013e611482565b606091505b5060008151036114c7576040517f08c379a00000000000000000000000000000000000000000000000000000000081526004016114be90612802565b60405180910390fd5b805181602001fd5b63150b7a0260e01b7bffffffffffffffffffffffffffffffffffffffffffffffffffffffff1916817bffffffffffffffffffffffffffffffffffffffffffffffffffffffff191614915050611524565b600190505b949350505050565b61153683836115aa565b61154360008484846113a5565b611582576040517f08c379a000000000000000000000000000000000000000000000000000000000815260040161157990612802565b60405180910390fd5b505050565b6000808273ffffffffffffffffffffffffffffffffffffffff163b119050919050565b600073ffffffffffffffffffffffffffffffffffffffff168273ffffffffffffffffffffffffffffffffffffffff1603611619576040517f08c379a000000000000000000000000000000000000000000000000000000000815260040161161090612a0b565b60405180910390fd5b61162281610ba8565b15611662576040517f08c379a000000000000000000000000000000000000000000000000000000000815260040161165990612a77565b60405180910390fd5b61166e6000838361139b565b6001600360008473ffffffffffffffffffffffffffffffffffffffff1673ffffffffffffffffffffffffffffffffffffffff16815260200190815260200160002060008282546116be91906126ce565b92505081905550816002600083815260200190815260200160002060006101000a81548173ffffffffffffffffffffffffffffffffffffffff021916908373ffffffffffffffffffffffffffffffffffffffff160217905550808273ffffffffffffffffffffffffffffffffffffffff16600073ffffffffffffffffffffffffffffffffffffffff167fddf252ad1be2c89b69c2b068fc378daa952ba7f163c4a11628f55a4df523b3ef60405160405180910390a461177f600083836113a0565b5050565b82805461178f90611f15565b90600052602060002090601f0160209004810192826117b157600085556117f8565b82601f106117ca57805160ff19168380011785556117f8565b828001600101855582156117f8579182015b828111156117f75782518255916020019190600101906117dc565b5b5090506118059190611809565b5090565b5b8082111561182257600081600090555060010161180a565b5090565b6000604051905090565b600080fd5b600080fd5b60007fffffffff0000000000000000000000000000000000000000000000000000000082169050919050565b61186f8161183a565b811461187a57600080fd5b50565b60008135905061188c81611866565b92915050565b6000602082840312156118a8576118a7611830565b5b60006118b68482850161187d565b91505092915050565b60008115159050919050565b6118d4816118bf565b82525050565b60006020820190506118ef60008301846118cb565b92915050565b600081519050919050565b600082825260208201905092915050565b60005b8381101561192f578082015181840152602081019050611914565b8381111561193e576000848401525b50505050565b6000601f19601f8301169050919050565b6000611960826118f5565b61196a8185611900565b935061197a818560208601611911565b61198381611944565b840191505092915050565b600060208201905081810360008301526119a88184611955565b905092915050565b6000819050919050565b6119c3816119b0565b81146119ce57600080fd5b50565b6000813590506119e0816119ba565b92915050565b6000602082840312156119fc576119fb611830565b5b6000611a0a848285016119d1565b91505092915050565b600073ffffffffffffffffffffffffffffffffffffffff82169050919050565b6000611a3e82611a13565b9050919050565b611a4e81611a33565b82525050565b6000602082019050611a696000830184611a45565b92915050565b611a7881611a33565b8114611a8357600080fd5b50565b600081359050611a9581611a6f565b92915050565b60008060408385031215611ab257611ab1611830565b5b6000611ac085828601611a86565b9250506020611ad1858286016119d1565b9150509250929050565b600080600060608486031215611af457611af3611830565b5b6000611b0286828701611a86565b9350506020611b1386828701611a86565b9250506040611b24868287016119d1565b9150509250925092565b600060208284031215611b4457611b43611830565b5b6000611b5284828501611a86565b91505092915050565b611b64816119b0565b82525050565b6000602082019050611b7f6000830184611b5b565b92915050565b611b8e816118bf565b8114611b9957600080fd5b50565b600081359050611bab81611b85565b92915050565b60008060408385031215611bc857611bc7611830565b5b6000611bd685828601611a86565b9250506020611be785828601611b9c565b9150509250929050565b600080fd5b600080fd5b7f4e487b7100000000000000000000000000000000000000000000000000000000600052604160045260246000fd5b611c3382611944565b810181811067ffffffffffffffff82111715611c5257611c51611bfb565b5b80604052505050565b6000611c65611826565b9050611c718282611c2a565b919050565b600067ffffffffffffffff821115611c9157611c90611bfb565b5b611c9a82611944565b9050602081019050919050565b82818337600083830152505050565b6000611cc9611cc484611c76565b611c5b565b905082815260208101848484011115611ce557611ce4611bf6565b5b611cf0848285611ca7565b509392505050565b600082601f830112611d0d57611d0c611bf1565b5b8135611d1d848260208601611cb6565b91505092915050565b60008060008060808587031215611d4057611d3f611830565b5b6000611d4e87828801611a86565b9450506020611d5f87828801611a86565b9350506040611d70878288016119d1565b925050606085013567ffffffffffffffff811115611d9157611d90611835565b5b611d9d87828801611cf8565b91505092959194509250565b600067ffffffffffffffff821115611dc457611dc3611bfb565b5b611dcd82611944565b9050602081019050919050565b6000611ded611de884611da9565b611c5b565b905082815260208101848484011115611e0957611e08611bf6565b5b611e14848285611ca7565b509392505050565b600082601f830112611e3157611e30611bf1565b5b8135611e41848260208601611dda565b91505092915050565b60008060408385031215611e6157611e60611830565b5b6000611e6f85828601611a86565b925050602083013567ffffffffffffffff811115611e9057611e8f611835565b5b611e9c85828601611e1c565b9150509250929050565b60008060408385031215611ebd57611ebc611830565b5b6000611ecb85828601611a86565b9250506020611edc85828601611a86565b9150509250929050565b7f4e487b7100000000000000000000000000000000000000000000000000000000600052602260045260246000fd5b60006002820490506001821680611f2d57607f821691505b602082108103611f4057611f3f611ee6565b5b50919050565b7f4552433732313a20617070726f76656420717565727920666f72206e6f6e657860008201527f697374656e7420746f6b656e0000000000000000000000000000000000000000602082015250565b6000611fa2602c83611900565b9150611fad82611f46565b604082019050919050565b60006020820190508181036000830152611fd181611f95565b9050919050565b7f4552433732313a20617070726f76616c20746f2063757272656e74206f776e6560008201527f7200000000000000000000000000000000000000000000000000000000000000602082015250565b6000612034602183611900565b915061203f82611fd8565b604082019050919050565b6000602082019050818103600083015261206381612027565b9050919050565b7f4552433732313a20617070726f76652063616c6c6572206973206e6f74206f7760008201527f6e6572206e6f7220617070726f76656420666f7220616c6c0000000000000000602082015250565b60006120c6603883611900565b91506120d18261206a565b604082019050919050565b600060208201905081810360008301526120f5816120b9565b9050919050565b7f4552433732313a207472616e736665722063616c6c6572206973206e6f74206f60008201527f776e6572206e6f7220617070726f766564000000000000000000000000000000602082015250565b6000612158603183611900565b9150612163826120fc565b604082019050919050565b600060208201905081810360008301526121878161214b565b9050919050565b7f4552433732313a206f776e657220717565727920666f72206e6f6e657869737460008201527f656e7420746f6b656e0000000000000000000000000000000000000000000000602082015250565b60006121ea602983611900565b91506121f58261218e565b604082019050919050565b60006020820190508181036000830152612219816121dd565b9050919050565b7f4552433732313a2062616c616e636520717565727920666f7220746865207a6560008201527f726f206164647265737300000000000000000000000000000000000000000000602082015250565b600061227c602a83611900565b915061228782612220565b604082019050919050565b600060208201905081810360008301526122ab8161226f565b9050919050565b600081905092915050565b7f7b2270726f66657373696f6e223a202200000000000000000000000000000000600082015250565b60006122f36010836122b2565b91506122fe826122bd565b601082019050919050565b60008190508160005260206000209050919050565b6000815461232b81611f15565b61233581866122b2565b94506001821660008114612350576001811461236157612394565b60ff19831686528186019350612394565b61236a85612309565b60005b8381101561238c5781548189015260018201915060208101905061236d565b838801955050505b50505092915050565b7f227d000000000000000000000000000000000000000000000000000000000000600082015250565b60006123d36002836122b2565b91506123de8261239d565b600282019050919050565b60006123f4826122e6565b9150612400828461231e565b915061240b826123c6565b915081905092915050565b7f646174613a6170706c69636174696f6e2f6a736f6e3b6261736536342c000000600082015250565b600061244c601d836122b2565b915061245782612416565b601d82019050919050565b600061246d826118f5565b61247781856122b2565b9350612487818560208601611911565b80840191505092915050565b600061249e8261243f565b91506124aa8284612462565b915081905092915050565b7f4552433732313a206f70657261746f7220717565727920666f72206e6f6e657860008201527f697374656e7420746f6b656e0000000000000000000000000000000000000000602082015250565b6000612511602c83611900565b915061251c826124b5565b604082019050919050565b6000602082019050818103600083015261254081612504565b9050919050565b7f4552433732313a207472616e736665722066726f6d20696e636f72726563742060008201527f6f776e6572000000000000000000000000000000000000000000000000000000602082015250565b60006125a3602583611900565b91506125ae82612547565b604082019050919050565b600060208201905081810360008301526125d281612596565b9050919050565b7f4552433732313a207472616e7366657220746f20746865207a65726f2061646460008201527f7265737300000000000000000000000000000000000000000000000000000000602082015250565b6000612635602483611900565b9150612640826125d9565b604082019050919050565b6000602082019050818103600083015261266481612628565b9050919050565b7f4e487b7100000000000000000000000000000000000000000000000000000000600052601160045260246000fd5b60006126a5826119b0565b91506126b0836119b0565b9250828210156126c3576126c261266b565b5b828203905092915050565b60006126d9826119b0565b91506126e4836119b0565b9250827fffffffffffffffffffffffffffffffffffffffffffffffffffffffffffffffff038211156127195761271861266b565b5b828201905092915050565b7f4552433732313a20617070726f766520746f2063616c6c657200000000000000600082015250565b600061275a601983611900565b915061276582612724565b602082019050919050565b600060208201905081810360008301526127898161274d565b9050919050565b7f4552433732313a207472616e7366657220746f206e6f6e20455243373231526560008201527f63656976657220696d706c656d656e7465720000000000000000000000000000602082015250565b60006127ec603283611900565b91506127f782612790565b604082019050919050565b6000602082019050818103600083015261281b816127df565b9050919050565b7f4e487b7100000000000000000000000000000000000000000000000000000000600052601260045260246000fd5b600061285c826119b0565b9150612867836119b0565b92508261287757612876612822565b5b828204905092915050565b600061288d826119b0565b9150612898836119b0565b9250817fffffffffffffffffffffffffffffffffffffffffffffffffffffffffffffffff04831182151516156128d1576128d061266b565b5b828202905092915050565b600081519050919050565b600082825260208201905092915050565b6000612903826128dc565b61290d81856128e7565b935061291d818560208601611911565b61292681611944565b840191505092915050565b60006080820190506129466000830187611a45565b6129536020830186611a45565b6129606040830185611b5b565b818103606083015261297281846128f8565b905095945050505050565b60008151905061298c81611866565b92915050565b6000602082840312156129a8576129a7611830565b5b60006129b68482850161297d565b91505092915050565b7f4552433732313a206d696e7420746f20746865207a65726f2061646472657373600082015250565b60006129f5602083611900565b9150612a00826129bf565b602082019050919050565b60006020820190508181036000830152612a24816129e8565b9050919050565b7f4552433732313a20746f6b656e20616c7265616479206d696e74656400000000600082015250565b6000612a61601c83611900565b9150612a6c82612a2b565b602082019050919050565b60006020820190508181036000830152612a9081612a54565b905091905056fe4142434445464748494a4b4c4d4e4f505152535455565758595a6162636465666768696a6b6c6d6e6f707172737475767778797a303132333435363738392b2fa264697066735822122089138b6b8780a055002b903b4364aec3f2681ec8e8f760a5b8552592dca5edb964736f6c634300080d0033",
  "immutableReferences": {},
  "source": "// SPDX-License-Identifier: MIT\npragma solidity ^0.8.0;\n\nimport \"@openzeppelin/contracts/token/ERC721/ERC721.sol\";\nimport \"@openzeppelin/contracts/token/ERC721/extensions/ERC721URIStorage.sol\";\nimport \"@openzeppelin/contracts/token/ERC721/extensions/ERC721Enumerable.sol\";\nimport \"@openzeppelin/contracts/utils/Counters.sol\";\nimport \"@openzeppelin/contracts/access/Ownable.sol\";\nimport \"./Base64.sol\";\n\n// Off Chain Attributes\n\n// https://dev.to/rounakbanik/writing-an-nft-collectible-smart-contract-2nh8\n\n// https://docs.openzeppelin.com/contracts/4.x/erc721\ncontract Guild is ERC721 {\n    using Counters for Counters.Counter;\n    Counters.Counter private _tokenIds;\n\n\t\tmapping(uint256 => Attr) public guildInfo;\n\n    struct Attr {\n        string profession;\n\t\t\t\t// TODO: what else should be here?\n    }\n\n    constructor() ERC721(\"Guild\", \"GUILD\") {}\n\n\t\tfunction mint(\n        address to,\n        string memory _profession\n\t\t\t\t) \n    public  { // TODO: limit to contract creator?\n\t\t\t\t_tokenIds.increment();\n\t\t\t\tuint256 tokenId = _tokenIds.current();\n        _safeMint(to, tokenId);\n        guildInfo[tokenId] = Attr(_profession);\n    }\n\n\t\tfunction tokenURI(uint256 tokenId) override(ERC721) public view returns (string memory) {\n        string memory json = Base64.encode(\n            bytes(string(\n\t\t\t\t\t\t\tabi.encodePacked(\n                    '{\"profession\": \"', guildInfo[tokenId].profession, '\"}'\n                )\n            ))\n        );\n        return string(abi.encodePacked('data:application/json;base64,', json));\n    }\n\n}",
  "sourcePath": "/Users/jakegny/Projects/guildhalls-hackathon/src/contracts/Guild.sol",
  "compiler": {
    "name": "solc",
    "version": "0.8.13+commit.abaa5c0e.Emscripten.clang"
  },
  "schemaVersion": "3.4.6",
  "updatedAt": "2022-04-09T20:03:53.327Z",
  "networkType": "ethereum",
  "devdoc": {
    "kind": "dev",
    "methods": {
      "approve(address,uint256)": {
        "details": "See {IERC721-approve}."
      },
      "balanceOf(address)": {
        "details": "See {IERC721-balanceOf}."
      },
      "getApproved(uint256)": {
        "details": "See {IERC721-getApproved}."
      },
      "isApprovedForAll(address,address)": {
        "details": "See {IERC721-isApprovedForAll}."
      },
      "name()": {
        "details": "See {IERC721Metadata-name}."
      },
      "ownerOf(uint256)": {
        "details": "See {IERC721-ownerOf}."
      },
      "safeTransferFrom(address,address,uint256)": {
        "details": "See {IERC721-safeTransferFrom}."
      },
      "safeTransferFrom(address,address,uint256,bytes)": {
        "details": "See {IERC721-safeTransferFrom}."
      },
      "setApprovalForAll(address,bool)": {
        "details": "See {IERC721-setApprovalForAll}."
      },
      "supportsInterface(bytes4)": {
        "details": "See {IERC165-supportsInterface}."
      },
      "symbol()": {
        "details": "See {IERC721Metadata-symbol}."
      },
      "tokenURI(uint256)": {
        "details": "See {IERC721Metadata-tokenURI}."
      },
      "transferFrom(address,address,uint256)": {
        "details": "See {IERC721-transferFrom}."
      }
    },
    "version": 1
  },
  "userdoc": {
    "kind": "user",
    "methods": {},
    "version": 1
  }
}