{
  "contractName": "Identity",
  "abi": [
    {
      "inputs": [],
      "stateMutability": "nonpayable",
      "type": "constructor"
    },
    {
      "anonymous": false,
      "inputs": [
        {
          "indexed": true,
          "internalType": "address",
          "name": "owner",
          "type": "address"
        },
        {
          "indexed": true,
          "internalType": "address",
          "name": "approved",
          "type": "address"
        },
        {
          "indexed": true,
          "internalType": "uint256",
          "name": "tokenId",
          "type": "uint256"
        }
      ],
      "name": "Approval",
      "type": "event"
    },
    {
      "anonymous": false,
      "inputs": [
        {
          "indexed": true,
          "internalType": "address",
          "name": "owner",
          "type": "address"
        },
        {
          "indexed": true,
          "internalType": "address",
          "name": "operator",
          "type": "address"
        },
        {
          "indexed": false,
          "internalType": "bool",
          "name": "approved",
          "type": "bool"
        }
      ],
      "name": "ApprovalForAll",
      "type": "event"
    },
    {
      "anonymous": false,
      "inputs": [
        {
          "indexed": true,
          "internalType": "address",
          "name": "previousOwner",
          "type": "address"
        },
        {
          "indexed": true,
          "internalType": "address",
          "name": "newOwner",
          "type": "address"
        }
      ],
      "name": "OwnershipTransferred",
      "type": "event"
    },
    {
      "anonymous": false,
      "inputs": [
        {
          "indexed": true,
          "internalType": "address",
          "name": "from",
          "type": "address"
        },
        {
          "indexed": true,
          "internalType": "address",
          "name": "to",
          "type": "address"
        },
        {
          "indexed": true,
          "internalType": "uint256",
          "name": "tokenId",
          "type": "uint256"
        }
      ],
      "name": "Transfer",
      "type": "event"
    },
    {
      "inputs": [
        {
          "internalType": "address",
          "name": "to",
          "type": "address"
        },
        {
          "internalType": "uint256",
          "name": "tokenId",
          "type": "uint256"
        }
      ],
      "name": "approve",
      "outputs": [],
      "stateMutability": "nonpayable",
      "type": "function"
    },
    {
      "inputs": [
        {
          "internalType": "address",
          "name": "owner",
          "type": "address"
        }
      ],
      "name": "balanceOf",
      "outputs": [
        {
          "internalType": "uint256",
          "name": "",
          "type": "uint256"
        }
      ],
      "stateMutability": "view",
      "type": "function"
    },
    {
      "inputs": [
        {
          "internalType": "uint256",
          "name": "tokenId",
          "type": "uint256"
        }
      ],
      "name": "getApproved",
      "outputs": [
        {
          "internalType": "address",
          "name": "",
          "type": "address"
        }
      ],
      "stateMutability": "view",
      "type": "function"
    },
    {
      "inputs": [
        {
          "internalType": "address",
          "name": "owner",
          "type": "address"
        },
        {
          "internalType": "address",
          "name": "operator",
          "type": "address"
        }
      ],
      "name": "isApprovedForAll",
      "outputs": [
        {
          "internalType": "bool",
          "name": "",
          "type": "bool"
        }
      ],
      "stateMutability": "view",
      "type": "function"
    },
    {
      "inputs": [],
      "name": "name",
      "outputs": [
        {
          "internalType": "string",
          "name": "",
          "type": "string"
        }
      ],
      "stateMutability": "view",
      "type": "function"
    },
    {
      "inputs": [],
      "name": "owner",
      "outputs": [
        {
          "internalType": "address",
          "name": "",
          "type": "address"
        }
      ],
      "stateMutability": "view",
      "type": "function"
    },
    {
      "inputs": [
        {
          "internalType": "uint256",
          "name": "tokenId",
          "type": "uint256"
        }
      ],
      "name": "ownerOf",
      "outputs": [
        {
          "internalType": "address",
          "name": "",
          "type": "address"
        }
      ],
      "stateMutability": "view",
      "type": "function"
    },
    {
      "inputs": [],
      "name": "renounceOwnership",
      "outputs": [],
      "stateMutability": "nonpayable",
      "type": "function"
    },
    {
      "inputs": [
        {
          "internalType": "address",
          "name": "from",
          "type": "address"
        },
        {
          "internalType": "address",
          "name": "to",
          "type": "address"
        },
        {
          "internalType": "uint256",
          "name": "tokenId",
          "type": "uint256"
        }
      ],
      "name": "safeTransferFrom",
      "outputs": [],
      "stateMutability": "nonpayable",
      "type": "function"
    },
    {
      "inputs": [
        {
          "internalType": "address",
          "name": "from",
          "type": "address"
        },
        {
          "internalType": "address",
          "name": "to",
          "type": "address"
        },
        {
          "internalType": "uint256",
          "name": "tokenId",
          "type": "uint256"
        },
        {
          "internalType": "bytes",
          "name": "_data",
          "type": "bytes"
        }
      ],
      "name": "safeTransferFrom",
      "outputs": [],
      "stateMutability": "nonpayable",
      "type": "function"
    },
    {
      "inputs": [
        {
          "internalType": "address",
          "name": "operator",
          "type": "address"
        },
        {
          "internalType": "bool",
          "name": "approved",
          "type": "bool"
        }
      ],
      "name": "setApprovalForAll",
      "outputs": [],
      "stateMutability": "nonpayable",
      "type": "function"
    },
    {
      "inputs": [],
      "name": "symbol",
      "outputs": [
        {
          "internalType": "string",
          "name": "",
          "type": "string"
        }
      ],
      "stateMutability": "view",
      "type": "function"
    },
    {
      "inputs": [
        {
          "internalType": "uint256",
          "name": "index",
          "type": "uint256"
        }
      ],
      "name": "tokenByIndex",
      "outputs": [
        {
          "internalType": "uint256",
          "name": "",
          "type": "uint256"
        }
      ],
      "stateMutability": "view",
      "type": "function"
    },
    {
      "inputs": [
        {
          "internalType": "address",
          "name": "owner",
          "type": "address"
        },
        {
          "internalType": "uint256",
          "name": "index",
          "type": "uint256"
        }
      ],
      "name": "tokenOfOwnerByIndex",
      "outputs": [
        {
          "internalType": "uint256",
          "name": "",
          "type": "uint256"
        }
      ],
      "stateMutability": "view",
      "type": "function"
    },
    {
      "inputs": [],
      "name": "totalSupply",
      "outputs": [
        {
          "internalType": "uint256",
          "name": "",
          "type": "uint256"
        }
      ],
      "stateMutability": "view",
      "type": "function"
    },
    {
      "inputs": [
        {
          "internalType": "address",
          "name": "from",
          "type": "address"
        },
        {
          "internalType": "address",
          "name": "to",
          "type": "address"
        },
        {
          "internalType": "uint256",
          "name": "tokenId",
          "type": "uint256"
        }
      ],
      "name": "transferFrom",
      "outputs": [],
      "stateMutability": "nonpayable",
      "type": "function"
    },
    {
      "inputs": [
        {
          "internalType": "address",
          "name": "newOwner",
          "type": "address"
        }
      ],
      "name": "transferOwnership",
      "outputs": [],
      "stateMutability": "nonpayable",
      "type": "function"
    },
    {
      "inputs": [
        {
          "internalType": "address",
          "name": "player",
          "type": "address"
        },
        {
          "internalType": "string",
          "name": "linkToData",
          "type": "string"
        }
      ],
      "name": "awardItem",
      "outputs": [
        {
          "internalType": "uint256",
          "name": "",
          "type": "uint256"
        }
      ],
      "stateMutability": "nonpayable",
      "type": "function"
    },
    {
      "inputs": [
        {
          "internalType": "address",
          "name": "_owner",
          "type": "address"
        }
      ],
      "name": "tokensOfOwner",
      "outputs": [
        {
          "internalType": "uint256[]",
          "name": "",
          "type": "uint256[]"
        }
      ],
      "stateMutability": "view",
      "type": "function"
    },
    {
      "inputs": [
        {
          "internalType": "uint256",
          "name": "tokenId",
          "type": "uint256"
        }
      ],
      "name": "tokenURI",
      "outputs": [
        {
          "internalType": "string",
          "name": "",
          "type": "string"
        }
      ],
      "stateMutability": "view",
      "type": "function"
    },
    {
      "inputs": [
        {
          "internalType": "bytes4",
          "name": "interfaceId",
          "type": "bytes4"
        }
      ],
      "name": "supportsInterface",
      "outputs": [
        {
          "internalType": "bool",
          "name": "",
          "type": "bool"
        }
      ],
      "stateMutability": "view",
      "type": "function"
    }
  ],
  "bytecode": "0x60806040523480156200001157600080fd5b506040518060400160405280600881526020017f4964656e746974790000000000000000000000000000000000000000000000008152506040518060400160405280600581526020017f4944454e54000000000000000000000000000000000000000000000000000000815250816000908051906020019062000096929190620001a6565b508060019080519060200190620000af929190620001a6565b505050620000d2620000c6620000d860201b60201c565b620000e060201b60201c565b620002ba565b600033905090565b6000600b60009054906101000a900473ffffffffffffffffffffffffffffffffffffffff16905081600b60006101000a81548173ffffffffffffffffffffffffffffffffffffffff021916908373ffffffffffffffffffffffffffffffffffffffff1602179055508173ffffffffffffffffffffffffffffffffffffffff168173ffffffffffffffffffffffffffffffffffffffff167f8be0079c531659141344cd1fd0a4f28419497f9722a3daafe3b4186f6b6457e060405160405180910390a35050565b828054620001b49062000285565b90600052602060002090601f016020900481019282620001d8576000855562000224565b82601f10620001f357805160ff191683800117855562000224565b8280016001018555821562000224579182015b828111156200022357825182559160200191906001019062000206565b5b50905062000233919062000237565b5090565b5b808211156200025257600081600090555060010162000238565b5090565b7f4e487b7100000000000000000000000000000000000000000000000000000000600052602260045260246000fd5b600060028204905060018216806200029e57607f821691505b602082108103620002b457620002b362000256565b5b50919050565b61392d80620002ca6000396000f3fe608060405234801561001057600080fd5b50600436106101375760003560e01c806370a08231116100b8578063a22cb4651161007c578063a22cb46514610362578063b88d4fde1461037e578063c87b56dd1461039a578063cf378343146103ca578063e985e9c5146103fa578063f2fde38b1461042a57610137565b806370a08231146102bc578063715018a6146102ec5780638462151c146102f65780638da5cb5b1461032657806395d89b411461034457610137565b806323b872dd116100ff57806323b872dd146101f45780632f745c591461021057806342842e0e146102405780634f6ccce71461025c5780636352211e1461028c57610137565b806301ffc9a71461013c57806306fdde031461016c578063081812fc1461018a578063095ea7b3146101ba57806318160ddd146101d6575b600080fd5b61015660048036038101906101519190612360565b610446565b60405161016391906123a8565b60405180910390f35b610174610458565b604051610181919061245c565b60405180910390f35b6101a4600480360381019061019f91906124b4565b6104ea565b6040516101b19190612522565b60405180910390f35b6101d460048036038101906101cf9190612569565b61056f565b005b6101de610686565b6040516101eb91906125b8565b60405180910390f35b61020e600480360381019061020991906125d3565b610693565b005b61022a60048036038101906102259190612569565b6106f3565b60405161023791906125b8565b60405180910390f35b61025a600480360381019061025591906125d3565b610798565b005b610276600480360381019061027191906124b4565b6107b8565b60405161028391906125b8565b60405180910390f35b6102a660048036038101906102a191906124b4565b610829565b6040516102b39190612522565b60405180910390f35b6102d660048036038101906102d19190612626565b6108da565b6040516102e391906125b8565b60405180910390f35b6102f4610991565b005b610310600480360381019061030b9190612626565b610a19565b60405161031d9190612711565b60405180910390f35b61032e610ac7565b60405161033b9190612522565b60405180910390f35b61034c610af1565b604051610359919061245c565b60405180910390f35b61037c6004803603810190610377919061275f565b610b83565b005b610398600480360381019061039391906128d4565b610b99565b005b6103b460048036038101906103af91906124b4565b610bfb565b6040516103c1919061245c565b60405180910390f35b6103e460048036038101906103df91906129f8565b610c0d565b6040516103f191906125b8565b60405180910390f35b610414600480360381019061040f9190612a54565b610c45565b60405161042191906123a8565b60405180910390f35b610444600480360381019061043f9190612626565b610cd9565b005b600061045182610dd0565b9050919050565b60606000805461046790612ac3565b80601f016020809104026020016040519081016040528092919081815260200182805461049390612ac3565b80156104e05780601f106104b5576101008083540402835291602001916104e0565b820191906000526020600020905b8154815290600101906020018083116104c357829003601f168201915b5050505050905090565b60006104f582610e4a565b610534576040517f08c379a000000000000000000000000000000000000000000000000000000000815260040161052b90612b66565b60405180910390fd5b6004600083815260200190815260200160002060009054906101000a900473ffffffffffffffffffffffffffffffffffffffff169050919050565b600061057a82610829565b90508073ffffffffffffffffffffffffffffffffffffffff168373ffffffffffffffffffffffffffffffffffffffff16036105ea576040517f08c379a00000000000000000000000000000000000000000000000000000000081526004016105e190612bf8565b60405180910390fd5b8073ffffffffffffffffffffffffffffffffffffffff16610609610eb6565b73ffffffffffffffffffffffffffffffffffffffff161480610638575061063781610632610eb6565b610c45565b5b610677576040517f08c379a000000000000000000000000000000000000000000000000000000000815260040161066e90612c8a565b60405180910390fd5b6106818383610ebe565b505050565b6000600980549050905090565b6106a461069e610eb6565b82610f77565b6106e3576040517f08c379a00000000000000000000000000000000000000000000000000000000081526004016106da90612d1c565b60405180910390fd5b6106ee838383611055565b505050565b60006106fe836108da565b821061073f576040517f08c379a000000000000000000000000000000000000000000000000000000000815260040161073690612dae565b60405180910390fd5b600760008473ffffffffffffffffffffffffffffffffffffffff1673ffffffffffffffffffffffffffffffffffffffff168152602001908152602001600020600083815260200190815260200160002054905092915050565b6107b383838360405180602001604052806000815250610b99565b505050565b60006107c2610686565b8210610803576040517f08c379a00000000000000000000000000000000000000000000000000000000081526004016107fa90612e40565b60405180910390fd5b6009828154811061081757610816612e60565b5b90600052602060002001549050919050565b6000806002600084815260200190815260200160002060009054906101000a900473ffffffffffffffffffffffffffffffffffffffff169050600073ffffffffffffffffffffffffffffffffffffffff168173ffffffffffffffffffffffffffffffffffffffff16036108d1576040517f08c379a00000000000000000000000000000000000000000000000000000000081526004016108c890612f01565b60405180910390fd5b80915050919050565b60008073ffffffffffffffffffffffffffffffffffffffff168273ffffffffffffffffffffffffffffffffffffffff160361094a576040517f08c379a000000000000000000000000000000000000000000000000000000000815260040161094190612f93565b60405180910390fd5b600360008373ffffffffffffffffffffffffffffffffffffffff1673ffffffffffffffffffffffffffffffffffffffff168152602001908152602001600020549050919050565b610999610eb6565b73ffffffffffffffffffffffffffffffffffffffff166109b7610ac7565b73ffffffffffffffffffffffffffffffffffffffff1614610a0d576040517f08c379a0000000000000000000000000000000000000000000000000000000008152600401610a0490612fff565b60405180910390fd5b610a1760006112bb565b565b60606000610a26836108da565b905060008167ffffffffffffffff811115610a4457610a436127a9565b5b604051908082528060200260200182016040528015610a725781602001602082028036833780820191505090505b50905060005b82811015610abc57610a8a85826106f3565b828281518110610a9d57610a9c612e60565b5b6020026020010181815250508080610ab49061304e565b915050610a78565b508092505050919050565b6000600b60009054906101000a900473ffffffffffffffffffffffffffffffffffffffff16905090565b606060018054610b0090612ac3565b80601f0160208091040260200160405190810160405280929190818152602001828054610b2c90612ac3565b8015610b795780601f10610b4e57610100808354040283529160200191610b79565b820191906000526020600020905b815481529060010190602001808311610b5c57829003601f168201915b5050505050905090565b610b95610b8e610eb6565b8383611381565b5050565b610baa610ba4610eb6565b83610f77565b610be9576040517f08c379a0000000000000000000000000000000000000000000000000000000008152600401610be090612d1c565b60405180910390fd5b610bf5848484846114ed565b50505050565b6060610c0682611549565b9050919050565b6000610c19600c61169a565b6000610c25600c6116b0565b9050610c3184826116be565b610c3b8184611897565b8091505092915050565b6000600560008473ffffffffffffffffffffffffffffffffffffffff1673ffffffffffffffffffffffffffffffffffffffff16815260200190815260200160002060008373ffffffffffffffffffffffffffffffffffffffff1673ffffffffffffffffffffffffffffffffffffffff16815260200190815260200160002060009054906101000a900460ff16905092915050565b610ce1610eb6565b73ffffffffffffffffffffffffffffffffffffffff16610cff610ac7565b73ffffffffffffffffffffffffffffffffffffffff1614610d55576040517f08c379a0000000000000000000000000000000000000000000000000000000008152600401610d4c90612fff565b60405180910390fd5b600073ffffffffffffffffffffffffffffffffffffffff168173ffffffffffffffffffffffffffffffffffffffff1603610dc4576040517f08c379a0000000000000000000000000000000000000000000000000000000008152600401610dbb90613108565b60405180910390fd5b610dcd816112bb565b50565b60007f780e9d63000000000000000000000000000000000000000000000000000000007bffffffffffffffffffffffffffffffffffffffffffffffffffffffff1916827bffffffffffffffffffffffffffffffffffffffffffffffffffffffff19161480610e435750610e428261190b565b5b9050919050565b60008073ffffffffffffffffffffffffffffffffffffffff166002600084815260200190815260200160002060009054906101000a900473ffffffffffffffffffffffffffffffffffffffff1673ffffffffffffffffffffffffffffffffffffffff1614159050919050565b600033905090565b816004600083815260200190815260200160002060006101000a81548173ffffffffffffffffffffffffffffffffffffffff021916908373ffffffffffffffffffffffffffffffffffffffff160217905550808273ffffffffffffffffffffffffffffffffffffffff16610f3183610829565b73ffffffffffffffffffffffffffffffffffffffff167f8c5be1e5ebec7d5bd14f71427d1e84f3dd0314c0f7b2291e5b200ac8c7c3b92560405160405180910390a45050565b6000610f8282610e4a565b610fc1576040517f08c379a0000000000000000000000000000000000000000000000000000000008152600401610fb89061319a565b60405180910390fd5b6000610fcc83610829565b90508073ffffffffffffffffffffffffffffffffffffffff168473ffffffffffffffffffffffffffffffffffffffff16148061103b57508373ffffffffffffffffffffffffffffffffffffffff16611023846104ea565b73ffffffffffffffffffffffffffffffffffffffff16145b8061104c575061104b8185610c45565b5b91505092915050565b8273ffffffffffffffffffffffffffffffffffffffff1661107582610829565b73ffffffffffffffffffffffffffffffffffffffff16146110cb576040517f08c379a00000000000000000000000000000000000000000000000000000000081526004016110c29061322c565b60405180910390fd5b600073ffffffffffffffffffffffffffffffffffffffff168273ffffffffffffffffffffffffffffffffffffffff160361113a576040517f08c379a0000000000000000000000000000000000000000000000000000000008152600401611131906132be565b60405180910390fd5b6111458383836119ed565b611150600082610ebe565b6001600360008573ffffffffffffffffffffffffffffffffffffffff1673ffffffffffffffffffffffffffffffffffffffff16815260200190815260200160002060008282546111a091906132de565b925050819055506001600360008473ffffffffffffffffffffffffffffffffffffffff1673ffffffffffffffffffffffffffffffffffffffff16815260200190815260200160002060008282546111f79190613312565b92505081905550816002600083815260200190815260200160002060006101000a81548173ffffffffffffffffffffffffffffffffffffffff021916908373ffffffffffffffffffffffffffffffffffffffff160217905550808273ffffffffffffffffffffffffffffffffffffffff168473ffffffffffffffffffffffffffffffffffffffff167fddf252ad1be2c89b69c2b068fc378daa952ba7f163c4a11628f55a4df523b3ef60405160405180910390a46112b68383836119fd565b505050565b6000600b60009054906101000a900473ffffffffffffffffffffffffffffffffffffffff16905081600b60006101000a81548173ffffffffffffffffffffffffffffffffffffffff021916908373ffffffffffffffffffffffffffffffffffffffff1602179055508173ffffffffffffffffffffffffffffffffffffffff168173ffffffffffffffffffffffffffffffffffffffff167f8be0079c531659141344cd1fd0a4f28419497f9722a3daafe3b4186f6b6457e060405160405180910390a35050565b8173ffffffffffffffffffffffffffffffffffffffff168373ffffffffffffffffffffffffffffffffffffffff16036113ef576040517f08c379a00000000000000000000000000000000000000000000000000000000081526004016113e6906133b4565b60405180910390fd5b80600560008573ffffffffffffffffffffffffffffffffffffffff1673ffffffffffffffffffffffffffffffffffffffff16815260200190815260200160002060008473ffffffffffffffffffffffffffffffffffffffff1673ffffffffffffffffffffffffffffffffffffffff16815260200190815260200160002060006101000a81548160ff0219169083151502179055508173ffffffffffffffffffffffffffffffffffffffff168373ffffffffffffffffffffffffffffffffffffffff167f17307eab39ab6107e8899845ad3d59bd9653f200f220920489ca2b5937696c31836040516114e091906123a8565b60405180910390a3505050565b6114f8848484611055565b61150484848484611a02565b611543576040517f08c379a000000000000000000000000000000000000000000000000000000000815260040161153a90613446565b60405180910390fd5b50505050565b606061155482610e4a565b611593576040517f08c379a000000000000000000000000000000000000000000000000000000000815260040161158a906134d8565b60405180910390fd5b60006006600084815260200190815260200160002080546115b390612ac3565b80601f01602080910402602001604051908101604052809291908181526020018280546115df90612ac3565b801561162c5780601f106116015761010080835404028352916020019161162c565b820191906000526020600020905b81548152906001019060200180831161160f57829003601f168201915b50505050509050600061163d611b89565b90506000815103611652578192505050611695565b60008251111561168757808260405160200161166f929190613534565b60405160208183030381529060405292505050611695565b61169084611ba0565b925050505b919050565b6001816000016000828254019250508190555050565b600081600001549050919050565b600073ffffffffffffffffffffffffffffffffffffffff168273ffffffffffffffffffffffffffffffffffffffff160361172d576040517f08c379a0000000000000000000000000000000000000000000000000000000008152600401611724906135a4565b60405180910390fd5b61173681610e4a565b15611776576040517f08c379a000000000000000000000000000000000000000000000000000000000815260040161176d90613610565b60405180910390fd5b611782600083836119ed565b6001600360008473ffffffffffffffffffffffffffffffffffffffff1673ffffffffffffffffffffffffffffffffffffffff16815260200190815260200160002060008282546117d29190613312565b92505081905550816002600083815260200190815260200160002060006101000a81548173ffffffffffffffffffffffffffffffffffffffff021916908373ffffffffffffffffffffffffffffffffffffffff160217905550808273ffffffffffffffffffffffffffffffffffffffff16600073ffffffffffffffffffffffffffffffffffffffff167fddf252ad1be2c89b69c2b068fc378daa952ba7f163c4a11628f55a4df523b3ef60405160405180910390a4611893600083836119fd565b5050565b6118a082610e4a565b6118df576040517f08c379a00000000000000000000000000000000000000000000000000000000081526004016118d6906136a2565b60405180910390fd5b80600660008481526020019081526020016000209080519060200190611906929190612251565b505050565b60007f80ac58cd000000000000000000000000000000000000000000000000000000007bffffffffffffffffffffffffffffffffffffffffffffffffffffffff1916827bffffffffffffffffffffffffffffffffffffffffffffffffffffffff191614806119d657507f5b5e139f000000000000000000000000000000000000000000000000000000007bffffffffffffffffffffffffffffffffffffffffffffffffffffffff1916827bffffffffffffffffffffffffffffffffffffffffffffffffffffffff1916145b806119e657506119e582611c47565b5b9050919050565b6119f8838383611cb1565b505050565b505050565b6000611a238473ffffffffffffffffffffffffffffffffffffffff16611dc3565b15611b7c578373ffffffffffffffffffffffffffffffffffffffff1663150b7a02611a4c610eb6565b8786866040518563ffffffff1660e01b8152600401611a6e9493929190613717565b6020604051808303816000875af1925050508015611aaa57506040513d601f19601f82011682018060405250810190611aa79190613778565b60015b611b2c573d8060008114611ada576040519150601f19603f3d011682016040523d82523d6000602084013e611adf565b606091505b506000815103611b24576040517f08c379a0000000000000000000000000000000000000000000000000000000008152600401611b1b90613446565b60405180910390fd5b805181602001fd5b63150b7a0260e01b7bffffffffffffffffffffffffffffffffffffffffffffffffffffffff1916817bffffffffffffffffffffffffffffffffffffffffffffffffffffffff191614915050611b81565b600190505b949350505050565b606060405180602001604052806000815250905090565b6060611bab82610e4a565b611bea576040517f08c379a0000000000000000000000000000000000000000000000000000000008152600401611be190613817565b60405180910390fd5b6000611bf4611b89565b90506000815111611c145760405180602001604052806000815250611c3f565b80611c1e84611de6565b604051602001611c2f929190613534565b6040516020818303038152906040525b915050919050565b60007f01ffc9a7000000000000000000000000000000000000000000000000000000007bffffffffffffffffffffffffffffffffffffffffffffffffffffffff1916827bffffffffffffffffffffffffffffffffffffffffffffffffffffffff1916149050919050565b611cbc838383611f46565b600073ffffffffffffffffffffffffffffffffffffffff168373ffffffffffffffffffffffffffffffffffffffff1603611cfe57611cf981611f4b565b611d3d565b8173ffffffffffffffffffffffffffffffffffffffff168373ffffffffffffffffffffffffffffffffffffffff1614611d3c57611d3b8382611f94565b5b5b600073ffffffffffffffffffffffffffffffffffffffff168273ffffffffffffffffffffffffffffffffffffffff1603611d7f57611d7a81612101565b611dbe565b8273ffffffffffffffffffffffffffffffffffffffff168273ffffffffffffffffffffffffffffffffffffffff1614611dbd57611dbc82826121d2565b5b5b505050565b6000808273ffffffffffffffffffffffffffffffffffffffff163b119050919050565b606060008203611e2d576040518060400160405280600181526020017f30000000000000000000000000000000000000000000000000000000000000008152509050611f41565b600082905060005b60008214611e5f578080611e489061304e565b915050600a82611e589190613866565b9150611e35565b60008167ffffffffffffffff811115611e7b57611e7a6127a9565b5b6040519080825280601f01601f191660200182016040528015611ead5781602001600182028036833780820191505090505b5090505b60008514611f3a57600182611ec691906132de565b9150600a85611ed59190613897565b6030611ee19190613312565b60f81b818381518110611ef757611ef6612e60565b5b60200101907effffffffffffffffffffffffffffffffffffffffffffffffffffffffffffff1916908160001a905350600a85611f339190613866565b9450611eb1565b8093505050505b919050565b505050565b600980549050600a600083815260200190815260200160002081905550600981908060018154018082558091505060019003906000526020600020016000909190919091505550565b60006001611fa1846108da565b611fab91906132de565b9050600060086000848152602001908152602001600020549050818114612090576000600760008673ffffffffffffffffffffffffffffffffffffffff1673ffffffffffffffffffffffffffffffffffffffff168152602001908152602001600020600084815260200190815260200160002054905080600760008773ffffffffffffffffffffffffffffffffffffffff1673ffffffffffffffffffffffffffffffffffffffff168152602001908152602001600020600084815260200190815260200160002081905550816008600083815260200190815260200160002081905550505b6008600084815260200190815260200160002060009055600760008573ffffffffffffffffffffffffffffffffffffffff1673ffffffffffffffffffffffffffffffffffffffff16815260200190815260200160002060008381526020019081526020016000206000905550505050565b6000600160098054905061211591906132de565b90506000600a600084815260200190815260200160002054905060006009838154811061214557612144612e60565b5b90600052602060002001549050806009838154811061216757612166612e60565b5b906000526020600020018190555081600a600083815260200190815260200160002081905550600a60008581526020019081526020016000206000905560098054806121b6576121b56138c8565b5b6001900381819060005260206000200160009055905550505050565b60006121dd836108da565b905081600760008573ffffffffffffffffffffffffffffffffffffffff1673ffffffffffffffffffffffffffffffffffffffff168152602001908152602001600020600083815260200190815260200160002081905550806008600084815260200190815260200160002081905550505050565b82805461225d90612ac3565b90600052602060002090601f01602090048101928261227f57600085556122c6565b82601f1061229857805160ff19168380011785556122c6565b828001600101855582156122c6579182015b828111156122c55782518255916020019190600101906122aa565b5b5090506122d391906122d7565b5090565b5b808211156122f05760008160009055506001016122d8565b5090565b6000604051905090565b600080fd5b600080fd5b60007fffffffff0000000000000000000000000000000000000000000000000000000082169050919050565b61233d81612308565b811461234857600080fd5b50565b60008135905061235a81612334565b92915050565b600060208284031215612376576123756122fe565b5b60006123848482850161234b565b91505092915050565b60008115159050919050565b6123a28161238d565b82525050565b60006020820190506123bd6000830184612399565b92915050565b600081519050919050565b600082825260208201905092915050565b60005b838110156123fd5780820151818401526020810190506123e2565b8381111561240c576000848401525b50505050565b6000601f19601f8301169050919050565b600061242e826123c3565b61243881856123ce565b93506124488185602086016123df565b61245181612412565b840191505092915050565b600060208201905081810360008301526124768184612423565b905092915050565b6000819050919050565b6124918161247e565b811461249c57600080fd5b50565b6000813590506124ae81612488565b92915050565b6000602082840312156124ca576124c96122fe565b5b60006124d88482850161249f565b91505092915050565b600073ffffffffffffffffffffffffffffffffffffffff82169050919050565b600061250c826124e1565b9050919050565b61251c81612501565b82525050565b60006020820190506125376000830184612513565b92915050565b61254681612501565b811461255157600080fd5b50565b6000813590506125638161253d565b92915050565b600080604083850312156125805761257f6122fe565b5b600061258e85828601612554565b925050602061259f8582860161249f565b9150509250929050565b6125b28161247e565b82525050565b60006020820190506125cd60008301846125a9565b92915050565b6000806000606084860312156125ec576125eb6122fe565b5b60006125fa86828701612554565b935050602061260b86828701612554565b925050604061261c8682870161249f565b9150509250925092565b60006020828403121561263c5761263b6122fe565b5b600061264a84828501612554565b91505092915050565b600081519050919050565b600082825260208201905092915050565b6000819050602082019050919050565b6126888161247e565b82525050565b600061269a838361267f565b60208301905092915050565b6000602082019050919050565b60006126be82612653565b6126c8818561265e565b93506126d38361266f565b8060005b838110156127045781516126eb888261268e565b97506126f6836126a6565b9250506001810190506126d7565b5085935050505092915050565b6000602082019050818103600083015261272b81846126b3565b905092915050565b61273c8161238d565b811461274757600080fd5b50565b60008135905061275981612733565b92915050565b60008060408385031215612776576127756122fe565b5b600061278485828601612554565b92505060206127958582860161274a565b9150509250929050565b600080fd5b600080fd5b7f4e487b7100000000000000000000000000000000000000000000000000000000600052604160045260246000fd5b6127e182612412565b810181811067ffffffffffffffff82111715612800576127ff6127a9565b5b80604052505050565b60006128136122f4565b905061281f82826127d8565b919050565b600067ffffffffffffffff82111561283f5761283e6127a9565b5b61284882612412565b9050602081019050919050565b82818337600083830152505050565b600061287761287284612824565b612809565b905082815260208101848484011115612893576128926127a4565b5b61289e848285612855565b509392505050565b600082601f8301126128bb576128ba61279f565b5b81356128cb848260208601612864565b91505092915050565b600080600080608085870312156128ee576128ed6122fe565b5b60006128fc87828801612554565b945050602061290d87828801612554565b935050604061291e8782880161249f565b925050606085013567ffffffffffffffff81111561293f5761293e612303565b5b61294b878288016128a6565b91505092959194509250565b600067ffffffffffffffff821115612972576129716127a9565b5b61297b82612412565b9050602081019050919050565b600061299b61299684612957565b612809565b9050828152602081018484840111156129b7576129b66127a4565b5b6129c2848285612855565b509392505050565b600082601f8301126129df576129de61279f565b5b81356129ef848260208601612988565b91505092915050565b60008060408385031215612a0f57612a0e6122fe565b5b6000612a1d85828601612554565b925050602083013567ffffffffffffffff811115612a3e57612a3d612303565b5b612a4a858286016129ca565b9150509250929050565b60008060408385031215612a6b57612a6a6122fe565b5b6000612a7985828601612554565b9250506020612a8a85828601612554565b9150509250929050565b7f4e487b7100000000000000000000000000000000000000000000000000000000600052602260045260246000fd5b60006002820490506001821680612adb57607f821691505b602082108103612aee57612aed612a94565b5b50919050565b7f4552433732313a20617070726f76656420717565727920666f72206e6f6e657860008201527f697374656e7420746f6b656e0000000000000000000000000000000000000000602082015250565b6000612b50602c836123ce565b9150612b5b82612af4565b604082019050919050565b60006020820190508181036000830152612b7f81612b43565b9050919050565b7f4552433732313a20617070726f76616c20746f2063757272656e74206f776e6560008201527f7200000000000000000000000000000000000000000000000000000000000000602082015250565b6000612be26021836123ce565b9150612bed82612b86565b604082019050919050565b60006020820190508181036000830152612c1181612bd5565b9050919050565b7f4552433732313a20617070726f76652063616c6c6572206973206e6f74206f7760008201527f6e6572206e6f7220617070726f76656420666f7220616c6c0000000000000000602082015250565b6000612c746038836123ce565b9150612c7f82612c18565b604082019050919050565b60006020820190508181036000830152612ca381612c67565b9050919050565b7f4552433732313a207472616e736665722063616c6c6572206973206e6f74206f60008201527f776e6572206e6f7220617070726f766564000000000000000000000000000000602082015250565b6000612d066031836123ce565b9150612d1182612caa565b604082019050919050565b60006020820190508181036000830152612d3581612cf9565b9050919050565b7f455243373231456e756d657261626c653a206f776e657220696e646578206f7560008201527f74206f6620626f756e6473000000000000000000000000000000000000000000602082015250565b6000612d98602b836123ce565b9150612da382612d3c565b604082019050919050565b60006020820190508181036000830152612dc781612d8b565b9050919050565b7f455243373231456e756d657261626c653a20676c6f62616c20696e646578206f60008201527f7574206f6620626f756e64730000000000000000000000000000000000000000602082015250565b6000612e2a602c836123ce565b9150612e3582612dce565b604082019050919050565b60006020820190508181036000830152612e5981612e1d565b9050919050565b7f4e487b7100000000000000000000000000000000000000000000000000000000600052603260045260246000fd5b7f4552433732313a206f776e657220717565727920666f72206e6f6e657869737460008201527f656e7420746f6b656e0000000000000000000000000000000000000000000000602082015250565b6000612eeb6029836123ce565b9150612ef682612e8f565b604082019050919050565b60006020820190508181036000830152612f1a81612ede565b9050919050565b7f4552433732313a2062616c616e636520717565727920666f7220746865207a6560008201527f726f206164647265737300000000000000000000000000000000000000000000602082015250565b6000612f7d602a836123ce565b9150612f8882612f21565b604082019050919050565b60006020820190508181036000830152612fac81612f70565b9050919050565b7f4f776e61626c653a2063616c6c6572206973206e6f7420746865206f776e6572600082015250565b6000612fe96020836123ce565b9150612ff482612fb3565b602082019050919050565b6000602082019050818103600083015261301881612fdc565b9050919050565b7f4e487b7100000000000000000000000000000000000000000000000000000000600052601160045260246000fd5b60006130598261247e565b91507fffffffffffffffffffffffffffffffffffffffffffffffffffffffffffffffff820361308b5761308a61301f565b5b600182019050919050565b7f4f776e61626c653a206e6577206f776e657220697320746865207a65726f206160008201527f6464726573730000000000000000000000000000000000000000000000000000602082015250565b60006130f26026836123ce565b91506130fd82613096565b604082019050919050565b60006020820190508181036000830152613121816130e5565b9050919050565b7f4552433732313a206f70657261746f7220717565727920666f72206e6f6e657860008201527f697374656e7420746f6b656e0000000000000000000000000000000000000000602082015250565b6000613184602c836123ce565b915061318f82613128565b604082019050919050565b600060208201905081810360008301526131b381613177565b9050919050565b7f4552433732313a207472616e736665722066726f6d20696e636f72726563742060008201527f6f776e6572000000000000000000000000000000000000000000000000000000602082015250565b60006132166025836123ce565b9150613221826131ba565b604082019050919050565b6000602082019050818103600083015261324581613209565b9050919050565b7f4552433732313a207472616e7366657220746f20746865207a65726f2061646460008201527f7265737300000000000000000000000000000000000000000000000000000000602082015250565b60006132a86024836123ce565b91506132b38261324c565b604082019050919050565b600060208201905081810360008301526132d78161329b565b9050919050565b60006132e98261247e565b91506132f48361247e565b9250828210156133075761330661301f565b5b828203905092915050565b600061331d8261247e565b91506133288361247e565b9250827fffffffffffffffffffffffffffffffffffffffffffffffffffffffffffffffff0382111561335d5761335c61301f565b5b828201905092915050565b7f4552433732313a20617070726f766520746f2063616c6c657200000000000000600082015250565b600061339e6019836123ce565b91506133a982613368565b602082019050919050565b600060208201905081810360008301526133cd81613391565b9050919050565b7f4552433732313a207472616e7366657220746f206e6f6e20455243373231526560008201527f63656976657220696d706c656d656e7465720000000000000000000000000000602082015250565b60006134306032836123ce565b915061343b826133d4565b604082019050919050565b6000602082019050818103600083015261345f81613423565b9050919050565b7f45524337323155524953746f726167653a2055524920717565727920666f722060008201527f6e6f6e6578697374656e7420746f6b656e000000000000000000000000000000602082015250565b60006134c26031836123ce565b91506134cd82613466565b604082019050919050565b600060208201905081810360008301526134f1816134b5565b9050919050565b600081905092915050565b600061350e826123c3565b61351881856134f8565b93506135288185602086016123df565b80840191505092915050565b60006135408285613503565b915061354c8284613503565b91508190509392505050565b7f4552433732313a206d696e7420746f20746865207a65726f2061646472657373600082015250565b600061358e6020836123ce565b915061359982613558565b602082019050919050565b600060208201905081810360008301526135bd81613581565b9050919050565b7f4552433732313a20746f6b656e20616c7265616479206d696e74656400000000600082015250565b60006135fa601c836123ce565b9150613605826135c4565b602082019050919050565b60006020820190508181036000830152613629816135ed565b9050919050565b7f45524337323155524953746f726167653a2055524920736574206f66206e6f6e60008201527f6578697374656e7420746f6b656e000000000000000000000000000000000000602082015250565b600061368c602e836123ce565b915061369782613630565b604082019050919050565b600060208201905081810360008301526136bb8161367f565b9050919050565b600081519050919050565b600082825260208201905092915050565b60006136e9826136c2565b6136f381856136cd565b93506137038185602086016123df565b61370c81612412565b840191505092915050565b600060808201905061372c6000830187612513565b6137396020830186612513565b61374660408301856125a9565b818103606083015261375881846136de565b905095945050505050565b60008151905061377281612334565b92915050565b60006020828403121561378e5761378d6122fe565b5b600061379c84828501613763565b91505092915050565b7f4552433732314d657461646174613a2055524920717565727920666f72206e6f60008201527f6e6578697374656e7420746f6b656e0000000000000000000000000000000000602082015250565b6000613801602f836123ce565b915061380c826137a5565b604082019050919050565b60006020820190508181036000830152613830816137f4565b9050919050565b7f4e487b7100000000000000000000000000000000000000000000000000000000600052601260045260246000fd5b60006138718261247e565b915061387c8361247e565b92508261388c5761388b613837565b5b828204905092915050565b60006138a28261247e565b91506138ad8361247e565b9250826138bd576138bc613837565b5b828206905092915050565b7f4e487b7100000000000000000000000000000000000000000000000000000000600052603160045260246000fdfea2646970667358221220ac597e454ee0ed480f27fb0528710a96c9ca8c6d413f810c6dd43dba5257695864736f6c634300080d0033",
  "immutableReferences": {},
  "source": "// SPDX-License-Identifier: MIT\npragma solidity ^0.8.0;\n\nimport \"@openzeppelin/contracts/token/ERC721/ERC721.sol\";\nimport \"@openzeppelin/contracts/token/ERC721/extensions/ERC721URIStorage.sol\";\nimport \"@openzeppelin/contracts/token/ERC721/extensions/ERC721Enumerable.sol\";\nimport \"@openzeppelin/contracts/access/Ownable.sol\";\nimport \"@openzeppelin/contracts/utils/Counters.sol\";\n\n// Off Chain Attributes\n\n// https://docs.openzeppelin.com/contracts/4.x/erc721\ncontract Identity is ERC721URIStorage, ERC721Enumerable, Ownable {\n    using Counters for Counters.Counter;\n    Counters.Counter private _tokenIds;\n\n    constructor() ERC721(\"Identity\", \"IDENT\") {}\n\n    function awardItem(address player, string memory linkToData)\n        public\n        returns (uint256)\n    {\n        _tokenIds.increment();\n\n        uint256 newItemId = _tokenIds.current();\n        _mint(player, newItemId);\n        _setTokenURI(newItemId, linkToData);\n\n        return newItemId;\n    }\n\n\t\tfunction tokensOfOwner(address _owner) external view returns (uint[] memory) {\n\n        uint tokenCount = balanceOf(_owner);\n        uint[] memory tokensId = new uint256[](tokenCount);\n\n        for (uint i = 0; i < tokenCount; i++) {\n            tokensId[i] = tokenOfOwnerByIndex(_owner, i);\n        }\n        return tokensId;\n    }\n\n\t\tfunction _beforeTokenTransfer(address from, address to, uint256 tokenId)\n        internal\n        override(ERC721, ERC721Enumerable)\n    {\n        super._beforeTokenTransfer(from, to, tokenId);\n    }\n\n    function _burn(uint256 tokenId) internal override(ERC721, ERC721URIStorage) {\n        super._burn(tokenId);\n    }\n\n\t\tfunction tokenURI(uint256 tokenId)\n        public\n        view\n        override(ERC721, ERC721URIStorage)\n        returns (string memory)\n    {\n        return super.tokenURI(tokenId);\n    }\n\n\t\tfunction supportsInterface(bytes4 interfaceId)\n        public\n        view\n        override(ERC721, ERC721Enumerable)\n        returns (bool)\n    {\n        return super.supportsInterface(interfaceId);\n    }\n\n\t\t// TODO: Override Transfers?\n}",
  "sourcePath": "/Users/jakegny/Projects/guildhalls-hackathon/src/contracts/Identity.sol",
  "compiler": {
    "name": "solc",
    "version": "0.8.13+commit.abaa5c0e.Emscripten.clang"
  },
  "schemaVersion": "3.4.6",
  "updatedAt": "2022-04-09T08:16:43.352Z",
  "networkType": "ethereum",
  "devdoc": {
    "kind": "dev",
    "methods": {
      "approve(address,uint256)": {
        "details": "See {IERC721-approve}."
      },
      "balanceOf(address)": {
        "details": "See {IERC721-balanceOf}."
      },
      "getApproved(uint256)": {
        "details": "See {IERC721-getApproved}."
      },
      "isApprovedForAll(address,address)": {
        "details": "See {IERC721-isApprovedForAll}."
      },
      "name()": {
        "details": "See {IERC721Metadata-name}."
      },
      "owner()": {
        "details": "Returns the address of the current owner."
      },
      "ownerOf(uint256)": {
        "details": "See {IERC721-ownerOf}."
      },
      "renounceOwnership()": {
        "details": "Leaves the contract without owner. It will not be possible to call `onlyOwner` functions anymore. Can only be called by the current owner. NOTE: Renouncing ownership will leave the contract without an owner, thereby removing any functionality that is only available to the owner."
      },
      "safeTransferFrom(address,address,uint256)": {
        "details": "See {IERC721-safeTransferFrom}."
      },
      "safeTransferFrom(address,address,uint256,bytes)": {
        "details": "See {IERC721-safeTransferFrom}."
      },
      "setApprovalForAll(address,bool)": {
        "details": "See {IERC721-setApprovalForAll}."
      },
      "symbol()": {
        "details": "See {IERC721Metadata-symbol}."
      },
      "tokenByIndex(uint256)": {
        "details": "See {IERC721Enumerable-tokenByIndex}."
      },
      "tokenOfOwnerByIndex(address,uint256)": {
        "details": "See {IERC721Enumerable-tokenOfOwnerByIndex}."
      },
      "totalSupply()": {
        "details": "See {IERC721Enumerable-totalSupply}."
      },
      "transferFrom(address,address,uint256)": {
        "details": "See {IERC721-transferFrom}."
      },
      "transferOwnership(address)": {
        "details": "Transfers ownership of the contract to a new account (`newOwner`). Can only be called by the current owner."
      }
    },
    "version": 1
  },
  "userdoc": {
    "kind": "user",
    "methods": {},
    "version": 1
  }
}