{
  "contractName": "Membership",
  "abi": [
    {
      "inputs": [],
      "stateMutability": "nonpayable",
      "type": "constructor"
    },
    {
      "anonymous": false,
      "inputs": [
        {
          "indexed": true,
          "internalType": "address",
          "name": "owner",
          "type": "address"
        },
        {
          "indexed": true,
          "internalType": "address",
          "name": "approved",
          "type": "address"
        },
        {
          "indexed": true,
          "internalType": "uint256",
          "name": "tokenId",
          "type": "uint256"
        }
      ],
      "name": "Approval",
      "type": "event"
    },
    {
      "anonymous": false,
      "inputs": [
        {
          "indexed": true,
          "internalType": "address",
          "name": "owner",
          "type": "address"
        },
        {
          "indexed": true,
          "internalType": "address",
          "name": "operator",
          "type": "address"
        },
        {
          "indexed": false,
          "internalType": "bool",
          "name": "approved",
          "type": "bool"
        }
      ],
      "name": "ApprovalForAll",
      "type": "event"
    },
    {
      "anonymous": false,
      "inputs": [
        {
          "indexed": true,
          "internalType": "address",
          "name": "previousOwner",
          "type": "address"
        },
        {
          "indexed": true,
          "internalType": "address",
          "name": "newOwner",
          "type": "address"
        }
      ],
      "name": "OwnershipTransferred",
      "type": "event"
    },
    {
      "anonymous": false,
      "inputs": [
        {
          "indexed": true,
          "internalType": "address",
          "name": "from",
          "type": "address"
        },
        {
          "indexed": true,
          "internalType": "address",
          "name": "to",
          "type": "address"
        },
        {
          "indexed": true,
          "internalType": "uint256",
          "name": "tokenId",
          "type": "uint256"
        }
      ],
      "name": "Transfer",
      "type": "event"
    },
    {
      "inputs": [
        {
          "internalType": "address",
          "name": "to",
          "type": "address"
        },
        {
          "internalType": "uint256",
          "name": "tokenId",
          "type": "uint256"
        }
      ],
      "name": "approve",
      "outputs": [],
      "stateMutability": "nonpayable",
      "type": "function"
    },
    {
      "inputs": [
        {
          "internalType": "uint256",
          "name": "",
          "type": "uint256"
        }
      ],
      "name": "attributes",
      "outputs": [
        {
          "internalType": "string",
          "name": "verifiedBy",
          "type": "string"
        },
        {
          "internalType": "string",
          "name": "memberOf",
          "type": "string"
        },
        {
          "internalType": "string",
          "name": "role",
          "type": "string"
        },
        {
          "internalType": "bool",
          "name": "inGoodStanding",
          "type": "bool"
        },
        {
          "internalType": "string",
          "name": "certifications",
          "type": "string"
        }
      ],
      "stateMutability": "view",
      "type": "function"
    },
    {
      "inputs": [
        {
          "internalType": "address",
          "name": "owner",
          "type": "address"
        }
      ],
      "name": "balanceOf",
      "outputs": [
        {
          "internalType": "uint256",
          "name": "",
          "type": "uint256"
        }
      ],
      "stateMutability": "view",
      "type": "function"
    },
    {
      "inputs": [
        {
          "internalType": "uint256",
          "name": "tokenId",
          "type": "uint256"
        }
      ],
      "name": "getApproved",
      "outputs": [
        {
          "internalType": "address",
          "name": "",
          "type": "address"
        }
      ],
      "stateMutability": "view",
      "type": "function"
    },
    {
      "inputs": [
        {
          "internalType": "address",
          "name": "owner",
          "type": "address"
        },
        {
          "internalType": "address",
          "name": "operator",
          "type": "address"
        }
      ],
      "name": "isApprovedForAll",
      "outputs": [
        {
          "internalType": "bool",
          "name": "",
          "type": "bool"
        }
      ],
      "stateMutability": "view",
      "type": "function"
    },
    {
      "inputs": [],
      "name": "name",
      "outputs": [
        {
          "internalType": "string",
          "name": "",
          "type": "string"
        }
      ],
      "stateMutability": "view",
      "type": "function"
    },
    {
      "inputs": [],
      "name": "owner",
      "outputs": [
        {
          "internalType": "address",
          "name": "",
          "type": "address"
        }
      ],
      "stateMutability": "view",
      "type": "function"
    },
    {
      "inputs": [
        {
          "internalType": "uint256",
          "name": "tokenId",
          "type": "uint256"
        }
      ],
      "name": "ownerOf",
      "outputs": [
        {
          "internalType": "address",
          "name": "",
          "type": "address"
        }
      ],
      "stateMutability": "view",
      "type": "function"
    },
    {
      "inputs": [],
      "name": "renounceOwnership",
      "outputs": [],
      "stateMutability": "nonpayable",
      "type": "function"
    },
    {
      "inputs": [
        {
          "internalType": "address",
          "name": "from",
          "type": "address"
        },
        {
          "internalType": "address",
          "name": "to",
          "type": "address"
        },
        {
          "internalType": "uint256",
          "name": "tokenId",
          "type": "uint256"
        }
      ],
      "name": "safeTransferFrom",
      "outputs": [],
      "stateMutability": "nonpayable",
      "type": "function"
    },
    {
      "inputs": [
        {
          "internalType": "address",
          "name": "from",
          "type": "address"
        },
        {
          "internalType": "address",
          "name": "to",
          "type": "address"
        },
        {
          "internalType": "uint256",
          "name": "tokenId",
          "type": "uint256"
        },
        {
          "internalType": "bytes",
          "name": "_data",
          "type": "bytes"
        }
      ],
      "name": "safeTransferFrom",
      "outputs": [],
      "stateMutability": "nonpayable",
      "type": "function"
    },
    {
      "inputs": [
        {
          "internalType": "address",
          "name": "operator",
          "type": "address"
        },
        {
          "internalType": "bool",
          "name": "approved",
          "type": "bool"
        }
      ],
      "name": "setApprovalForAll",
      "outputs": [],
      "stateMutability": "nonpayable",
      "type": "function"
    },
    {
      "inputs": [],
      "name": "symbol",
      "outputs": [
        {
          "internalType": "string",
          "name": "",
          "type": "string"
        }
      ],
      "stateMutability": "view",
      "type": "function"
    },
    {
      "inputs": [
        {
          "internalType": "uint256",
          "name": "index",
          "type": "uint256"
        }
      ],
      "name": "tokenByIndex",
      "outputs": [
        {
          "internalType": "uint256",
          "name": "",
          "type": "uint256"
        }
      ],
      "stateMutability": "view",
      "type": "function"
    },
    {
      "inputs": [
        {
          "internalType": "address",
          "name": "owner",
          "type": "address"
        },
        {
          "internalType": "uint256",
          "name": "index",
          "type": "uint256"
        }
      ],
      "name": "tokenOfOwnerByIndex",
      "outputs": [
        {
          "internalType": "uint256",
          "name": "",
          "type": "uint256"
        }
      ],
      "stateMutability": "view",
      "type": "function"
    },
    {
      "inputs": [],
      "name": "totalSupply",
      "outputs": [
        {
          "internalType": "uint256",
          "name": "",
          "type": "uint256"
        }
      ],
      "stateMutability": "view",
      "type": "function"
    },
    {
      "inputs": [
        {
          "internalType": "address",
          "name": "from",
          "type": "address"
        },
        {
          "internalType": "address",
          "name": "to",
          "type": "address"
        },
        {
          "internalType": "uint256",
          "name": "tokenId",
          "type": "uint256"
        }
      ],
      "name": "transferFrom",
      "outputs": [],
      "stateMutability": "nonpayable",
      "type": "function"
    },
    {
      "inputs": [
        {
          "internalType": "address",
          "name": "newOwner",
          "type": "address"
        }
      ],
      "name": "transferOwnership",
      "outputs": [],
      "stateMutability": "nonpayable",
      "type": "function"
    },
    {
      "inputs": [
        {
          "internalType": "bytes4",
          "name": "interfaceId",
          "type": "bytes4"
        }
      ],
      "name": "supportsInterface",
      "outputs": [
        {
          "internalType": "bool",
          "name": "",
          "type": "bool"
        }
      ],
      "stateMutability": "view",
      "type": "function"
    },
    {
      "inputs": [
        {
          "internalType": "address",
          "name": "to",
          "type": "address"
        },
        {
          "internalType": "uint256",
          "name": "tokenId",
          "type": "uint256"
        },
        {
          "internalType": "string",
          "name": "_verifiedBy",
          "type": "string"
        },
        {
          "internalType": "string",
          "name": "_memberOf",
          "type": "string"
        },
        {
          "internalType": "string",
          "name": "_role",
          "type": "string"
        },
        {
          "internalType": "bool",
          "name": "_inGoodStanding",
          "type": "bool"
        },
        {
          "internalType": "string",
          "name": "_certifications",
          "type": "string"
        }
      ],
      "name": "mint",
      "outputs": [],
      "stateMutability": "nonpayable",
      "type": "function"
    },
    {
      "inputs": [
        {
          "internalType": "uint256",
          "name": "tokenId",
          "type": "uint256"
        }
      ],
      "name": "tokenURI",
      "outputs": [
        {
          "internalType": "string",
          "name": "",
          "type": "string"
        }
      ],
      "stateMutability": "view",
      "type": "function"
    }
  ],
  "bytecode": "0x60806040523480156200001157600080fd5b506040518060400160405280600a81526020017f4d656d62657273686970000000000000000000000000000000000000000000008152506040518060400160405280600381526020017f4d4f470000000000000000000000000000000000000000000000000000000000815250816000908051906020019062000096929190620001a6565b508060019080519060200190620000af929190620001a6565b505050620000d2620000c6620000d860201b60201c565b620000e060201b60201c565b620002ba565b600033905090565b6000600a60009054906101000a900473ffffffffffffffffffffffffffffffffffffffff16905081600a60006101000a81548173ffffffffffffffffffffffffffffffffffffffff021916908373ffffffffffffffffffffffffffffffffffffffff1602179055508173ffffffffffffffffffffffffffffffffffffffff168173ffffffffffffffffffffffffffffffffffffffff167f8be0079c531659141344cd1fd0a4f28419497f9722a3daafe3b4186f6b6457e060405160405180910390a35050565b828054620001b49062000285565b90600052602060002090601f016020900481019282620001d8576000855562000224565b82601f10620001f357805160ff191683800117855562000224565b8280016001018555821562000224579182015b828111156200022357825182559160200191906001019062000206565b5b50905062000233919062000237565b5090565b5b808211156200025257600081600090555060010162000238565b5090565b7f4e487b7100000000000000000000000000000000000000000000000000000000600052602260045260246000fd5b600060028204905060018216806200029e57607f821691505b602082108103620002b457620002b362000256565b5b50919050565b613da780620002ca6000396000f3fe608060405234801561001057600080fd5b50600436106101375760003560e01c806370a08231116100b8578063a22cb4651161007c578063a22cb4651461034e578063b88d4fde1461036a578063c87b56dd14610386578063d05dcc6a146103b6578063e985e9c5146103ea578063f2fde38b1461041a57610137565b806370a08231146102bc578063715018a6146102ec5780637328b75b146102f65780638da5cb5b1461031257806395d89b411461033057610137565b806323b872dd116100ff57806323b872dd146101f45780632f745c591461021057806342842e0e146102405780634f6ccce71461025c5780636352211e1461028c57610137565b806301ffc9a71461013c57806306fdde031461016c578063081812fc1461018a578063095ea7b3146101ba57806318160ddd146101d6575b600080fd5b610156600480360381019061015191906124dc565b610436565b6040516101639190612524565b60405180910390f35b610174610448565b60405161018191906125d8565b60405180910390f35b6101a4600480360381019061019f9190612630565b6104da565b6040516101b1919061269e565b60405180910390f35b6101d460048036038101906101cf91906126e5565b61055f565b005b6101de610676565b6040516101eb9190612734565b60405180910390f35b61020e6004803603810190610209919061274f565b610683565b005b61022a600480360381019061022591906126e5565b6106e3565b6040516102379190612734565b60405180910390f35b61025a6004803603810190610255919061274f565b610788565b005b61027660048036038101906102719190612630565b6107a8565b6040516102839190612734565b60405180910390f35b6102a660048036038101906102a19190612630565b610819565b6040516102b3919061269e565b60405180910390f35b6102d660048036038101906102d191906127a2565b6108ca565b6040516102e39190612734565b60405180910390f35b6102f4610981565b005b610310600480360381019061030b9190612930565b610a09565b005b61031a610b6b565b604051610327919061269e565b60405180910390f35b610338610b95565b60405161034591906125d8565b60405180910390f35b61036860048036038101906103639190612a42565b610c27565b005b610384600480360381019061037f9190612b23565b610c3d565b005b6103a0600480360381019061039b9190612630565b610c9f565b6040516103ad91906125d8565b60405180910390f35b6103d060048036038101906103cb9190612630565b610d74565b6040516103e1959493929190612ba6565b60405180910390f35b61040460048036038101906103ff9190612c15565b610fd7565b6040516104119190612524565b60405180910390f35b610434600480360381019061042f91906127a2565b61106b565b005b600061044182611162565b9050919050565b60606000805461045790612c84565b80601f016020809104026020016040519081016040528092919081815260200182805461048390612c84565b80156104d05780601f106104a5576101008083540402835291602001916104d0565b820191906000526020600020905b8154815290600101906020018083116104b357829003601f168201915b5050505050905090565b60006104e5826111dc565b610524576040517f08c379a000000000000000000000000000000000000000000000000000000000815260040161051b90612d27565b60405180910390fd5b6004600083815260200190815260200160002060009054906101000a900473ffffffffffffffffffffffffffffffffffffffff169050919050565b600061056a82610819565b90508073ffffffffffffffffffffffffffffffffffffffff168373ffffffffffffffffffffffffffffffffffffffff16036105da576040517f08c379a00000000000000000000000000000000000000000000000000000000081526004016105d190612db9565b60405180910390fd5b8073ffffffffffffffffffffffffffffffffffffffff166105f9611248565b73ffffffffffffffffffffffffffffffffffffffff161480610628575061062781610622611248565b610fd7565b5b610667576040517f08c379a000000000000000000000000000000000000000000000000000000000815260040161065e90612e4b565b60405180910390fd5b6106718383611250565b505050565b6000600880549050905090565b61069461068e611248565b82611309565b6106d3576040517f08c379a00000000000000000000000000000000000000000000000000000000081526004016106ca90612edd565b60405180910390fd5b6106de8383836113e7565b505050565b60006106ee836108ca565b821061072f576040517f08c379a000000000000000000000000000000000000000000000000000000000815260040161072690612f6f565b60405180910390fd5b600660008473ffffffffffffffffffffffffffffffffffffffff1673ffffffffffffffffffffffffffffffffffffffff168152602001908152602001600020600083815260200190815260200160002054905092915050565b6107a383838360405180602001604052806000815250610c3d565b505050565b60006107b2610676565b82106107f3576040517f08c379a00000000000000000000000000000000000000000000000000000000081526004016107ea90613001565b60405180910390fd5b6008828154811061080757610806613021565b5b90600052602060002001549050919050565b6000806002600084815260200190815260200160002060009054906101000a900473ffffffffffffffffffffffffffffffffffffffff169050600073ffffffffffffffffffffffffffffffffffffffff168173ffffffffffffffffffffffffffffffffffffffff16036108c1576040517f08c379a00000000000000000000000000000000000000000000000000000000081526004016108b8906130c2565b60405180910390fd5b80915050919050565b60008073ffffffffffffffffffffffffffffffffffffffff168273ffffffffffffffffffffffffffffffffffffffff160361093a576040517f08c379a000000000000000000000000000000000000000000000000000000000815260040161093190613154565b60405180910390fd5b600360008373ffffffffffffffffffffffffffffffffffffffff1673ffffffffffffffffffffffffffffffffffffffff168152602001908152602001600020549050919050565b610989611248565b73ffffffffffffffffffffffffffffffffffffffff166109a7610b6b565b73ffffffffffffffffffffffffffffffffffffffff16146109fd576040517f08c379a00000000000000000000000000000000000000000000000000000000081526004016109f4906131c0565b60405180910390fd5b610a07600061164d565b565b610a11611248565b73ffffffffffffffffffffffffffffffffffffffff16610a2f610b6b565b73ffffffffffffffffffffffffffffffffffffffff1614610a85576040517f08c379a0000000000000000000000000000000000000000000000000000000008152600401610a7c906131c0565b60405180910390fd5b610a8f8787611713565b6040518060a00160405280868152602001858152602001848152602001831515815260200182815250600b60008881526020019081526020016000206000820151816000019080519060200190610ae79291906123cd565b506020820151816001019080519060200190610b049291906123cd565b506040820151816002019080519060200190610b219291906123cd565b5060608201518160030160006101000a81548160ff0219169083151502179055506080820151816004019080519060200190610b5e9291906123cd565b5090505050505050505050565b6000600a60009054906101000a900473ffffffffffffffffffffffffffffffffffffffff16905090565b606060018054610ba490612c84565b80601f0160208091040260200160405190810160405280929190818152602001828054610bd090612c84565b8015610c1d5780601f10610bf257610100808354040283529160200191610c1d565b820191906000526020600020905b815481529060010190602001808311610c0057829003601f168201915b5050505050905090565b610c39610c32611248565b8383611731565b5050565b610c4e610c48611248565b83611309565b610c8d576040517f08c379a0000000000000000000000000000000000000000000000000000000008152600401610c8490612edd565b60405180910390fd5b610c998484848461189d565b50505050565b60606000610d4a600b6000858152602001908152602001600020600001600b6000868152602001908152602001600020600101600b6000878152602001908152602001600020600201600b600088815260200190815260200160002060030160009054906101000a900460ff16600b6000898152602001908152602001600020600401604051602001610d36959493929190613527565b6040516020818303038152906040526118f9565b905080604051602001610d5d919061366c565b604051602081830303815290604052915050919050565b600b602052806000526040600020600091509050806000018054610d9790612c84565b80601f0160208091040260200160405190810160405280929190818152602001828054610dc390612c84565b8015610e105780601f10610de557610100808354040283529160200191610e10565b820191906000526020600020905b815481529060010190602001808311610df357829003601f168201915b505050505090806001018054610e2590612c84565b80601f0160208091040260200160405190810160405280929190818152602001828054610e5190612c84565b8015610e9e5780601f10610e7357610100808354040283529160200191610e9e565b820191906000526020600020905b815481529060010190602001808311610e8157829003601f168201915b505050505090806002018054610eb390612c84565b80601f0160208091040260200160405190810160405280929190818152602001828054610edf90612c84565b8015610f2c5780601f10610f0157610100808354040283529160200191610f2c565b820191906000526020600020905b815481529060010190602001808311610f0f57829003601f168201915b5050505050908060030160009054906101000a900460ff1690806004018054610f5490612c84565b80601f0160208091040260200160405190810160405280929190818152602001828054610f8090612c84565b8015610fcd5780601f10610fa257610100808354040283529160200191610fcd565b820191906000526020600020905b815481529060010190602001808311610fb057829003601f168201915b5050505050905085565b6000600560008473ffffffffffffffffffffffffffffffffffffffff1673ffffffffffffffffffffffffffffffffffffffff16815260200190815260200160002060008373ffffffffffffffffffffffffffffffffffffffff1673ffffffffffffffffffffffffffffffffffffffff16815260200190815260200160002060009054906101000a900460ff16905092915050565b611073611248565b73ffffffffffffffffffffffffffffffffffffffff16611091610b6b565b73ffffffffffffffffffffffffffffffffffffffff16146110e7576040517f08c379a00000000000000000000000000000000000000000000000000000000081526004016110de906131c0565b60405180910390fd5b600073ffffffffffffffffffffffffffffffffffffffff168173ffffffffffffffffffffffffffffffffffffffff1603611156576040517f08c379a000000000000000000000000000000000000000000000000000000000815260040161114d90613700565b60405180910390fd5b61115f8161164d565b50565b60007f780e9d63000000000000000000000000000000000000000000000000000000007bffffffffffffffffffffffffffffffffffffffffffffffffffffffff1916827bffffffffffffffffffffffffffffffffffffffffffffffffffffffff191614806111d557506111d482611a71565b5b9050919050565b60008073ffffffffffffffffffffffffffffffffffffffff166002600084815260200190815260200160002060009054906101000a900473ffffffffffffffffffffffffffffffffffffffff1673ffffffffffffffffffffffffffffffffffffffff1614159050919050565b600033905090565b816004600083815260200190815260200160002060006101000a81548173ffffffffffffffffffffffffffffffffffffffff021916908373ffffffffffffffffffffffffffffffffffffffff160217905550808273ffffffffffffffffffffffffffffffffffffffff166112c383610819565b73ffffffffffffffffffffffffffffffffffffffff167f8c5be1e5ebec7d5bd14f71427d1e84f3dd0314c0f7b2291e5b200ac8c7c3b92560405160405180910390a45050565b6000611314826111dc565b611353576040517f08c379a000000000000000000000000000000000000000000000000000000000815260040161134a90613792565b60405180910390fd5b600061135e83610819565b90508073ffffffffffffffffffffffffffffffffffffffff168473ffffffffffffffffffffffffffffffffffffffff1614806113cd57508373ffffffffffffffffffffffffffffffffffffffff166113b5846104da565b73ffffffffffffffffffffffffffffffffffffffff16145b806113de57506113dd8185610fd7565b5b91505092915050565b8273ffffffffffffffffffffffffffffffffffffffff1661140782610819565b73ffffffffffffffffffffffffffffffffffffffff161461145d576040517f08c379a000000000000000000000000000000000000000000000000000000000815260040161145490613824565b60405180910390fd5b600073ffffffffffffffffffffffffffffffffffffffff168273ffffffffffffffffffffffffffffffffffffffff16036114cc576040517f08c379a00000000000000000000000000000000000000000000000000000000081526004016114c3906138b6565b60405180910390fd5b6114d7838383611b53565b6114e2600082611250565b6001600360008573ffffffffffffffffffffffffffffffffffffffff1673ffffffffffffffffffffffffffffffffffffffff16815260200190815260200160002060008282546115329190613905565b925050819055506001600360008473ffffffffffffffffffffffffffffffffffffffff1673ffffffffffffffffffffffffffffffffffffffff16815260200190815260200160002060008282546115899190613939565b92505081905550816002600083815260200190815260200160002060006101000a81548173ffffffffffffffffffffffffffffffffffffffff021916908373ffffffffffffffffffffffffffffffffffffffff160217905550808273ffffffffffffffffffffffffffffffffffffffff168473ffffffffffffffffffffffffffffffffffffffff167fddf252ad1be2c89b69c2b068fc378daa952ba7f163c4a11628f55a4df523b3ef60405160405180910390a4611648838383611b63565b505050565b6000600a60009054906101000a900473ffffffffffffffffffffffffffffffffffffffff16905081600a60006101000a81548173ffffffffffffffffffffffffffffffffffffffff021916908373ffffffffffffffffffffffffffffffffffffffff1602179055508173ffffffffffffffffffffffffffffffffffffffff168173ffffffffffffffffffffffffffffffffffffffff167f8be0079c531659141344cd1fd0a4f28419497f9722a3daafe3b4186f6b6457e060405160405180910390a35050565b61172d828260405180602001604052806000815250611b68565b5050565b8173ffffffffffffffffffffffffffffffffffffffff168373ffffffffffffffffffffffffffffffffffffffff160361179f576040517f08c379a0000000000000000000000000000000000000000000000000000000008152600401611796906139db565b60405180910390fd5b80600560008573ffffffffffffffffffffffffffffffffffffffff1673ffffffffffffffffffffffffffffffffffffffff16815260200190815260200160002060008473ffffffffffffffffffffffffffffffffffffffff1673ffffffffffffffffffffffffffffffffffffffff16815260200190815260200160002060006101000a81548160ff0219169083151502179055508173ffffffffffffffffffffffffffffffffffffffff168373ffffffffffffffffffffffffffffffffffffffff167f17307eab39ab6107e8899845ad3d59bd9653f200f220920489ca2b5937696c31836040516118909190612524565b60405180910390a3505050565b6118a88484846113e7565b6118b484848484611bc3565b6118f3576040517f08c379a00000000000000000000000000000000000000000000000000000000081526004016118ea90613a6d565b60405180910390fd5b50505050565b6060600082510361191b57604051806020016040528060008152509050611a6c565b6000604051806060016040528060408152602001613d32604091399050600060036002855161194a9190613939565b6119549190613abc565b60046119609190613aed565b905060006020826119719190613939565b67ffffffffffffffff81111561198a576119896127d9565b5b6040519080825280601f01601f1916602001820160405280156119bc5781602001600182028036833780820191505090505b509050818152600183018586518101602084015b81831015611a2b576003830192508251603f8160121c168501518253600182019150603f81600c1c168501518253600182019150603f8160061c168501518253600182019150603f81168501518253600182019150506119d0565b600389510660018114611a455760028114611a5557611a60565b613d3d60f01b6002830352611a60565b603d60f81b60018303525b50505050508093505050505b919050565b60007f80ac58cd000000000000000000000000000000000000000000000000000000007bffffffffffffffffffffffffffffffffffffffffffffffffffffffff1916827bffffffffffffffffffffffffffffffffffffffffffffffffffffffff19161480611b3c57507f5b5e139f000000000000000000000000000000000000000000000000000000007bffffffffffffffffffffffffffffffffffffffffffffffffffffffff1916827bffffffffffffffffffffffffffffffffffffffffffffffffffffffff1916145b80611b4c5750611b4b82611d4a565b5b9050919050565b611b5e838383611db4565b505050565b505050565b611b728383611ec6565b611b7f6000848484611bc3565b611bbe576040517f08c379a0000000000000000000000000000000000000000000000000000000008152600401611bb590613a6d565b60405180910390fd5b505050565b6000611be48473ffffffffffffffffffffffffffffffffffffffff1661209f565b15611d3d578373ffffffffffffffffffffffffffffffffffffffff1663150b7a02611c0d611248565b8786866040518563ffffffff1660e01b8152600401611c2f9493929190613b9c565b6020604051808303816000875af1925050508015611c6b57506040513d601f19601f82011682018060405250810190611c689190613bfd565b60015b611ced573d8060008114611c9b576040519150601f19603f3d011682016040523d82523d6000602084013e611ca0565b606091505b506000815103611ce5576040517f08c379a0000000000000000000000000000000000000000000000000000000008152600401611cdc90613a6d565b60405180910390fd5b805181602001fd5b63150b7a0260e01b7bffffffffffffffffffffffffffffffffffffffffffffffffffffffff1916817bffffffffffffffffffffffffffffffffffffffffffffffffffffffff191614915050611d42565b600190505b949350505050565b60007f01ffc9a7000000000000000000000000000000000000000000000000000000007bffffffffffffffffffffffffffffffffffffffffffffffffffffffff1916827bffffffffffffffffffffffffffffffffffffffffffffffffffffffff1916149050919050565b611dbf8383836120c2565b600073ffffffffffffffffffffffffffffffffffffffff168373ffffffffffffffffffffffffffffffffffffffff1603611e0157611dfc816120c7565b611e40565b8173ffffffffffffffffffffffffffffffffffffffff168373ffffffffffffffffffffffffffffffffffffffff1614611e3f57611e3e8382612110565b5b5b600073ffffffffffffffffffffffffffffffffffffffff168273ffffffffffffffffffffffffffffffffffffffff1603611e8257611e7d8161227d565b611ec1565b8273ffffffffffffffffffffffffffffffffffffffff168273ffffffffffffffffffffffffffffffffffffffff1614611ec057611ebf828261234e565b5b5b505050565b600073ffffffffffffffffffffffffffffffffffffffff168273ffffffffffffffffffffffffffffffffffffffff1603611f35576040517f08c379a0000000000000000000000000000000000000000000000000000000008152600401611f2c90613c76565b60405180910390fd5b611f3e816111dc565b15611f7e576040517f08c379a0000000000000000000000000000000000000000000000000000000008152600401611f7590613ce2565b60405180910390fd5b611f8a60008383611b53565b6001600360008473ffffffffffffffffffffffffffffffffffffffff1673ffffffffffffffffffffffffffffffffffffffff1681526020019081526020016000206000828254611fda9190613939565b92505081905550816002600083815260200190815260200160002060006101000a81548173ffffffffffffffffffffffffffffffffffffffff021916908373ffffffffffffffffffffffffffffffffffffffff160217905550808273ffffffffffffffffffffffffffffffffffffffff16600073ffffffffffffffffffffffffffffffffffffffff167fddf252ad1be2c89b69c2b068fc378daa952ba7f163c4a11628f55a4df523b3ef60405160405180910390a461209b60008383611b63565b5050565b6000808273ffffffffffffffffffffffffffffffffffffffff163b119050919050565b505050565b6008805490506009600083815260200190815260200160002081905550600881908060018154018082558091505060019003906000526020600020016000909190919091505550565b6000600161211d846108ca565b6121279190613905565b905060006007600084815260200190815260200160002054905081811461220c576000600660008673ffffffffffffffffffffffffffffffffffffffff1673ffffffffffffffffffffffffffffffffffffffff168152602001908152602001600020600084815260200190815260200160002054905080600660008773ffffffffffffffffffffffffffffffffffffffff1673ffffffffffffffffffffffffffffffffffffffff168152602001908152602001600020600084815260200190815260200160002081905550816007600083815260200190815260200160002081905550505b6007600084815260200190815260200160002060009055600660008573ffffffffffffffffffffffffffffffffffffffff1673ffffffffffffffffffffffffffffffffffffffff16815260200190815260200160002060008381526020019081526020016000206000905550505050565b600060016008805490506122919190613905565b90506000600960008481526020019081526020016000205490506000600883815481106122c1576122c0613021565b5b9060005260206000200154905080600883815481106122e3576122e2613021565b5b90600052602060002001819055508160096000838152602001908152602001600020819055506009600085815260200190815260200160002060009055600880548061233257612331613d02565b5b6001900381819060005260206000200160009055905550505050565b6000612359836108ca565b905081600660008573ffffffffffffffffffffffffffffffffffffffff1673ffffffffffffffffffffffffffffffffffffffff168152602001908152602001600020600083815260200190815260200160002081905550806007600084815260200190815260200160002081905550505050565b8280546123d990612c84565b90600052602060002090601f0160209004810192826123fb5760008555612442565b82601f1061241457805160ff1916838001178555612442565b82800160010185558215612442579182015b82811115612441578251825591602001919060010190612426565b5b50905061244f9190612453565b5090565b5b8082111561246c576000816000905550600101612454565b5090565b6000604051905090565b600080fd5b600080fd5b60007fffffffff0000000000000000000000000000000000000000000000000000000082169050919050565b6124b981612484565b81146124c457600080fd5b50565b6000813590506124d6816124b0565b92915050565b6000602082840312156124f2576124f161247a565b5b6000612500848285016124c7565b91505092915050565b60008115159050919050565b61251e81612509565b82525050565b60006020820190506125396000830184612515565b92915050565b600081519050919050565b600082825260208201905092915050565b60005b8381101561257957808201518184015260208101905061255e565b83811115612588576000848401525b50505050565b6000601f19601f8301169050919050565b60006125aa8261253f565b6125b4818561254a565b93506125c481856020860161255b565b6125cd8161258e565b840191505092915050565b600060208201905081810360008301526125f2818461259f565b905092915050565b6000819050919050565b61260d816125fa565b811461261857600080fd5b50565b60008135905061262a81612604565b92915050565b6000602082840312156126465761264561247a565b5b60006126548482850161261b565b91505092915050565b600073ffffffffffffffffffffffffffffffffffffffff82169050919050565b60006126888261265d565b9050919050565b6126988161267d565b82525050565b60006020820190506126b3600083018461268f565b92915050565b6126c28161267d565b81146126cd57600080fd5b50565b6000813590506126df816126b9565b92915050565b600080604083850312156126fc576126fb61247a565b5b600061270a858286016126d0565b925050602061271b8582860161261b565b9150509250929050565b61272e816125fa565b82525050565b60006020820190506127496000830184612725565b92915050565b6000806000606084860312156127685761276761247a565b5b6000612776868287016126d0565b9350506020612787868287016126d0565b92505060406127988682870161261b565b9150509250925092565b6000602082840312156127b8576127b761247a565b5b60006127c6848285016126d0565b91505092915050565b600080fd5b600080fd5b7f4e487b7100000000000000000000000000000000000000000000000000000000600052604160045260246000fd5b6128118261258e565b810181811067ffffffffffffffff821117156128305761282f6127d9565b5b80604052505050565b6000612843612470565b905061284f8282612808565b919050565b600067ffffffffffffffff82111561286f5761286e6127d9565b5b6128788261258e565b9050602081019050919050565b82818337600083830152505050565b60006128a76128a284612854565b612839565b9050828152602081018484840111156128c3576128c26127d4565b5b6128ce848285612885565b509392505050565b600082601f8301126128eb576128ea6127cf565b5b81356128fb848260208601612894565b91505092915050565b61290d81612509565b811461291857600080fd5b50565b60008135905061292a81612904565b92915050565b600080600080600080600060e0888a03121561294f5761294e61247a565b5b600061295d8a828b016126d0565b975050602061296e8a828b0161261b565b965050604088013567ffffffffffffffff81111561298f5761298e61247f565b5b61299b8a828b016128d6565b955050606088013567ffffffffffffffff8111156129bc576129bb61247f565b5b6129c88a828b016128d6565b945050608088013567ffffffffffffffff8111156129e9576129e861247f565b5b6129f58a828b016128d6565b93505060a0612a068a828b0161291b565b92505060c088013567ffffffffffffffff811115612a2757612a2661247f565b5b612a338a828b016128d6565b91505092959891949750929550565b60008060408385031215612a5957612a5861247a565b5b6000612a67858286016126d0565b9250506020612a788582860161291b565b9150509250929050565b600067ffffffffffffffff821115612a9d57612a9c6127d9565b5b612aa68261258e565b9050602081019050919050565b6000612ac6612ac184612a82565b612839565b905082815260208101848484011115612ae257612ae16127d4565b5b612aed848285612885565b509392505050565b600082601f830112612b0a57612b096127cf565b5b8135612b1a848260208601612ab3565b91505092915050565b60008060008060808587031215612b3d57612b3c61247a565b5b6000612b4b878288016126d0565b9450506020612b5c878288016126d0565b9350506040612b6d8782880161261b565b925050606085013567ffffffffffffffff811115612b8e57612b8d61247f565b5b612b9a87828801612af5565b91505092959194509250565b600060a0820190508181036000830152612bc0818861259f565b90508181036020830152612bd4818761259f565b90508181036040830152612be8818661259f565b9050612bf76060830185612515565b8181036080830152612c09818461259f565b90509695505050505050565b60008060408385031215612c2c57612c2b61247a565b5b6000612c3a858286016126d0565b9250506020612c4b858286016126d0565b9150509250929050565b7f4e487b7100000000000000000000000000000000000000000000000000000000600052602260045260246000fd5b60006002820490506001821680612c9c57607f821691505b602082108103612caf57612cae612c55565b5b50919050565b7f4552433732313a20617070726f76656420717565727920666f72206e6f6e657860008201527f697374656e7420746f6b656e0000000000000000000000000000000000000000602082015250565b6000612d11602c8361254a565b9150612d1c82612cb5565b604082019050919050565b60006020820190508181036000830152612d4081612d04565b9050919050565b7f4552433732313a20617070726f76616c20746f2063757272656e74206f776e6560008201527f7200000000000000000000000000000000000000000000000000000000000000602082015250565b6000612da360218361254a565b9150612dae82612d47565b604082019050919050565b60006020820190508181036000830152612dd281612d96565b9050919050565b7f4552433732313a20617070726f76652063616c6c6572206973206e6f74206f7760008201527f6e6572206e6f7220617070726f76656420666f7220616c6c0000000000000000602082015250565b6000612e3560388361254a565b9150612e4082612dd9565b604082019050919050565b60006020820190508181036000830152612e6481612e28565b9050919050565b7f4552433732313a207472616e736665722063616c6c6572206973206e6f74206f60008201527f776e6572206e6f7220617070726f766564000000000000000000000000000000602082015250565b6000612ec760318361254a565b9150612ed282612e6b565b604082019050919050565b60006020820190508181036000830152612ef681612eba565b9050919050565b7f455243373231456e756d657261626c653a206f776e657220696e646578206f7560008201527f74206f6620626f756e6473000000000000000000000000000000000000000000602082015250565b6000612f59602b8361254a565b9150612f6482612efd565b604082019050919050565b60006020820190508181036000830152612f8881612f4c565b9050919050565b7f455243373231456e756d657261626c653a20676c6f62616c20696e646578206f60008201527f7574206f6620626f756e64730000000000000000000000000000000000000000602082015250565b6000612feb602c8361254a565b9150612ff682612f8f565b604082019050919050565b6000602082019050818103600083015261301a81612fde565b9050919050565b7f4e487b7100000000000000000000000000000000000000000000000000000000600052603260045260246000fd5b7f4552433732313a206f776e657220717565727920666f72206e6f6e657869737460008201527f656e7420746f6b656e0000000000000000000000000000000000000000000000602082015250565b60006130ac60298361254a565b91506130b782613050565b604082019050919050565b600060208201905081810360008301526130db8161309f565b9050919050565b7f4552433732313a2062616c616e636520717565727920666f7220746865207a6560008201527f726f206164647265737300000000000000000000000000000000000000000000602082015250565b600061313e602a8361254a565b9150613149826130e2565b604082019050919050565b6000602082019050818103600083015261316d81613131565b9050919050565b7f4f776e61626c653a2063616c6c6572206973206e6f7420746865206f776e6572600082015250565b60006131aa60208361254a565b91506131b582613174565b602082019050919050565b600060208201905081810360008301526131d98161319d565b9050919050565b600081905092915050565b7f7b2276657269666965644279223a202200000000000000000000000000000000600082015250565b60006132216010836131e0565b915061322c826131eb565b601082019050919050565b60008190508160005260206000209050919050565b6000815461325981612c84565b61326381866131e0565b9450600182166000811461327e576001811461328f576132c2565b60ff198316865281860193506132c2565b61329885613237565b60005b838110156132ba5781548189015260018201915060208101905061329b565b838801955050505b50505092915050565b7f222c000000000000000000000000000000000000000000000000000000000000600082015250565b60006133016002836131e0565b915061330c826132cb565b600282019050919050565b7f226d656d6265724f66223a202200000000000000000000000000000000000000600082015250565b600061334d600d836131e0565b915061335882613317565b600d82019050919050565b7f22726f6c65223a20220000000000000000000000000000000000000000000000600082015250565b60006133996009836131e0565b91506133a482613363565b600982019050919050565b7f22696e476f6f645374616e64696e67223a202200000000000000000000000000600082015250565b60006133e56013836131e0565b91506133f0826133af565b601382019050919050565b60008160f81b9050919050565b6000613413826133fb565b9050919050565b600061342582613408565b9050919050565b61343d61343882612509565b61341a565b82525050565b7f2263657274696669636174696f6e73223a202200000000000000000000000000600082015250565b60006134796013836131e0565b915061348482613443565b601382019050919050565b7f2200000000000000000000000000000000000000000000000000000000000000600082015250565b60006134c56001836131e0565b91506134d08261348f565b600182019050919050565b7f7d00000000000000000000000000000000000000000000000000000000000000600082015250565b60006135116001836131e0565b915061351c826134db565b600182019050919050565b600061353282613214565b915061353e828861324c565b9150613549826132f4565b915061355482613340565b9150613560828761324c565b915061356b826132f4565b91506135768261338c565b9150613582828661324c565b915061358d826132f4565b9150613598826133d8565b91506135a4828561342c565b6001820191506135b3826132f4565b91506135be8261346c565b91506135ca828461324c565b91506135d5826134b8565b91506135e082613504565b91508190509695505050505050565b7f646174613a6170706c69636174696f6e2f6a736f6e3b6261736536342c000000600082015250565b6000613625601d836131e0565b9150613630826135ef565b601d82019050919050565b60006136468261253f565b61365081856131e0565b935061366081856020860161255b565b80840191505092915050565b600061367782613618565b9150613683828461363b565b915081905092915050565b7f4f776e61626c653a206e6577206f776e657220697320746865207a65726f206160008201527f6464726573730000000000000000000000000000000000000000000000000000602082015250565b60006136ea60268361254a565b91506136f58261368e565b604082019050919050565b60006020820190508181036000830152613719816136dd565b9050919050565b7f4552433732313a206f70657261746f7220717565727920666f72206e6f6e657860008201527f697374656e7420746f6b656e0000000000000000000000000000000000000000602082015250565b600061377c602c8361254a565b915061378782613720565b604082019050919050565b600060208201905081810360008301526137ab8161376f565b9050919050565b7f4552433732313a207472616e736665722066726f6d20696e636f72726563742060008201527f6f776e6572000000000000000000000000000000000000000000000000000000602082015250565b600061380e60258361254a565b9150613819826137b2565b604082019050919050565b6000602082019050818103600083015261383d81613801565b9050919050565b7f4552433732313a207472616e7366657220746f20746865207a65726f2061646460008201527f7265737300000000000000000000000000000000000000000000000000000000602082015250565b60006138a060248361254a565b91506138ab82613844565b604082019050919050565b600060208201905081810360008301526138cf81613893565b9050919050565b7f4e487b7100000000000000000000000000000000000000000000000000000000600052601160045260246000fd5b6000613910826125fa565b915061391b836125fa565b92508282101561392e5761392d6138d6565b5b828203905092915050565b6000613944826125fa565b915061394f836125fa565b9250827fffffffffffffffffffffffffffffffffffffffffffffffffffffffffffffffff03821115613984576139836138d6565b5b828201905092915050565b7f4552433732313a20617070726f766520746f2063616c6c657200000000000000600082015250565b60006139c560198361254a565b91506139d08261398f565b602082019050919050565b600060208201905081810360008301526139f4816139b8565b9050919050565b7f4552433732313a207472616e7366657220746f206e6f6e20455243373231526560008201527f63656976657220696d706c656d656e7465720000000000000000000000000000602082015250565b6000613a5760328361254a565b9150613a62826139fb565b604082019050919050565b60006020820190508181036000830152613a8681613a4a565b9050919050565b7f4e487b7100000000000000000000000000000000000000000000000000000000600052601260045260246000fd5b6000613ac7826125fa565b9150613ad2836125fa565b925082613ae257613ae1613a8d565b5b828204905092915050565b6000613af8826125fa565b9150613b03836125fa565b9250817fffffffffffffffffffffffffffffffffffffffffffffffffffffffffffffffff0483118215151615613b3c57613b3b6138d6565b5b828202905092915050565b600081519050919050565b600082825260208201905092915050565b6000613b6e82613b47565b613b788185613b52565b9350613b8881856020860161255b565b613b918161258e565b840191505092915050565b6000608082019050613bb1600083018761268f565b613bbe602083018661268f565b613bcb6040830185612725565b8181036060830152613bdd8184613b63565b905095945050505050565b600081519050613bf7816124b0565b92915050565b600060208284031215613c1357613c1261247a565b5b6000613c2184828501613be8565b91505092915050565b7f4552433732313a206d696e7420746f20746865207a65726f2061646472657373600082015250565b6000613c6060208361254a565b9150613c6b82613c2a565b602082019050919050565b60006020820190508181036000830152613c8f81613c53565b9050919050565b7f4552433732313a20746f6b656e20616c7265616479206d696e74656400000000600082015250565b6000613ccc601c8361254a565b9150613cd782613c96565b602082019050919050565b60006020820190508181036000830152613cfb81613cbf565b9050919050565b7f4e487b7100000000000000000000000000000000000000000000000000000000600052603160045260246000fdfe4142434445464748494a4b4c4d4e4f505152535455565758595a6162636465666768696a6b6c6d6e6f707172737475767778797a303132333435363738392b2fa2646970667358221220e907482195e58f9481f0e85c1cd6dd93323f26c298fcd6ce9b935185f7cc511264736f6c634300080d0033",
  "immutableReferences": {},
  "source": "// SPDX-License-Identifier: MIT\npragma solidity ^0.8.0;\n\nimport \"@openzeppelin/contracts/token/ERC721/ERC721.sol\";\nimport \"@openzeppelin/contracts/token/ERC721/extensions/ERC721Enumerable.sol\";\nimport \"@openzeppelin/contracts/access/Ownable.sol\";\nimport \"./Base64.sol\";\n\n// TODO\n// https://github.com/radek1st/time-locked-wallets/blob/master/contracts/TimeLockedWallet.sol\n\n// ON CHAIN Attributes\n\n// https://gist.github.com/Chmarusso/045ee79fa9a1fae55928a613044c9067\ncontract Membership is ERC721, ERC721Enumerable, Ownable {\n\n\t\tmapping(uint256 => Attr) public attributes;\n\n    struct Attr {\n        string verifiedBy;\n        string memberOf;\n\t\t\t\tstring role; // title?\n\t\t\t\tbool inGoodStanding;\n\t\t\t\tstring certifications;\n    }\n\n\t\tconstructor() ERC721(\"Membership\", \"MOG\") {}\n\n    function _beforeTokenTransfer(address from, address to, uint256 tokenId)\n        internal\n        override(ERC721, ERC721Enumerable)\n    {\n        super._beforeTokenTransfer(from, to, tokenId);\n    }\n\n    function _burn(uint256 tokenId) internal override(ERC721) {\n        super._burn(tokenId);\n    }\n\n    function supportsInterface(bytes4 interfaceId)\n        public\n        view\n        override(ERC721, ERC721Enumerable)\n        returns (bool)\n    {\n        return super.supportsInterface(interfaceId);\n    }\n\n    function mint(\n        address to, \n        uint256 tokenId, \n        string memory _verifiedBy, \n        string memory _memberOf, \n        string memory _role, \n        bool _inGoodStanding, \n        string memory _certifications\n\t\t\t\t) \n    public onlyOwner { // TODO: onlyVerifier?\n        _safeMint(to, tokenId);\n        attributes[tokenId] = Attr(_verifiedBy, _memberOf, _role, _inGoodStanding, _certifications);\n    } \n\n    function tokenURI(uint256 tokenId) override(ERC721) public view returns (string memory) {\n        string memory json = Base64.encode(\n            bytes(string(\n\t\t\t\t\t\t\tabi.encodePacked(\n                    '{\"verifiedBy\": \"', attributes[tokenId].verifiedBy, '\",',\n\t\t\t\t\t\t\t\t\t\t'\"memberOf\": \"', attributes[tokenId].memberOf, '\",',\n\t\t\t\t\t\t\t\t\t\t'\"role\": \"', attributes[tokenId].role, '\",',\n\t\t\t\t\t\t\t\t\t\t'\"inGoodStanding\": \"', attributes[tokenId].inGoodStanding, '\",',\n\t\t\t\t\t\t\t\t\t\t'\"certifications\": \"', attributes[tokenId].certifications, '\"',\n\t\t\t\t\t\t\t\t\t\t'}'\n                )\n            ))\n        );\n        return string(abi.encodePacked('data:application/json;base64,', json));\n    }\n\n\t\t// TODO: Update Attributes\n\n\t\t// TODO: get tokenIds with specifiedAttributes\n}\n\n",
  "sourcePath": "/Users/jakegny/Projects/guildhalls-hackathon/src/contracts/Membership.sol",
  "compiler": {
    "name": "solc",
    "version": "0.8.13+commit.abaa5c0e.Emscripten.clang"
  },
  "schemaVersion": "3.4.6",
  "updatedAt": "2022-04-08T05:55:36.976Z",
  "devdoc": {
    "kind": "dev",
    "methods": {
      "approve(address,uint256)": {
        "details": "See {IERC721-approve}."
      },
      "balanceOf(address)": {
        "details": "See {IERC721-balanceOf}."
      },
      "getApproved(uint256)": {
        "details": "See {IERC721-getApproved}."
      },
      "isApprovedForAll(address,address)": {
        "details": "See {IERC721-isApprovedForAll}."
      },
      "name()": {
        "details": "See {IERC721Metadata-name}."
      },
      "owner()": {
        "details": "Returns the address of the current owner."
      },
      "ownerOf(uint256)": {
        "details": "See {IERC721-ownerOf}."
      },
      "renounceOwnership()": {
        "details": "Leaves the contract without owner. It will not be possible to call `onlyOwner` functions anymore. Can only be called by the current owner. NOTE: Renouncing ownership will leave the contract without an owner, thereby removing any functionality that is only available to the owner."
      },
      "safeTransferFrom(address,address,uint256)": {
        "details": "See {IERC721-safeTransferFrom}."
      },
      "safeTransferFrom(address,address,uint256,bytes)": {
        "details": "See {IERC721-safeTransferFrom}."
      },
      "setApprovalForAll(address,bool)": {
        "details": "See {IERC721-setApprovalForAll}."
      },
      "symbol()": {
        "details": "See {IERC721Metadata-symbol}."
      },
      "tokenByIndex(uint256)": {
        "details": "See {IERC721Enumerable-tokenByIndex}."
      },
      "tokenOfOwnerByIndex(address,uint256)": {
        "details": "See {IERC721Enumerable-tokenOfOwnerByIndex}."
      },
      "tokenURI(uint256)": {
        "details": "See {IERC721Metadata-tokenURI}."
      },
      "totalSupply()": {
        "details": "See {IERC721Enumerable-totalSupply}."
      },
      "transferFrom(address,address,uint256)": {
        "details": "See {IERC721-transferFrom}."
      },
      "transferOwnership(address)": {
        "details": "Transfers ownership of the contract to a new account (`newOwner`). Can only be called by the current owner."
      }
    },
    "version": 1
  },
  "userdoc": {
    "kind": "user",
    "methods": {},
    "version": 1
  }
}