{
  "contractName": "WorkContractFactory",
  "abi": [
    {
      "anonymous": false,
      "inputs": [
        {
          "indexed": false,
          "internalType": "address",
          "name": "wallet",
          "type": "address"
        }
      ],
      "name": "ContractCreated",
      "type": "event"
    },
    {
      "inputs": [
        {
          "internalType": "address",
          "name": "_user",
          "type": "address"
        }
      ],
      "name": "getContractsForClient",
      "outputs": [
        {
          "internalType": "address[]",
          "name": "",
          "type": "address[]"
        }
      ],
      "stateMutability": "view",
      "type": "function",
      "constant": true
    },
    {
      "inputs": [
        {
          "internalType": "enum TypeOfWork",
          "name": "typeOfWork",
          "type": "uint8"
        }
      ],
      "name": "newContract",
      "outputs": [
        {
          "internalType": "address",
          "name": "",
          "type": "address"
        }
      ],
      "stateMutability": "payable",
      "type": "function",
      "payable": true
    },
    {
      "inputs": [],
      "name": "getOpenContracts",
      "outputs": [
        {
          "internalType": "contract WorkContract[]",
          "name": "",
          "type": "address[]"
        }
      ],
      "stateMutability": "view",
      "type": "function",
      "constant": true
    },
    {
      "inputs": [
        {
          "internalType": "contract WorkContract",
          "name": "workContract",
          "type": "address"
        },
        {
          "internalType": "address payable",
          "name": "_workerAddress",
          "type": "address"
        }
      ],
      "name": "assignWorker",
      "outputs": [],
      "stateMutability": "nonpayable",
      "type": "function"
    }
  ],
  "bytecode": "0x608060405234801561001057600080fd5b50612912806100206000396000f3fe608060405260043610620000445760003560e01c8063304c41ae14620000495780633dfe03b8146200008d57806381c5dc3114620000bd578063fc6811c314620000f3575b600080fd5b3480156200005657600080fd5b506200007560048036038101906200006f9190620005d0565b62000121565b604051620000849190620006d0565b60405180910390f35b3480156200009a57600080fd5b50620000a5620001ef565b604051620000b491906200080b565b60405180910390f35b620000db6004803603810190620000d5919062000857565b6200027f565b604051620000ea91906200089a565b60405180910390f35b3480156200010057600080fd5b506200011f600480360381019062000119919062000941565b62000403565b005b60606000808373ffffffffffffffffffffffffffffffffffffffff1673ffffffffffffffffffffffffffffffffffffffff168152602001908152602001600020805480602002602001604051908101604052809291908181526020018280548015620001e357602002820191906000526020600020905b8160009054906101000a900473ffffffffffffffffffffffffffffffffffffffff1673ffffffffffffffffffffffffffffffffffffffff168152602001906001019080831162000198575b50505050509050919050565b606060018054806020026020016040519081016040528092919081815260200182805480156200027557602002820191906000526020600020905b8160009054906101000a900473ffffffffffffffffffffffffffffffffffffffff1673ffffffffffffffffffffffffffffffffffffffff16815260200190600101908083116200022a575b5050505050905090565b6000803383604051620002929062000558565b6200029f92919062000a08565b604051809103906000f080158015620002bc573d6000803e3d6000fd5b5090506000803373ffffffffffffffffffffffffffffffffffffffff1673ffffffffffffffffffffffffffffffffffffffff168152602001908152602001600020819080600181540180825580915050600190039060005260206000200160009091909190916101000a81548173ffffffffffffffffffffffffffffffffffffffff021916908373ffffffffffffffffffffffffffffffffffffffff1602179055506001819080600181540180825580915050600190039060005260206000200160009091909190916101000a81548173ffffffffffffffffffffffffffffffffffffffff021916908373ffffffffffffffffffffffffffffffffffffffff1602179055507fcf78cf0d6f3d8371e1075c69c492ab4ec5d8cf23a1a239b6a51a1d00be7ca31281604051620003f291906200089a565b60405180910390a180915050919050565b8173ffffffffffffffffffffffffffffffffffffffff16636edc2848826040518263ffffffff1660e01b81526004016200043e919062000a46565b600060405180830381600087803b1580156200045957600080fd5b505af11580156200046e573d6000803e3d6000fd5b5050505060005b60018054905081101562000553578273ffffffffffffffffffffffffffffffffffffffff1660018281548110620004b157620004b062000a63565b5b9060005260206000200160009054906101000a900473ffffffffffffffffffffffffffffffffffffffff1673ffffffffffffffffffffffffffffffffffffffff16036200053d57600181815481106200050f576200050e62000a63565b5b9060005260206000200160006101000a81549073ffffffffffffffffffffffffffffffffffffffff02191690555b80806200054a9062000acb565b91505062000475565b505050565b611dc48062000b1983390190565b600080fd5b600073ffffffffffffffffffffffffffffffffffffffff82169050919050565b600062000598826200056b565b9050919050565b620005aa816200058b565b8114620005b657600080fd5b50565b600081359050620005ca816200059f565b92915050565b600060208284031215620005e957620005e862000566565b5b6000620005f984828501620005b9565b91505092915050565b600081519050919050565b600082825260208201905092915050565b6000819050602082019050919050565b62000639816200058b565b82525050565b60006200064d83836200062e565b60208301905092915050565b6000602082019050919050565b6000620006738262000602565b6200067f81856200060d565b93506200068c836200061e565b8060005b83811015620006c3578151620006a788826200063f565b9750620006b48362000659565b92505060018101905062000690565b5085935050505092915050565b60006020820190508181036000830152620006ec818462000666565b905092915050565b600081519050919050565b6000819050602082019050919050565b6000819050919050565b60006200073a620007346200072e846200056b565b6200070f565b6200056b565b9050919050565b60006200074e8262000719565b9050919050565b6000620007628262000741565b9050919050565b620007748162000755565b82525050565b600062000788838362000769565b60208301905092915050565b6000602082019050919050565b6000620007ae82620006f4565b620007ba81856200060d565b9350620007c783620006ff565b8060005b83811015620007fe578151620007e288826200077a565b9750620007ef8362000794565b925050600181019050620007cb565b5085935050505092915050565b60006020820190508181036000830152620008278184620007a1565b905092915050565b600481106200083d57600080fd5b50565b60008135905062000851816200082f565b92915050565b60006020828403121562000870576200086f62000566565b5b6000620008808482850162000840565b91505092915050565b62000894816200058b565b82525050565b6000602082019050620008b1600083018462000889565b92915050565b6000620008c4826200058b565b9050919050565b620008d681620008b7565b8114620008e257600080fd5b50565b600081359050620008f681620008cb565b92915050565b600062000909826200056b565b9050919050565b6200091b81620008fc565b81146200092757600080fd5b50565b6000813590506200093b8162000910565b92915050565b600080604083850312156200095b576200095a62000566565b5b60006200096b85828601620008e5565b92505060206200097e858286016200092a565b9150509250929050565b7f4e487b7100000000000000000000000000000000000000000000000000000000600052602160045260246000fd5b60048110620009cb57620009ca62000988565b5b50565b6000819050620009de82620009b7565b919050565b6000620009f082620009ce565b9050919050565b62000a0281620009e3565b82525050565b600060408201905062000a1f600083018562000889565b62000a2e6020830184620009f7565b9392505050565b62000a4081620008fc565b82525050565b600060208201905062000a5d600083018462000a35565b92915050565b7f4e487b7100000000000000000000000000000000000000000000000000000000600052603260045260246000fd5b7f4e487b7100000000000000000000000000000000000000000000000000000000600052601160045260246000fd5b6000819050919050565b600062000ad88262000ac1565b91507fffffffffffffffffffffffffffffffffffffffffffffffffffffffffffffffff820362000b0d5762000b0c62000a92565b5b60018201905091905056fe60806040523480156200001157600080fd5b5060405162001dc438038062001dc483398181016040528101906200003791906200016c565b81600060026101000a81548173ffffffffffffffffffffffffffffffffffffffff021916908373ffffffffffffffffffffffffffffffffffffffff16021790555080600060016101000a81548160ff02191690836003811115620000a0576200009f620001b3565b5b021790555060008060006101000a81548160ff02191690836007811115620000cd57620000cc620001b3565b5b02179055505050620001e2565b600080fd5b600073ffffffffffffffffffffffffffffffffffffffff82169050919050565b60006200010c82620000df565b9050919050565b6200011e81620000ff565b81146200012a57600080fd5b50565b6000815190506200013e8162000113565b92915050565b600481106200015257600080fd5b50565b600081519050620001668162000144565b92915050565b60008060408385031215620001865762000185620000da565b5b600062000196858286016200012d565b9250506020620001a98582860162000155565b9150509250929050565b7f4e487b7100000000000000000000000000000000000000000000000000000000600052602160045260246000fd5b611bd280620001f26000396000f3fe6080604052600436106101095760003560e01c80638926420111610095578063ab467a5311610064578063ab467a5314610277578063c0e929e7146102a0578063c0fdf07b146102cb578063d01583bc146102e2578063f1a660151461031f57610109565b8063892642011461020f578063a54d50cc14610219578063a57848b614610242578063a72ad9a51461024c57610109565b80636ba74f17116100dc5780636ba74f17146101855780636edc2848146101ae5780637212d289146101d757806379a9e345146101ee57806387cf58d9146101f857610109565b806324600fc31461010e57806336021534146101185780634010b84e146101435780634e69d5601461015a575b600080fd5b610116610336565b005b34801561012457600080fd5b5061012d6104e0565b60405161013a919061132f565b60405180910390f35b34801561014f57600080fd5b506101586105fe565b005b34801561016657600080fd5b5061016f6106ba565b60405161017c91906113c8565b60405180910390f35b34801561019157600080fd5b506101ac60048036038101906101a79190611414565b6106d0565b005b3480156101ba57600080fd5b506101d560048036038101906101d0919061147f565b6107d3565b005b3480156101e357600080fd5b506101ec6108a7565b005b6101f6610954565b005b34801561020457600080fd5b5061020d610ad0565b005b610217610b85565b005b34801561022557600080fd5b50610240600480360381019061023b91906114d1565b610d3b565b005b61024a610e6b565b005b34801561025857600080fd5b50610261610f62565b60405161026e9190611517565b60405180910390f35b34801561028357600080fd5b5061029e6004803603810190610299919061155e565b610f6c565b005b3480156102ac57600080fd5b506102b5611016565b6040516102c29190611624565b60405180910390f35b3480156102d757600080fd5b506102e06110a8565b005b3480156102ee57600080fd5b5061030960048036038101906103049190611414565b61113a565b6040516103169190611517565b60405180910390f35b34801561032b57600080fd5b50610334611183565b005b600160009054906101000a900473ffffffffffffffffffffffffffffffffffffffff1673ffffffffffffffffffffffffffffffffffffffff163373ffffffffffffffffffffffffffffffffffffffff16146103c6576040517f08c379a00000000000000000000000000000000000000000000000000000000081526004016103bd906116b8565b60405180910390fd5b34471015610409576040517f08c379a00000000000000000000000000000000000000000000000000000000081526004016104009061174a565b60405180910390fd5b6000803373ffffffffffffffffffffffffffffffffffffffff166006546040516104329061179b565b60006040518083038185875af1925050503d806000811461046f576040519150601f19603f3d011682016040523d82523d6000602084013e610474565b606091505b5091509150816104b9576040517f08c379a00000000000000000000000000000000000000000000000000000000081526004016104b0906117fc565b60405180910390fd5b60006006819055506000600760006101000a81548160ff0219169083151502179055505050565b6060600060029054906101000a900473ffffffffffffffffffffffffffffffffffffffff1673ffffffffffffffffffffffffffffffffffffffff163373ffffffffffffffffffffffffffffffffffffffff1614610572576040517f08c379a00000000000000000000000000000000000000000000000000000000081526004016105699061188e565b60405180910390fd5b60038054806020026020016040519081016040528092919081815260200182805480156105f457602002820191906000526020600020905b8160009054906101000a900473ffffffffffffffffffffffffffffffffffffffff1673ffffffffffffffffffffffffffffffffffffffff16815260200190600101908083116105aa575b5050505050905090565b600160009054906101000a900473ffffffffffffffffffffffffffffffffffffffff1673ffffffffffffffffffffffffffffffffffffffff163373ffffffffffffffffffffffffffffffffffffffff161461068e576040517f08c379a0000000000000000000000000000000000000000000000000000000008152600401610685906116b8565b60405180910390fd5b60046000806101000a81548160ff021916908360078111156106b3576106b2611351565b5b0217905550565b60008060009054906101000a900460ff16905090565b600060029054906101000a900473ffffffffffffffffffffffffffffffffffffffff1673ffffffffffffffffffffffffffffffffffffffff163373ffffffffffffffffffffffffffffffffffffffff1614610760576040517f08c379a00000000000000000000000000000000000000000000000000000000081526004016107579061188e565b60405180910390fd5b600460008273ffffffffffffffffffffffffffffffffffffffff1673ffffffffffffffffffffffffffffffffffffffff1681526020019081526020016000205460058190555060016000806101000a81548160ff021916908360078111156107cb576107ca611351565b5b021790555050565b600060029054906101000a900473ffffffffffffffffffffffffffffffffffffffff1673ffffffffffffffffffffffffffffffffffffffff163373ffffffffffffffffffffffffffffffffffffffff1614610863576040517f08c379a000000000000000000000000000000000000000000000000000000000815260040161085a9061188e565b60405180910390fd5b80600160006101000a81548173ffffffffffffffffffffffffffffffffffffffff021916908373ffffffffffffffffffffffffffffffffffffffff16021790555050565b600060029054906101000a900473ffffffffffffffffffffffffffffffffffffffff1673ffffffffffffffffffffffffffffffffffffffff163373ffffffffffffffffffffffffffffffffffffffff1614610937576040517f08c379a000000000000000000000000000000000000000000000000000000000815260040161092e9061188e565b60405180910390fd5b6001600760006101000a81548160ff021916908315150217905550565b600060029054906101000a900473ffffffffffffffffffffffffffffffffffffffff1673ffffffffffffffffffffffffffffffffffffffff163373ffffffffffffffffffffffffffffffffffffffff16146109e4576040517f08c379a00000000000000000000000000000000000000000000000000000000081526004016109db9061188e565b60405180910390fd5b34600060029054906101000a900473ffffffffffffffffffffffffffffffffffffffff1673ffffffffffffffffffffffffffffffffffffffff16311015610a60576040517f08c379a0000000000000000000000000000000000000000000000000000000008152600401610a5790611920565b60405180910390fd5b6005543414610aa4576040517f08c379a0000000000000000000000000000000000000000000000000000000008152600401610a9b9061198c565b60405180910390fd5b60026000806101000a81548160ff02191690836007811115610ac957610ac8611351565b5b0217905550565b600060029054906101000a900473ffffffffffffffffffffffffffffffffffffffff1673ffffffffffffffffffffffffffffffffffffffff163373ffffffffffffffffffffffffffffffffffffffff1614610b60576040517f08c379a0000000000000000000000000000000000000000000000000000000008152600401610b579061188e565b60405180910390fd5b60006006819055506000600760006101000a81548160ff021916908315150217905550565b600160009054906101000a900473ffffffffffffffffffffffffffffffffffffffff1673ffffffffffffffffffffffffffffffffffffffff163373ffffffffffffffffffffffffffffffffffffffff1614610c15576040517f08c379a0000000000000000000000000000000000000000000000000000000008152600401610c0c906116b8565b60405180910390fd5b60056007811115610c2957610c28611351565b5b60008054906101000a900460ff166007811115610c4957610c48611351565b5b14610c89576040517f08c379a0000000000000000000000000000000000000000000000000000000008152600401610c8090611a1e565b60405180910390fd5b6000803373ffffffffffffffffffffffffffffffffffffffff1647604051610cb09061179b565b60006040518083038185875af1925050503d8060008114610ced576040519150601f19603f3d011682016040523d82523d6000602084013e610cf2565b606091505b509150915081610d37576040517f08c379a0000000000000000000000000000000000000000000000000000000008152600401610d2e906117fc565b60405180910390fd5b5050565b600060029054906101000a900473ffffffffffffffffffffffffffffffffffffffff1673ffffffffffffffffffffffffffffffffffffffff163373ffffffffffffffffffffffffffffffffffffffff1614610dcb576040517f08c379a0000000000000000000000000000000000000000000000000000000008152600401610dc29061188e565b60405180910390fd5b60046007811115610ddf57610dde611351565b5b60008054906101000a900460ff166007811115610dff57610dfe611351565b5b03610e3f576040517f08c379a0000000000000000000000000000000000000000000000000000000008152600401610e3690611a8a565b60405180910390fd5b806000806101000a81548160ff02191690836007811115610e6357610e62611351565b5b021790555050565b600160009054906101000a900473ffffffffffffffffffffffffffffffffffffffff1673ffffffffffffffffffffffffffffffffffffffff163373ffffffffffffffffffffffffffffffffffffffff1614610efb576040517f08c379a0000000000000000000000000000000000000000000000000000000008152600401610ef2906116b8565b60405180910390fd5b34471015610f3e576040517f08c379a0000000000000000000000000000000000000000000000000000000008152600401610f3590611b1c565b60405180910390fd5b6000600760006101000a81548160ff02191690831515021790555034600681905550565b6000600654905090565b6003339080600181540180825580915050600190039060005260206000200160009091909190916101000a81548173ffffffffffffffffffffffffffffffffffffffff021916908373ffffffffffffffffffffffffffffffffffffffff16021790555080600460003373ffffffffffffffffffffffffffffffffffffffff1673ffffffffffffffffffffffffffffffffffffffff1681526020019081526020016000208190555050565b60606002805461102590611b6b565b80601f016020809104026020016040519081016040528092919081815260200182805461105190611b6b565b801561109e5780601f106110735761010080835404028352916020019161109e565b820191906000526020600020905b81548152906001019060200180831161108157829003601f168201915b5050505050905090565b600060029054906101000a900473ffffffffffffffffffffffffffffffffffffffff1673ffffffffffffffffffffffffffffffffffffffff163373ffffffffffffffffffffffffffffffffffffffff1614611138576040517f08c379a000000000000000000000000000000000000000000000000000000000815260040161112f9061188e565b60405180910390fd5b565b6000600460008373ffffffffffffffffffffffffffffffffffffffff1673ffffffffffffffffffffffffffffffffffffffff168152602001908152602001600020549050919050565b600160009054906101000a900473ffffffffffffffffffffffffffffffffffffffff1673ffffffffffffffffffffffffffffffffffffffff163373ffffffffffffffffffffffffffffffffffffffff1614611213576040517f08c379a000000000000000000000000000000000000000000000000000000000815260040161120a906116b8565b60405180910390fd5b60026000806101000a81548160ff0219169083600781111561123857611237611351565b5b0217905550565b600081519050919050565b600082825260208201905092915050565b6000819050602082019050919050565b600073ffffffffffffffffffffffffffffffffffffffff82169050919050565b60006112968261126b565b9050919050565b6112a68161128b565b82525050565b60006112b8838361129d565b60208301905092915050565b6000602082019050919050565b60006112dc8261123f565b6112e6818561124a565b93506112f18361125b565b8060005b8381101561132257815161130988826112ac565b9750611314836112c4565b9250506001810190506112f5565b5085935050505092915050565b6000602082019050818103600083015261134981846112d1565b905092915050565b7f4e487b7100000000000000000000000000000000000000000000000000000000600052602160045260246000fd5b6008811061139157611390611351565b5b50565b60008190506113a282611380565b919050565b60006113b282611394565b9050919050565b6113c2816113a7565b82525050565b60006020820190506113dd60008301846113b9565b92915050565b600080fd5b6113f18161128b565b81146113fc57600080fd5b50565b60008135905061140e816113e8565b92915050565b60006020828403121561142a576114296113e3565b5b6000611438848285016113ff565b91505092915050565b600061144c8261126b565b9050919050565b61145c81611441565b811461146757600080fd5b50565b60008135905061147981611453565b92915050565b600060208284031215611495576114946113e3565b5b60006114a38482850161146a565b91505092915050565b600881106114b957600080fd5b50565b6000813590506114cb816114ac565b92915050565b6000602082840312156114e7576114e66113e3565b5b60006114f5848285016114bc565b91505092915050565b6000819050919050565b611511816114fe565b82525050565b600060208201905061152c6000830184611508565b92915050565b61153b816114fe565b811461154657600080fd5b50565b60008135905061155881611532565b92915050565b600060208284031215611574576115736113e3565b5b600061158284828501611549565b91505092915050565b600081519050919050565b600082825260208201905092915050565b60005b838110156115c55780820151818401526020810190506115aa565b838111156115d4576000848401525b50505050565b6000601f19601f8301169050919050565b60006115f68261158b565b6116008185611596565b93506116108185602086016115a7565b611619816115da565b840191505092915050565b6000602082019050818103600083015261163e81846115eb565b905092915050565b7f4f6e6c792074686520616363657074656420776f726b65722063616e2070657260008201527f666f726d2074686973206f7065726174696f6e00000000000000000000000000602082015250565b60006116a2603383611596565b91506116ad82611646565b604082019050919050565b600060208201905081810360008301526116d181611695565b9050919050565b7f436f6e747261637420646f6573206e6f7420686176652073756666696369656e60008201527f742066756e647320666f722077697468647261772e0000000000000000000000602082015250565b6000611734603583611596565b915061173f826116d8565b604082019050919050565b6000602082019050818103600083015261176381611727565b9050919050565b600081905092915050565b50565b600061178560008361176a565b915061179082611775565b600082019050919050565b60006117a682611778565b9150819050919050565b7f4661696c656420746f2073656e64204574686572000000000000000000000000600082015250565b60006117e6601483611596565b91506117f1826117b0565b602082019050919050565b60006020820190508181036000830152611815816117d9565b9050919050565b7f4f6e6c792074686520636c69656e742063616e20706572666f726d207468697360008201527f206f7065726174696f6e00000000000000000000000000000000000000000000602082015250565b6000611878602a83611596565b91506118838261181c565b604082019050919050565b600060208201905081810360008301526118a78161186b565b9050919050565b7f436c69656e7420646f6573206e6f74206861766520656e6f756768206c69717560008201527f696469747920746f20737461727420776f726b2e000000000000000000000000602082015250565b600061190a603483611596565b9150611915826118ae565b604082019050919050565b60006020820190508181036000830152611939816118fd565b9050919050565b7f56616c756520646f6573206e6f74206d61746368206269642e00000000000000600082015250565b6000611976601983611596565b915061198182611940565b602082019050919050565b600060208201905081810360008301526119a581611969565b9050919050565b7f436c69656e7420686173206e6f74206d61726b656420776f726b20617320636f60008201527f6d706c6574650000000000000000000000000000000000000000000000000000602082015250565b6000611a08602683611596565b9150611a13826119ac565b604082019050919050565b60006020820190508181036000830152611a37816119fb565b9050919050565b7f5468697320636f6e7472616374206973206265696e672064697370757465642e600082015250565b6000611a74602083611596565b9150611a7f82611a3e565b602082019050919050565b60006020820190508181036000830152611aa381611a67565b9050919050565b7f436f6e747261637420646f6573206e6f7420686176652073756666696369656e60008201527f742066756e647320666f7220647261772e000000000000000000000000000000602082015250565b6000611b06603183611596565b9150611b1182611aaa565b604082019050919050565b60006020820190508181036000830152611b3581611af9565b9050919050565b7f4e487b7100000000000000000000000000000000000000000000000000000000600052602260045260246000fd5b60006002820490506001821680611b8357607f821691505b602082108103611b9657611b95611b3c565b5b5091905056fea2646970667358221220bdc51314fe991c7b649b1c30cc3185d23749e7fc906ea51d5c3473e0b8e5f2e764736f6c634300080d0033a2646970667358221220b7e1d7a5e32a244dd721a2053563592e17d31bc5403b41d481b04a1435e8816d64736f6c634300080d0033",
  "immutableReferences": {},
  "source": "// SPDX-License-Identifier: MIT\npragma solidity ^0.8.0;\n\nimport \"./WorkContract.sol\";\n\ncontract WorkContractFactory {\n\n\tmapping(address => address[]) workContracts;\n\t\t\n    WorkContract[] openContracts;\n\n    function getContractsForClient(address _user) \n        public\n        view\n        returns(address[] memory)\n    {\n        return workContracts[_user];\n    }\n\n    // TODO: parameters\n    function newContract(TypeOfWork typeOfWork)\n        payable\n        public\n        returns(address)\n    {\n        WorkContract workContract = new WorkContract(msg.sender, typeOfWork);\n        workContracts[msg.sender].push(address(workContract));\n\t\t\t\topenContracts.push(workContract);\n\n\t\t\t\temit ContractCreated(address(workContract));\n\t\t\t\treturn address(workContract); // Do I need this if I am emitting?\n    }\n\n\n\t function getOpenContracts() public view returns(WorkContract[] memory) {\n\t\t\treturn openContracts;\n\t }\n\n\t function assignWorker(WorkContract workContract, address payable _workerAddress) public {\n\t\t \tworkContract.assignWorker(_workerAddress);\n\n\t\t\t// remove from open contracts\n\t\t\tfor(uint i = 0; i < openContracts.length; i++) {\n\t\t\t\tif(address(openContracts[i]) == address(workContract)) { // is this safe?\n\t\t\t\t\tdelete openContracts[i];\n\t\t\t\t}\n\t\t\t}\n\n\t\t\t// TODO: event?\n\t }\n\n\n    event ContractCreated(address wallet);\n\n}",
  "sourcePath": "/Users/jakegny/Projects/guildhalls-hackathon/src/contracts/WorkContractFactory.sol",
  "compiler": {
    "name": "solc",
    "version": "0.8.13+commit.abaa5c0e.Emscripten.clang"
  },
  "schemaVersion": "3.4.6",
  "updatedAt": "2022-04-09T08:16:43.399Z",
  "networkType": "ethereum",
  "devdoc": {
    "kind": "dev",
    "methods": {},
    "version": 1
  },
  "userdoc": {
    "kind": "user",
    "methods": {},
    "version": 1
  }
}