{
  "contractName": "WorkContractFactory",
  "abi": [
    {
      "anonymous": false,
      "inputs": [
        {
          "indexed": false,
          "internalType": "address",
          "name": "wallet",
          "type": "address"
        }
      ],
      "name": "ContractCreated",
      "type": "event"
    },
    {
      "inputs": [
        {
          "internalType": "address",
          "name": "_user",
          "type": "address"
        }
      ],
      "name": "getContractsForClient",
      "outputs": [
        {
          "internalType": "address[]",
          "name": "",
          "type": "address[]"
        }
      ],
      "stateMutability": "view",
      "type": "function",
      "constant": true
    },
    {
      "inputs": [
        {
          "internalType": "enum TypeOfWork",
          "name": "typeOfWork",
          "type": "uint8"
        }
      ],
      "name": "newContract",
      "outputs": [
        {
          "internalType": "address",
          "name": "",
          "type": "address"
        }
      ],
      "stateMutability": "payable",
      "type": "function",
      "payable": true
    },
    {
      "inputs": [],
      "name": "getOpenContracts",
      "outputs": [
        {
          "internalType": "contract WorkContract[]",
          "name": "",
          "type": "address[]"
        }
      ],
      "stateMutability": "view",
      "type": "function",
      "constant": true
    },
    {
      "inputs": [
        {
          "internalType": "contract WorkContract",
          "name": "workContract",
          "type": "address"
        },
        {
          "internalType": "address payable",
          "name": "_workerAddress",
          "type": "address"
        }
      ],
      "name": "assignWorker",
      "outputs": [],
      "stateMutability": "nonpayable",
      "type": "function"
    }
  ],
  "bytecode": "0x608060405234801561001057600080fd5b50612dd6806100206000396000f3fe608060405260043610620000445760003560e01c8063304c41ae14620000495780633dfe03b8146200008d57806381c5dc3114620000bd578063fc6811c314620000f3575b600080fd5b3480156200005657600080fd5b506200007560048036038101906200006f9190620005d0565b62000121565b604051620000849190620006d0565b60405180910390f35b3480156200009a57600080fd5b50620000a5620001ef565b604051620000b491906200080b565b60405180910390f35b620000db6004803603810190620000d5919062000857565b6200027f565b604051620000ea91906200089a565b60405180910390f35b3480156200010057600080fd5b506200011f600480360381019062000119919062000941565b62000403565b005b60606000808373ffffffffffffffffffffffffffffffffffffffff1673ffffffffffffffffffffffffffffffffffffffff168152602001908152602001600020805480602002602001604051908101604052809291908181526020018280548015620001e357602002820191906000526020600020905b8160009054906101000a900473ffffffffffffffffffffffffffffffffffffffff1673ffffffffffffffffffffffffffffffffffffffff168152602001906001019080831162000198575b50505050509050919050565b606060018054806020026020016040519081016040528092919081815260200182805480156200027557602002820191906000526020600020905b8160009054906101000a900473ffffffffffffffffffffffffffffffffffffffff1673ffffffffffffffffffffffffffffffffffffffff16815260200190600101908083116200022a575b5050505050905090565b6000803383604051620002929062000558565b6200029f92919062000a08565b604051809103906000f080158015620002bc573d6000803e3d6000fd5b5090506000803373ffffffffffffffffffffffffffffffffffffffff1673ffffffffffffffffffffffffffffffffffffffff168152602001908152602001600020819080600181540180825580915050600190039060005260206000200160009091909190916101000a81548173ffffffffffffffffffffffffffffffffffffffff021916908373ffffffffffffffffffffffffffffffffffffffff1602179055506001819080600181540180825580915050600190039060005260206000200160009091909190916101000a81548173ffffffffffffffffffffffffffffffffffffffff021916908373ffffffffffffffffffffffffffffffffffffffff1602179055507fcf78cf0d6f3d8371e1075c69c492ab4ec5d8cf23a1a239b6a51a1d00be7ca31281604051620003f291906200089a565b60405180910390a180915050919050565b8173ffffffffffffffffffffffffffffffffffffffff16636edc2848826040518263ffffffff1660e01b81526004016200043e919062000a46565b600060405180830381600087803b1580156200045957600080fd5b505af11580156200046e573d6000803e3d6000fd5b5050505060005b60018054905081101562000553578273ffffffffffffffffffffffffffffffffffffffff1660018281548110620004b157620004b062000a63565b5b9060005260206000200160009054906101000a900473ffffffffffffffffffffffffffffffffffffffff1673ffffffffffffffffffffffffffffffffffffffff16036200053d57600181815481106200050f576200050e62000a63565b5b9060005260206000200160006101000a81549073ffffffffffffffffffffffffffffffffffffffff02191690555b80806200054a9062000acb565b91505062000475565b505050565b6122888062000b1983390190565b600080fd5b600073ffffffffffffffffffffffffffffffffffffffff82169050919050565b600062000598826200056b565b9050919050565b620005aa816200058b565b8114620005b657600080fd5b50565b600081359050620005ca816200059f565b92915050565b600060208284031215620005e957620005e862000566565b5b6000620005f984828501620005b9565b91505092915050565b600081519050919050565b600082825260208201905092915050565b6000819050602082019050919050565b62000639816200058b565b82525050565b60006200064d83836200062e565b60208301905092915050565b6000602082019050919050565b6000620006738262000602565b6200067f81856200060d565b93506200068c836200061e565b8060005b83811015620006c3578151620006a788826200063f565b9750620006b48362000659565b92505060018101905062000690565b5085935050505092915050565b60006020820190508181036000830152620006ec818462000666565b905092915050565b600081519050919050565b6000819050602082019050919050565b6000819050919050565b60006200073a620007346200072e846200056b565b6200070f565b6200056b565b9050919050565b60006200074e8262000719565b9050919050565b6000620007628262000741565b9050919050565b620007748162000755565b82525050565b600062000788838362000769565b60208301905092915050565b6000602082019050919050565b6000620007ae82620006f4565b620007ba81856200060d565b9350620007c783620006ff565b8060005b83811015620007fe578151620007e288826200077a565b9750620007ef8362000794565b925050600181019050620007cb565b5085935050505092915050565b60006020820190508181036000830152620008278184620007a1565b905092915050565b600481106200083d57600080fd5b50565b60008135905062000851816200082f565b92915050565b60006020828403121562000870576200086f62000566565b5b6000620008808482850162000840565b91505092915050565b62000894816200058b565b82525050565b6000602082019050620008b1600083018462000889565b92915050565b6000620008c4826200058b565b9050919050565b620008d681620008b7565b8114620008e257600080fd5b50565b600081359050620008f681620008cb565b92915050565b600062000909826200056b565b9050919050565b6200091b81620008fc565b81146200092757600080fd5b50565b6000813590506200093b8162000910565b92915050565b600080604083850312156200095b576200095a62000566565b5b60006200096b85828601620008e5565b92505060206200097e858286016200092a565b9150509250929050565b7f4e487b7100000000000000000000000000000000000000000000000000000000600052602160045260246000fd5b60048110620009cb57620009ca62000988565b5b50565b6000819050620009de82620009b7565b919050565b6000620009f082620009ce565b9050919050565b62000a0281620009e3565b82525050565b600060408201905062000a1f600083018562000889565b62000a2e6020830184620009f7565b9392505050565b62000a4081620008fc565b82525050565b600060208201905062000a5d600083018462000a35565b92915050565b7f4e487b7100000000000000000000000000000000000000000000000000000000600052603260045260246000fd5b7f4e487b7100000000000000000000000000000000000000000000000000000000600052601160045260246000fd5b6000819050919050565b600062000ad88262000ac1565b91507fffffffffffffffffffffffffffffffffffffffffffffffffffffffffffffffff820362000b0d5762000b0c62000a92565b5b60018201905091905056fe608060405260405180608001604052806040518060400160405280600a81526020017f454c454354524943414c0000000000000000000000000000000000000000000081525081526020016040518060400160405280600881526020017f504c554d42494e4700000000000000000000000000000000000000000000000081525081526020016040518060400160405280600b81526020017f50524f4752414d4d494e4700000000000000000000000000000000000000000081525081526020016040518060400160405280600581526020017f4f5448455200000000000000000000000000000000000000000000000000000081525081525060019060046200010b929190620001e2565b503480156200011957600080fd5b50604051620022883803806200228883398181016040528101906200013f9190620003f9565b81600260016101000a81548173ffffffffffffffffffffffffffffffffffffffff021916908373ffffffffffffffffffffffffffffffffffffffff16021790555080600260006101000a81548160ff02191690836003811115620001a857620001a762000440565b5b021790555060008060006101000a81548160ff02191690836007811115620001d557620001d462000440565b5b02179055505050620004d3565b82805482825590600052602060002090810192821562000236579160200282015b82811115620002355782518290805190602001906200022492919062000249565b509160200191906001019062000203565b5b509050620002459190620002da565b5090565b82805462000257906200049e565b90600052602060002090601f0160209004810192826200027b5760008555620002c7565b82601f106200029657805160ff1916838001178555620002c7565b82800160010185558215620002c7579182015b82811115620002c6578251825591602001919060010190620002a9565b5b509050620002d6919062000302565b5090565b5b80821115620002fe5760008181620002f4919062000321565b50600101620002db565b5090565b5b808211156200031d57600081600090555060010162000303565b5090565b5080546200032f906200049e565b6000825580601f1062000343575062000364565b601f01602090049060005260206000209081019062000363919062000302565b5b50565b600080fd5b600073ffffffffffffffffffffffffffffffffffffffff82169050919050565b600062000399826200036c565b9050919050565b620003ab816200038c565b8114620003b757600080fd5b50565b600081519050620003cb81620003a0565b92915050565b60048110620003df57600080fd5b50565b600081519050620003f381620003d1565b92915050565b6000806040838503121562000413576200041262000367565b5b60006200042385828601620003ba565b92505060206200043685828601620003e2565b9150509250929050565b7f4e487b7100000000000000000000000000000000000000000000000000000000600052602160045260246000fd5b7f4e487b7100000000000000000000000000000000000000000000000000000000600052602260045260246000fd5b60006002820490506001821680620004b757607f821691505b602082108103620004cd57620004cc6200046f565b5b50919050565b611da580620004e36000396000f3fe60806040526004361061011f5760003560e01c806387cf58d9116100a0578063ab467a5311610064578063ab467a53146102f5578063c0e929e71461031e578063c0fdf07b14610349578063d01583bc14610360578063f1a660151461039d5761011f565b806387cf58d914610276578063892642011461028d578063a54d50cc14610297578063a57848b6146102c0578063a72ad9a5146102ca5761011f565b80635600af12116100e75780635600af12146101d85780636ba74f17146102035780636edc28481461022c5780637212d2891461025557806379a9e3451461026c5761011f565b806324600fc314610124578063360215341461012e5780634010b84e14610159578063468b0277146101705780634e69d560146101ad575b600080fd5b61012c6103b4565b005b34801561013a57600080fd5b5061014361055e565b6040516101509190611470565b60405180910390f35b34801561016557600080fd5b5061016e61067c565b005b34801561017c57600080fd5b50610197600480360381019061019291906114cd565b610738565b6040516101a49190611593565b60405180910390f35b3480156101b957600080fd5b506101c26107e8565b6040516101cf919061162c565b60405180910390f35b3480156101e457600080fd5b506101ed6107fe565b6040516101fa919061168f565b60405180910390f35b34801561020f57600080fd5b5061022a600480360381019061022591906116d6565b610811565b005b34801561023857600080fd5b50610253600480360381019061024e9190611741565b610914565b005b34801561026157600080fd5b5061026a6109e8565b005b610274610a95565b005b34801561028257600080fd5b5061028b610c11565b005b610295610cc6565b005b3480156102a357600080fd5b506102be60048036038101906102b99190611793565b610e7c565b005b6102c8610fac565b005b3480156102d657600080fd5b506102df6110a3565b6040516102ec91906117cf565b60405180910390f35b34801561030157600080fd5b5061031c600480360381019061031791906114cd565b6110ad565b005b34801561032a57600080fd5b50610333611157565b6040516103409190611593565b60405180910390f35b34801561035557600080fd5b5061035e6111e9565b005b34801561036c57600080fd5b50610387600480360381019061038291906116d6565b61127b565b60405161039491906117cf565b60405180910390f35b3480156103a957600080fd5b506103b26112c4565b005b600360009054906101000a900473ffffffffffffffffffffffffffffffffffffffff1673ffffffffffffffffffffffffffffffffffffffff163373ffffffffffffffffffffffffffffffffffffffff1614610444576040517f08c379a000000000000000000000000000000000000000000000000000000000815260040161043b9061185c565b60405180910390fd5b34471015610487576040517f08c379a000000000000000000000000000000000000000000000000000000000815260040161047e906118ee565b60405180910390fd5b6000803373ffffffffffffffffffffffffffffffffffffffff166008546040516104b09061193f565b60006040518083038185875af1925050503d80600081146104ed576040519150601f19603f3d011682016040523d82523d6000602084013e6104f2565b606091505b509150915081610537576040517f08c379a000000000000000000000000000000000000000000000000000000000815260040161052e906119a0565b60405180910390fd5b60006008819055506000600960006101000a81548160ff0219169083151502179055505050565b6060600260019054906101000a900473ffffffffffffffffffffffffffffffffffffffff1673ffffffffffffffffffffffffffffffffffffffff163373ffffffffffffffffffffffffffffffffffffffff16146105f0576040517f08c379a00000000000000000000000000000000000000000000000000000000081526004016105e790611a32565b60405180910390fd5b600580548060200260200160405190810160405280929190818152602001828054801561067257602002820191906000526020600020905b8160009054906101000a900473ffffffffffffffffffffffffffffffffffffffff1673ffffffffffffffffffffffffffffffffffffffff1681526020019060010190808311610628575b5050505050905090565b600360009054906101000a900473ffffffffffffffffffffffffffffffffffffffff1673ffffffffffffffffffffffffffffffffffffffff163373ffffffffffffffffffffffffffffffffffffffff161461070c576040517f08c379a00000000000000000000000000000000000000000000000000000000081526004016107039061185c565b60405180910390fd5b60046000806101000a81548160ff02191690836007811115610731576107306115b5565b5b0217905550565b60606001828154811061074e5761074d611a52565b5b90600052602060002001805461076390611ab0565b80601f016020809104026020016040519081016040528092919081815260200182805461078f90611ab0565b80156107dc5780601f106107b1576101008083540402835291602001916107dc565b820191906000526020600020905b8154815290600101906020018083116107bf57829003601f168201915b50505050509050919050565b60008060009054906101000a900460ff16905090565b600260009054906101000a900460ff1681565b600260019054906101000a900473ffffffffffffffffffffffffffffffffffffffff1673ffffffffffffffffffffffffffffffffffffffff163373ffffffffffffffffffffffffffffffffffffffff16146108a1576040517f08c379a000000000000000000000000000000000000000000000000000000000815260040161089890611a32565b60405180910390fd5b600660008273ffffffffffffffffffffffffffffffffffffffff1673ffffffffffffffffffffffffffffffffffffffff1681526020019081526020016000205460078190555060016000806101000a81548160ff0219169083600781111561090c5761090b6115b5565b5b021790555050565b600260019054906101000a900473ffffffffffffffffffffffffffffffffffffffff1673ffffffffffffffffffffffffffffffffffffffff163373ffffffffffffffffffffffffffffffffffffffff16146109a4576040517f08c379a000000000000000000000000000000000000000000000000000000000815260040161099b90611a32565b60405180910390fd5b80600360006101000a81548173ffffffffffffffffffffffffffffffffffffffff021916908373ffffffffffffffffffffffffffffffffffffffff16021790555050565b600260019054906101000a900473ffffffffffffffffffffffffffffffffffffffff1673ffffffffffffffffffffffffffffffffffffffff163373ffffffffffffffffffffffffffffffffffffffff1614610a78576040517f08c379a0000000000000000000000000000000000000000000000000000000008152600401610a6f90611a32565b60405180910390fd5b6001600960006101000a81548160ff021916908315150217905550565b600260019054906101000a900473ffffffffffffffffffffffffffffffffffffffff1673ffffffffffffffffffffffffffffffffffffffff163373ffffffffffffffffffffffffffffffffffffffff1614610b25576040517f08c379a0000000000000000000000000000000000000000000000000000000008152600401610b1c90611a32565b60405180910390fd5b34600260019054906101000a900473ffffffffffffffffffffffffffffffffffffffff1673ffffffffffffffffffffffffffffffffffffffff16311015610ba1576040517f08c379a0000000000000000000000000000000000000000000000000000000008152600401610b9890611b53565b60405180910390fd5b6007543414610be5576040517f08c379a0000000000000000000000000000000000000000000000000000000008152600401610bdc90611bbf565b60405180910390fd5b60026000806101000a81548160ff02191690836007811115610c0a57610c096115b5565b5b0217905550565b600260019054906101000a900473ffffffffffffffffffffffffffffffffffffffff1673ffffffffffffffffffffffffffffffffffffffff163373ffffffffffffffffffffffffffffffffffffffff1614610ca1576040517f08c379a0000000000000000000000000000000000000000000000000000000008152600401610c9890611a32565b60405180910390fd5b60006008819055506000600960006101000a81548160ff021916908315150217905550565b600360009054906101000a900473ffffffffffffffffffffffffffffffffffffffff1673ffffffffffffffffffffffffffffffffffffffff163373ffffffffffffffffffffffffffffffffffffffff1614610d56576040517f08c379a0000000000000000000000000000000000000000000000000000000008152600401610d4d9061185c565b60405180910390fd5b60056007811115610d6a57610d696115b5565b5b60008054906101000a900460ff166007811115610d8a57610d896115b5565b5b14610dca576040517f08c379a0000000000000000000000000000000000000000000000000000000008152600401610dc190611c51565b60405180910390fd5b6000803373ffffffffffffffffffffffffffffffffffffffff1647604051610df19061193f565b60006040518083038185875af1925050503d8060008114610e2e576040519150601f19603f3d011682016040523d82523d6000602084013e610e33565b606091505b509150915081610e78576040517f08c379a0000000000000000000000000000000000000000000000000000000008152600401610e6f906119a0565b60405180910390fd5b5050565b600260019054906101000a900473ffffffffffffffffffffffffffffffffffffffff1673ffffffffffffffffffffffffffffffffffffffff163373ffffffffffffffffffffffffffffffffffffffff1614610f0c576040517f08c379a0000000000000000000000000000000000000000000000000000000008152600401610f0390611a32565b60405180910390fd5b60046007811115610f2057610f1f6115b5565b5b60008054906101000a900460ff166007811115610f4057610f3f6115b5565b5b03610f80576040517f08c379a0000000000000000000000000000000000000000000000000000000008152600401610f7790611cbd565b60405180910390fd5b806000806101000a81548160ff02191690836007811115610fa457610fa36115b5565b5b021790555050565b600360009054906101000a900473ffffffffffffffffffffffffffffffffffffffff1673ffffffffffffffffffffffffffffffffffffffff163373ffffffffffffffffffffffffffffffffffffffff161461103c576040517f08c379a00000000000000000000000000000000000000000000000000000000081526004016110339061185c565b60405180910390fd5b3447101561107f576040517f08c379a000000000000000000000000000000000000000000000000000000000815260040161107690611d4f565b60405180910390fd5b6000600960006101000a81548160ff02191690831515021790555034600881905550565b6000600854905090565b6005339080600181540180825580915050600190039060005260206000200160009091909190916101000a81548173ffffffffffffffffffffffffffffffffffffffff021916908373ffffffffffffffffffffffffffffffffffffffff16021790555080600660003373ffffffffffffffffffffffffffffffffffffffff1673ffffffffffffffffffffffffffffffffffffffff1681526020019081526020016000208190555050565b60606004805461116690611ab0565b80601f016020809104026020016040519081016040528092919081815260200182805461119290611ab0565b80156111df5780601f106111b4576101008083540402835291602001916111df565b820191906000526020600020905b8154815290600101906020018083116111c257829003601f168201915b5050505050905090565b600260019054906101000a900473ffffffffffffffffffffffffffffffffffffffff1673ffffffffffffffffffffffffffffffffffffffff163373ffffffffffffffffffffffffffffffffffffffff1614611279576040517f08c379a000000000000000000000000000000000000000000000000000000000815260040161127090611a32565b60405180910390fd5b565b6000600660008373ffffffffffffffffffffffffffffffffffffffff1673ffffffffffffffffffffffffffffffffffffffff168152602001908152602001600020549050919050565b600360009054906101000a900473ffffffffffffffffffffffffffffffffffffffff1673ffffffffffffffffffffffffffffffffffffffff163373ffffffffffffffffffffffffffffffffffffffff1614611354576040517f08c379a000000000000000000000000000000000000000000000000000000000815260040161134b9061185c565b60405180910390fd5b60026000806101000a81548160ff02191690836007811115611379576113786115b5565b5b0217905550565b600081519050919050565b600082825260208201905092915050565b6000819050602082019050919050565b600073ffffffffffffffffffffffffffffffffffffffff82169050919050565b60006113d7826113ac565b9050919050565b6113e7816113cc565b82525050565b60006113f983836113de565b60208301905092915050565b6000602082019050919050565b600061141d82611380565b611427818561138b565b93506114328361139c565b8060005b8381101561146357815161144a88826113ed565b975061145583611405565b925050600181019050611436565b5085935050505092915050565b6000602082019050818103600083015261148a8184611412565b905092915050565b600080fd5b6000819050919050565b6114aa81611497565b81146114b557600080fd5b50565b6000813590506114c7816114a1565b92915050565b6000602082840312156114e3576114e2611492565b5b60006114f1848285016114b8565b91505092915050565b600081519050919050565b600082825260208201905092915050565b60005b83811015611534578082015181840152602081019050611519565b83811115611543576000848401525b50505050565b6000601f19601f8301169050919050565b6000611565826114fa565b61156f8185611505565b935061157f818560208601611516565b61158881611549565b840191505092915050565b600060208201905081810360008301526115ad818461155a565b905092915050565b7f4e487b7100000000000000000000000000000000000000000000000000000000600052602160045260246000fd5b600881106115f5576115f46115b5565b5b50565b6000819050611606826115e4565b919050565b6000611616826115f8565b9050919050565b6116268161160b565b82525050565b6000602082019050611641600083018461161d565b92915050565b60048110611658576116576115b5565b5b50565b600081905061166982611647565b919050565b60006116798261165b565b9050919050565b6116898161166e565b82525050565b60006020820190506116a46000830184611680565b92915050565b6116b3816113cc565b81146116be57600080fd5b50565b6000813590506116d0816116aa565b92915050565b6000602082840312156116ec576116eb611492565b5b60006116fa848285016116c1565b91505092915050565b600061170e826113ac565b9050919050565b61171e81611703565b811461172957600080fd5b50565b60008135905061173b81611715565b92915050565b60006020828403121561175757611756611492565b5b60006117658482850161172c565b91505092915050565b6008811061177b57600080fd5b50565b60008135905061178d8161176e565b92915050565b6000602082840312156117a9576117a8611492565b5b60006117b78482850161177e565b91505092915050565b6117c981611497565b82525050565b60006020820190506117e460008301846117c0565b92915050565b7f4f6e6c792074686520616363657074656420776f726b65722063616e2070657260008201527f666f726d2074686973206f7065726174696f6e00000000000000000000000000602082015250565b6000611846603383611505565b9150611851826117ea565b604082019050919050565b6000602082019050818103600083015261187581611839565b9050919050565b7f436f6e747261637420646f6573206e6f7420686176652073756666696369656e60008201527f742066756e647320666f722077697468647261772e0000000000000000000000602082015250565b60006118d8603583611505565b91506118e38261187c565b604082019050919050565b60006020820190508181036000830152611907816118cb565b9050919050565b600081905092915050565b50565b600061192960008361190e565b915061193482611919565b600082019050919050565b600061194a8261191c565b9150819050919050565b7f4661696c656420746f2073656e64204574686572000000000000000000000000600082015250565b600061198a601483611505565b915061199582611954565b602082019050919050565b600060208201905081810360008301526119b98161197d565b9050919050565b7f4f6e6c792074686520636c69656e742063616e20706572666f726d207468697360008201527f206f7065726174696f6e00000000000000000000000000000000000000000000602082015250565b6000611a1c602a83611505565b9150611a27826119c0565b604082019050919050565b60006020820190508181036000830152611a4b81611a0f565b9050919050565b7f4e487b7100000000000000000000000000000000000000000000000000000000600052603260045260246000fd5b7f4e487b7100000000000000000000000000000000000000000000000000000000600052602260045260246000fd5b60006002820490506001821680611ac857607f821691505b602082108103611adb57611ada611a81565b5b50919050565b7f436c69656e7420646f6573206e6f74206861766520656e6f756768206c69717560008201527f696469747920746f20737461727420776f726b2e000000000000000000000000602082015250565b6000611b3d603483611505565b9150611b4882611ae1565b604082019050919050565b60006020820190508181036000830152611b6c81611b30565b9050919050565b7f56616c756520646f6573206e6f74206d61746368206269642e00000000000000600082015250565b6000611ba9601983611505565b9150611bb482611b73565b602082019050919050565b60006020820190508181036000830152611bd881611b9c565b9050919050565b7f436c69656e7420686173206e6f74206d61726b656420776f726b20617320636f60008201527f6d706c6574650000000000000000000000000000000000000000000000000000602082015250565b6000611c3b602683611505565b9150611c4682611bdf565b604082019050919050565b60006020820190508181036000830152611c6a81611c2e565b9050919050565b7f5468697320636f6e7472616374206973206265696e672064697370757465642e600082015250565b6000611ca7602083611505565b9150611cb282611c71565b602082019050919050565b60006020820190508181036000830152611cd681611c9a565b9050919050565b7f436f6e747261637420646f6573206e6f7420686176652073756666696369656e60008201527f742066756e647320666f7220647261772e000000000000000000000000000000602082015250565b6000611d39603183611505565b9150611d4482611cdd565b604082019050919050565b60006020820190508181036000830152611d6881611d2c565b905091905056fea264697066735822122045f590fd1df721b6c7a261342cf8bf46d2ee91bac320ff82c44d261616a7b25d64736f6c634300080d0033a2646970667358221220bc7fc1c158abc631c277ffa57a9f099d76143db7948ed7cce4570a3a18a2b26864736f6c634300080d0033",
  "immutableReferences": {},
  "source": "// SPDX-License-Identifier: MIT\npragma solidity ^0.8.0;\n\nimport \"./WorkContract.sol\";\n\ncontract WorkContractFactory {\n\n\tmapping(address => address[]) workContracts;\n\t\t\n    WorkContract[] openContracts;\n\n    function getContractsForClient(address _user) \n        public\n        view\n        returns(address[] memory)\n    {\n        return workContracts[_user];\n    }\n\n    // TODO: parameters\n    function newContract(TypeOfWork typeOfWork)\n        payable\n        public\n        returns(address)\n    {\n        WorkContract workContract = new WorkContract(msg.sender, typeOfWork);\n        workContracts[msg.sender].push(address(workContract));\n\t\t\t\topenContracts.push(workContract);\n\n\t\t\t\temit ContractCreated(address(workContract));\n\t\t\t\treturn address(workContract); // Do I need this if I am emitting?\n    }\n\n\n\t function getOpenContracts() public view returns(WorkContract[] memory) {\n\t\t\treturn openContracts;\n\t }\n\n\t function assignWorker(WorkContract workContract, address payable _workerAddress) public {\n\t\t \tworkContract.assignWorker(_workerAddress);\n\n\t\t\t// remove from open contracts\n\t\t\tfor(uint i = 0; i < openContracts.length; i++) {\n\t\t\t\tif(address(openContracts[i]) == address(workContract)) { // is this safe?\n\t\t\t\t\tdelete openContracts[i];\n\t\t\t\t}\n\t\t\t}\n\n\t\t\t// TODO: event?\n\t }\n\n\n    event ContractCreated(address wallet);\n\n}",
  "sourcePath": "/Users/jakegny/Projects/guildhalls-hackathon/src/contracts/WorkContractFactory.sol",
  "compiler": {
    "name": "solc",
    "version": "0.8.13+commit.abaa5c0e.Emscripten.clang"
  },
  "schemaVersion": "3.4.6",
  "updatedAt": "2022-04-09T15:13:09.257Z",
  "networkType": "ethereum",
  "devdoc": {
    "kind": "dev",
    "methods": {},
    "version": 1
  },
  "userdoc": {
    "kind": "user",
    "methods": {},
    "version": 1
  }
}