{
  "contractName": "WorkContractFactory",
  "abi": [
    {
      "anonymous": false,
      "inputs": [
        {
          "indexed": false,
          "internalType": "address",
          "name": "wallet",
          "type": "address"
        }
      ],
      "name": "ContractCreated",
      "type": "event"
    },
    {
      "inputs": [
        {
          "internalType": "address",
          "name": "_user",
          "type": "address"
        }
      ],
      "name": "getContractsForClient",
      "outputs": [
        {
          "internalType": "address[]",
          "name": "",
          "type": "address[]"
        }
      ],
      "stateMutability": "view",
      "type": "function",
      "constant": true
    },
    {
      "inputs": [
        {
          "internalType": "enum TypeOfWork",
          "name": "typeOfWork",
          "type": "uint8"
        }
      ],
      "name": "newContract",
      "outputs": [
        {
          "internalType": "address",
          "name": "",
          "type": "address"
        }
      ],
      "stateMutability": "payable",
      "type": "function",
      "payable": true
    },
    {
      "inputs": [],
      "name": "getOpenContracts",
      "outputs": [
        {
          "internalType": "contract WorkContract[]",
          "name": "",
          "type": "address[]"
        }
      ],
      "stateMutability": "view",
      "type": "function",
      "constant": true
    },
    {
      "inputs": [
        {
          "internalType": "contract WorkContract",
          "name": "workContract",
          "type": "address"
        },
        {
          "internalType": "address payable",
          "name": "_workerAddress",
          "type": "address"
        }
      ],
      "name": "delistContract",
      "outputs": [],
      "stateMutability": "nonpayable",
      "type": "function"
    }
  ],
  "bytecode": "0x608060405234801561001057600080fd5b50612f84806100206000396000f3fe608060405260043610620000445760003560e01c80630a07e48e1462000049578063304c41ae14620000775780633dfe03b814620000bb57806381c5dc3114620000eb575b600080fd5b3480156200005657600080fd5b506200007560048036038101906200006f9190620005ba565b62000121565b005b3480156200008457600080fd5b50620000a360048036038101906200009d919062000632565b62000207565b604051620000b2919062000732565b60405180910390f35b348015620000c857600080fd5b50620000d3620002d5565b604051620000e291906200086d565b60405180910390f35b620001096004803603810190620001039190620008b9565b62000365565b604051620001189190620008fc565b60405180910390f35b60005b60018054905081101562000202578273ffffffffffffffffffffffffffffffffffffffff166001828154811062000160576200015f62000919565b5b9060005260206000200160009054906101000a900473ffffffffffffffffffffffffffffffffffffffff1673ffffffffffffffffffffffffffffffffffffffff1603620001ec5760018181548110620001be57620001bd62000919565b5b9060005260206000200160006101000a81549073ffffffffffffffffffffffffffffffffffffffff02191690555b8080620001f99062000981565b91505062000124565b505050565b60606000808373ffffffffffffffffffffffffffffffffffffffff1673ffffffffffffffffffffffffffffffffffffffff168152602001908152602001600020805480602002602001604051908101604052809291908181526020018280548015620002c957602002820191906000526020600020905b8160009054906101000a900473ffffffffffffffffffffffffffffffffffffffff1673ffffffffffffffffffffffffffffffffffffffff16815260200190600101908083116200027e575b50505050509050919050565b606060018054806020026020016040519081016040528092919081815260200182805480156200035b57602002820191906000526020600020905b8160009054906101000a900473ffffffffffffffffffffffffffffffffffffffff1673ffffffffffffffffffffffffffffffffffffffff168152602001906001019080831162000310575b5050505050905090565b60008033836040516200037890620004e9565b6200038592919062000a4e565b604051809103906000f080158015620003a2573d6000803e3d6000fd5b5090506000803373ffffffffffffffffffffffffffffffffffffffff1673ffffffffffffffffffffffffffffffffffffffff168152602001908152602001600020819080600181540180825580915050600190039060005260206000200160009091909190916101000a81548173ffffffffffffffffffffffffffffffffffffffff021916908373ffffffffffffffffffffffffffffffffffffffff1602179055506001819080600181540180825580915050600190039060005260206000200160009091909190916101000a81548173ffffffffffffffffffffffffffffffffffffffff021916908373ffffffffffffffffffffffffffffffffffffffff1602179055507fcf78cf0d6f3d8371e1075c69c492ab4ec5d8cf23a1a239b6a51a1d00be7ca31281604051620004d89190620008fc565b60405180910390a180915050919050565b6124d38062000a7c83390190565b600080fd5b600073ffffffffffffffffffffffffffffffffffffffff82169050919050565b60006200052982620004fc565b9050919050565b60006200053d826200051c565b9050919050565b6200054f8162000530565b81146200055b57600080fd5b50565b6000813590506200056f8162000544565b92915050565b60006200058282620004fc565b9050919050565b620005948162000575565b8114620005a057600080fd5b50565b600081359050620005b48162000589565b92915050565b60008060408385031215620005d457620005d3620004f7565b5b6000620005e4858286016200055e565b9250506020620005f785828601620005a3565b9150509250929050565b6200060c816200051c565b81146200061857600080fd5b50565b6000813590506200062c8162000601565b92915050565b6000602082840312156200064b576200064a620004f7565b5b60006200065b848285016200061b565b91505092915050565b600081519050919050565b600082825260208201905092915050565b6000819050602082019050919050565b6200069b816200051c565b82525050565b6000620006af838362000690565b60208301905092915050565b6000602082019050919050565b6000620006d58262000664565b620006e181856200066f565b9350620006ee8362000680565b8060005b8381101562000725578151620007098882620006a1565b97506200071683620006bb565b925050600181019050620006f2565b5085935050505092915050565b600060208201905081810360008301526200074e8184620006c8565b905092915050565b600081519050919050565b6000819050602082019050919050565b6000819050919050565b60006200079c620007966200079084620004fc565b62000771565b620004fc565b9050919050565b6000620007b0826200077b565b9050919050565b6000620007c482620007a3565b9050919050565b620007d681620007b7565b82525050565b6000620007ea8383620007cb565b60208301905092915050565b6000602082019050919050565b6000620008108262000756565b6200081c81856200066f565b9350620008298362000761565b8060005b8381101562000860578151620008448882620007dc565b97506200085183620007f6565b9250506001810190506200082d565b5085935050505092915050565b6000602082019050818103600083015262000889818462000803565b905092915050565b600481106200089f57600080fd5b50565b600081359050620008b38162000891565b92915050565b600060208284031215620008d257620008d1620004f7565b5b6000620008e284828501620008a2565b91505092915050565b620008f6816200051c565b82525050565b6000602082019050620009136000830184620008eb565b92915050565b7f4e487b7100000000000000000000000000000000000000000000000000000000600052603260045260246000fd5b7f4e487b7100000000000000000000000000000000000000000000000000000000600052601160045260246000fd5b6000819050919050565b60006200098e8262000977565b91507fffffffffffffffffffffffffffffffffffffffffffffffffffffffffffffffff8203620009c357620009c262000948565b5b600182019050919050565b7f4e487b7100000000000000000000000000000000000000000000000000000000600052602160045260246000fd5b6004811062000a115762000a10620009ce565b5b50565b600081905062000a2482620009fd565b919050565b600062000a368262000a14565b9050919050565b62000a488162000a29565b82525050565b600060408201905062000a656000830185620008eb565b62000a74602083018462000a3d565b939250505056fe608060405260405180608001604052806040518060400160405280600a81526020017f454c454354524943414c0000000000000000000000000000000000000000000081525081526020016040518060400160405280600881526020017f504c554d42494e4700000000000000000000000000000000000000000000000081525081526020016040518060400160405280600b81526020017f50524f4752414d4d494e4700000000000000000000000000000000000000000081525081526020016040518060400160405280600581526020017f4f5448455200000000000000000000000000000000000000000000000000000081525081525060019060046200010b929190620001e2565b503480156200011957600080fd5b50604051620024d3380380620024d383398181016040528101906200013f9190620003f9565b81600260016101000a81548173ffffffffffffffffffffffffffffffffffffffff021916908373ffffffffffffffffffffffffffffffffffffffff16021790555080600260006101000a81548160ff02191690836003811115620001a857620001a762000440565b5b021790555060008060006101000a81548160ff02191690836007811115620001d557620001d462000440565b5b02179055505050620004d3565b82805482825590600052602060002090810192821562000236579160200282015b82811115620002355782518290805190602001906200022492919062000249565b509160200191906001019062000203565b5b509050620002459190620002da565b5090565b82805462000257906200049e565b90600052602060002090601f0160209004810192826200027b5760008555620002c7565b82601f106200029657805160ff1916838001178555620002c7565b82800160010185558215620002c7579182015b82811115620002c6578251825591602001919060010190620002a9565b5b509050620002d6919062000302565b5090565b5b80821115620002fe5760008181620002f4919062000321565b50600101620002db565b5090565b5b808211156200031d57600081600090555060010162000303565b5090565b5080546200032f906200049e565b6000825580601f1062000343575062000364565b601f01602090049060005260206000209081019062000363919062000302565b5b50565b600080fd5b600073ffffffffffffffffffffffffffffffffffffffff82169050919050565b600062000399826200036c565b9050919050565b620003ab816200038c565b8114620003b757600080fd5b50565b600081519050620003cb81620003a0565b92915050565b60048110620003df57600080fd5b50565b600081519050620003f381620003d1565b92915050565b6000806040838503121562000413576200041262000367565b5b60006200042385828601620003ba565b92505060206200043685828601620003e2565b9150509250929050565b7f4e487b7100000000000000000000000000000000000000000000000000000000600052602160045260246000fd5b7f4e487b7100000000000000000000000000000000000000000000000000000000600052602260045260246000fd5b60006002820490506001821680620004b757607f821691505b602082108103620004cd57620004cc6200046f565b5b50919050565b611ff080620004e36000396000f3fe6080604052600436106101355760003560e01c80638239ca72116100ab578063a72ad9a51161006f578063a72ad9a514610336578063ab467a5314610361578063c0e929e71461038a578063c0fdf07b146103b5578063d01583bc146103cc578063f1a660151461040957610135565b80638239ca72146102b757806387cf58d9146102e257806389264201146102f9578063a54d50cc14610303578063a57848b61461032c57610135565b80635600af12116100fd5780635600af12146101ee57806367eaeddb146102195780636ba74f17146102445780636edc28481461026d5780637212d2891461029657806379a9e345146102ad57610135565b806324600fc31461013a57806336021534146101445780634010b84e1461016f578063468b0277146101865780634e69d560146101c3575b600080fd5b610142610420565b005b34801561015057600080fd5b506101596105ca565b6040516101669190611691565b60405180910390f35b34801561017b57600080fd5b506101846106e8565b005b34801561019257600080fd5b506101ad60048036038101906101a891906116ee565b6107a4565b6040516101ba91906117b4565b60405180910390f35b3480156101cf57600080fd5b506101d8610854565b6040516101e5919061184d565b60405180910390f35b3480156101fa57600080fd5b5061020361086a565b60405161021091906118b0565b60405180910390f35b34801561022557600080fd5b5061022e61087d565b60405161023b91906118da565b60405180910390f35b34801561025057600080fd5b5061026b60048036038101906102669190611921565b6108a7565b005b34801561027957600080fd5b50610294600480360381019061028f919061198c565b6109eb565b005b3480156102a257600080fd5b506102ab610abf565b005b6102b5610b6c565b005b3480156102c357600080fd5b506102cc610ce8565b6040516102d991906118da565b60405180910390f35b3480156102ee57600080fd5b506102f7610da2565b005b610301610e57565b005b34801561030f57600080fd5b5061032a600480360381019061032591906119de565b61100d565b005b61033461113d565b005b34801561034257600080fd5b5061034b611234565b6040516103589190611a1a565b60405180910390f35b34801561036d57600080fd5b50610388600480360381019061038391906116ee565b61123e565b005b34801561039657600080fd5b5061039f6112e8565b6040516103ac91906117b4565b60405180910390f35b3480156103c157600080fd5b506103ca61137a565b005b3480156103d857600080fd5b506103f360048036038101906103ee9190611921565b61140c565b6040516104009190611a1a565b60405180910390f35b34801561041557600080fd5b5061041e6114e5565b005b600360009054906101000a900473ffffffffffffffffffffffffffffffffffffffff1673ffffffffffffffffffffffffffffffffffffffff163373ffffffffffffffffffffffffffffffffffffffff16146104b0576040517f08c379a00000000000000000000000000000000000000000000000000000000081526004016104a790611aa7565b60405180910390fd5b344710156104f3576040517f08c379a00000000000000000000000000000000000000000000000000000000081526004016104ea90611b39565b60405180910390fd5b6000803373ffffffffffffffffffffffffffffffffffffffff1660095460405161051c90611b8a565b60006040518083038185875af1925050503d8060008114610559576040519150601f19603f3d011682016040523d82523d6000602084013e61055e565b606091505b5091509150816105a3576040517f08c379a000000000000000000000000000000000000000000000000000000000815260040161059a90611beb565b60405180910390fd5b60006009819055506000600a60006101000a81548160ff0219169083151502179055505050565b6060600260019054906101000a900473ffffffffffffffffffffffffffffffffffffffff1673ffffffffffffffffffffffffffffffffffffffff163373ffffffffffffffffffffffffffffffffffffffff161461065c576040517f08c379a000000000000000000000000000000000000000000000000000000000815260040161065390611c7d565b60405180910390fd5b60058054806020026020016040519081016040528092919081815260200182805480156106de57602002820191906000526020600020905b8160009054906101000a900473ffffffffffffffffffffffffffffffffffffffff1673ffffffffffffffffffffffffffffffffffffffff1681526020019060010190808311610694575b5050505050905090565b600360009054906101000a900473ffffffffffffffffffffffffffffffffffffffff1673ffffffffffffffffffffffffffffffffffffffff163373ffffffffffffffffffffffffffffffffffffffff1614610778576040517f08c379a000000000000000000000000000000000000000000000000000000000815260040161076f90611aa7565b60405180910390fd5b60046000806101000a81548160ff0219169083600781111561079d5761079c6117d6565b5b0217905550565b6060600182815481106107ba576107b9611c9d565b5b9060005260206000200180546107cf90611cfb565b80601f01602080910402602001604051908101604052809291908181526020018280546107fb90611cfb565b80156108485780601f1061081d57610100808354040283529160200191610848565b820191906000526020600020905b81548152906001019060200180831161082b57829003601f168201915b50505050509050919050565b60008060009054906101000a900460ff16905090565b600260009054906101000a900460ff1681565b6000600360009054906101000a900473ffffffffffffffffffffffffffffffffffffffff16905090565b600260019054906101000a900473ffffffffffffffffffffffffffffffffffffffff1673ffffffffffffffffffffffffffffffffffffffff163373ffffffffffffffffffffffffffffffffffffffff1614610937576040517f08c379a000000000000000000000000000000000000000000000000000000000815260040161092e90611c7d565b60405180910390fd5b600660008273ffffffffffffffffffffffffffffffffffffffff1673ffffffffffffffffffffffffffffffffffffffff1681526020019081526020016000205460078190555080600860006101000a81548173ffffffffffffffffffffffffffffffffffffffff021916908373ffffffffffffffffffffffffffffffffffffffff16021790555060016000806101000a81548160ff021916908360078111156109e3576109e26117d6565b5b021790555050565b600260019054906101000a900473ffffffffffffffffffffffffffffffffffffffff1673ffffffffffffffffffffffffffffffffffffffff163373ffffffffffffffffffffffffffffffffffffffff1614610a7b576040517f08c379a0000000000000000000000000000000000000000000000000000000008152600401610a7290611c7d565b60405180910390fd5b80600360006101000a81548173ffffffffffffffffffffffffffffffffffffffff021916908373ffffffffffffffffffffffffffffffffffffffff16021790555050565b600260019054906101000a900473ffffffffffffffffffffffffffffffffffffffff1673ffffffffffffffffffffffffffffffffffffffff163373ffffffffffffffffffffffffffffffffffffffff1614610b4f576040517f08c379a0000000000000000000000000000000000000000000000000000000008152600401610b4690611c7d565b60405180910390fd5b6001600a60006101000a81548160ff021916908315150217905550565b600260019054906101000a900473ffffffffffffffffffffffffffffffffffffffff1673ffffffffffffffffffffffffffffffffffffffff163373ffffffffffffffffffffffffffffffffffffffff1614610bfc576040517f08c379a0000000000000000000000000000000000000000000000000000000008152600401610bf390611c7d565b60405180910390fd5b34600260019054906101000a900473ffffffffffffffffffffffffffffffffffffffff1673ffffffffffffffffffffffffffffffffffffffff16311015610c78576040517f08c379a0000000000000000000000000000000000000000000000000000000008152600401610c6f90611d9e565b60405180910390fd5b6007543414610cbc576040517f08c379a0000000000000000000000000000000000000000000000000000000008152600401610cb390611e0a565b60405180910390fd5b60026000806101000a81548160ff02191690836007811115610ce157610ce06117d6565b5b0217905550565b6000600260019054906101000a900473ffffffffffffffffffffffffffffffffffffffff1673ffffffffffffffffffffffffffffffffffffffff163373ffffffffffffffffffffffffffffffffffffffff1614610d7a576040517f08c379a0000000000000000000000000000000000000000000000000000000008152600401610d7190611c7d565b60405180910390fd5b600860009054906101000a900473ffffffffffffffffffffffffffffffffffffffff16905090565b600260019054906101000a900473ffffffffffffffffffffffffffffffffffffffff1673ffffffffffffffffffffffffffffffffffffffff163373ffffffffffffffffffffffffffffffffffffffff1614610e32576040517f08c379a0000000000000000000000000000000000000000000000000000000008152600401610e2990611c7d565b60405180910390fd5b60006009819055506000600a60006101000a81548160ff021916908315150217905550565b600360009054906101000a900473ffffffffffffffffffffffffffffffffffffffff1673ffffffffffffffffffffffffffffffffffffffff163373ffffffffffffffffffffffffffffffffffffffff1614610ee7576040517f08c379a0000000000000000000000000000000000000000000000000000000008152600401610ede90611aa7565b60405180910390fd5b60056007811115610efb57610efa6117d6565b5b60008054906101000a900460ff166007811115610f1b57610f1a6117d6565b5b14610f5b576040517f08c379a0000000000000000000000000000000000000000000000000000000008152600401610f5290611e9c565b60405180910390fd5b6000803373ffffffffffffffffffffffffffffffffffffffff1647604051610f8290611b8a565b60006040518083038185875af1925050503d8060008114610fbf576040519150601f19603f3d011682016040523d82523d6000602084013e610fc4565b606091505b509150915081611009576040517f08c379a000000000000000000000000000000000000000000000000000000000815260040161100090611beb565b60405180910390fd5b5050565b600260019054906101000a900473ffffffffffffffffffffffffffffffffffffffff1673ffffffffffffffffffffffffffffffffffffffff163373ffffffffffffffffffffffffffffffffffffffff161461109d576040517f08c379a000000000000000000000000000000000000000000000000000000000815260040161109490611c7d565b60405180910390fd5b600460078111156110b1576110b06117d6565b5b60008054906101000a900460ff1660078111156110d1576110d06117d6565b5b03611111576040517f08c379a000000000000000000000000000000000000000000000000000000000815260040161110890611f08565b60405180910390fd5b806000806101000a81548160ff02191690836007811115611135576111346117d6565b5b021790555050565b600360009054906101000a900473ffffffffffffffffffffffffffffffffffffffff1673ffffffffffffffffffffffffffffffffffffffff163373ffffffffffffffffffffffffffffffffffffffff16146111cd576040517f08c379a00000000000000000000000000000000000000000000000000000000081526004016111c490611aa7565b60405180910390fd5b34471015611210576040517f08c379a000000000000000000000000000000000000000000000000000000000815260040161120790611f9a565b60405180910390fd5b6000600a60006101000a81548160ff02191690831515021790555034600981905550565b6000600954905090565b6005339080600181540180825580915050600190039060005260206000200160009091909190916101000a81548173ffffffffffffffffffffffffffffffffffffffff021916908373ffffffffffffffffffffffffffffffffffffffff16021790555080600660003373ffffffffffffffffffffffffffffffffffffffff1673ffffffffffffffffffffffffffffffffffffffff1681526020019081526020016000208190555050565b6060600480546112f790611cfb565b80601f016020809104026020016040519081016040528092919081815260200182805461132390611cfb565b80156113705780601f1061134557610100808354040283529160200191611370565b820191906000526020600020905b81548152906001019060200180831161135357829003601f168201915b5050505050905090565b600260019054906101000a900473ffffffffffffffffffffffffffffffffffffffff1673ffffffffffffffffffffffffffffffffffffffff163373ffffffffffffffffffffffffffffffffffffffff161461140a576040517f08c379a000000000000000000000000000000000000000000000000000000000815260040161140190611c7d565b60405180910390fd5b565b6000600260019054906101000a900473ffffffffffffffffffffffffffffffffffffffff1673ffffffffffffffffffffffffffffffffffffffff163373ffffffffffffffffffffffffffffffffffffffff161461149e576040517f08c379a000000000000000000000000000000000000000000000000000000000815260040161149590611c7d565b60405180910390fd5b600660008373ffffffffffffffffffffffffffffffffffffffff1673ffffffffffffffffffffffffffffffffffffffff168152602001908152602001600020549050919050565b600360009054906101000a900473ffffffffffffffffffffffffffffffffffffffff1673ffffffffffffffffffffffffffffffffffffffff163373ffffffffffffffffffffffffffffffffffffffff1614611575576040517f08c379a000000000000000000000000000000000000000000000000000000000815260040161156c90611aa7565b60405180910390fd5b60026000806101000a81548160ff0219169083600781111561159a576115996117d6565b5b0217905550565b600081519050919050565b600082825260208201905092915050565b6000819050602082019050919050565b600073ffffffffffffffffffffffffffffffffffffffff82169050919050565b60006115f8826115cd565b9050919050565b611608816115ed565b82525050565b600061161a83836115ff565b60208301905092915050565b6000602082019050919050565b600061163e826115a1565b61164881856115ac565b9350611653836115bd565b8060005b8381101561168457815161166b888261160e565b975061167683611626565b925050600181019050611657565b5085935050505092915050565b600060208201905081810360008301526116ab8184611633565b905092915050565b600080fd5b6000819050919050565b6116cb816116b8565b81146116d657600080fd5b50565b6000813590506116e8816116c2565b92915050565b600060208284031215611704576117036116b3565b5b6000611712848285016116d9565b91505092915050565b600081519050919050565b600082825260208201905092915050565b60005b8381101561175557808201518184015260208101905061173a565b83811115611764576000848401525b50505050565b6000601f19601f8301169050919050565b60006117868261171b565b6117908185611726565b93506117a0818560208601611737565b6117a98161176a565b840191505092915050565b600060208201905081810360008301526117ce818461177b565b905092915050565b7f4e487b7100000000000000000000000000000000000000000000000000000000600052602160045260246000fd5b60088110611816576118156117d6565b5b50565b600081905061182782611805565b919050565b600061183782611819565b9050919050565b6118478161182c565b82525050565b6000602082019050611862600083018461183e565b92915050565b60048110611879576118786117d6565b5b50565b600081905061188a82611868565b919050565b600061189a8261187c565b9050919050565b6118aa8161188f565b82525050565b60006020820190506118c560008301846118a1565b92915050565b6118d4816115ed565b82525050565b60006020820190506118ef60008301846118cb565b92915050565b6118fe816115ed565b811461190957600080fd5b50565b60008135905061191b816118f5565b92915050565b600060208284031215611937576119366116b3565b5b60006119458482850161190c565b91505092915050565b6000611959826115cd565b9050919050565b6119698161194e565b811461197457600080fd5b50565b60008135905061198681611960565b92915050565b6000602082840312156119a2576119a16116b3565b5b60006119b084828501611977565b91505092915050565b600881106119c657600080fd5b50565b6000813590506119d8816119b9565b92915050565b6000602082840312156119f4576119f36116b3565b5b6000611a02848285016119c9565b91505092915050565b611a14816116b8565b82525050565b6000602082019050611a2f6000830184611a0b565b92915050565b7f4f6e6c792074686520616363657074656420776f726b65722063616e2070657260008201527f666f726d2074686973206f7065726174696f6e00000000000000000000000000602082015250565b6000611a91603383611726565b9150611a9c82611a35565b604082019050919050565b60006020820190508181036000830152611ac081611a84565b9050919050565b7f436f6e747261637420646f6573206e6f7420686176652073756666696369656e60008201527f742066756e647320666f722077697468647261772e0000000000000000000000602082015250565b6000611b23603583611726565b9150611b2e82611ac7565b604082019050919050565b60006020820190508181036000830152611b5281611b16565b9050919050565b600081905092915050565b50565b6000611b74600083611b59565b9150611b7f82611b64565b600082019050919050565b6000611b9582611b67565b9150819050919050565b7f4661696c656420746f2073656e64204574686572000000000000000000000000600082015250565b6000611bd5601483611726565b9150611be082611b9f565b602082019050919050565b60006020820190508181036000830152611c0481611bc8565b9050919050565b7f4f6e6c792074686520636c69656e742063616e20706572666f726d207468697360008201527f206f7065726174696f6e00000000000000000000000000000000000000000000602082015250565b6000611c67602a83611726565b9150611c7282611c0b565b604082019050919050565b60006020820190508181036000830152611c9681611c5a565b9050919050565b7f4e487b7100000000000000000000000000000000000000000000000000000000600052603260045260246000fd5b7f4e487b7100000000000000000000000000000000000000000000000000000000600052602260045260246000fd5b60006002820490506001821680611d1357607f821691505b602082108103611d2657611d25611ccc565b5b50919050565b7f436c69656e7420646f6573206e6f74206861766520656e6f756768206c69717560008201527f696469747920746f20737461727420776f726b2e000000000000000000000000602082015250565b6000611d88603483611726565b9150611d9382611d2c565b604082019050919050565b60006020820190508181036000830152611db781611d7b565b9050919050565b7f56616c756520646f6573206e6f74206d61746368206269642e00000000000000600082015250565b6000611df4601983611726565b9150611dff82611dbe565b602082019050919050565b60006020820190508181036000830152611e2381611de7565b9050919050565b7f436c69656e7420686173206e6f74206d61726b656420776f726b20617320636f60008201527f6d706c6574650000000000000000000000000000000000000000000000000000602082015250565b6000611e86602683611726565b9150611e9182611e2a565b604082019050919050565b60006020820190508181036000830152611eb581611e79565b9050919050565b7f5468697320636f6e7472616374206973206265696e672064697370757465642e600082015250565b6000611ef2602083611726565b9150611efd82611ebc565b602082019050919050565b60006020820190508181036000830152611f2181611ee5565b9050919050565b7f436f6e747261637420646f6573206e6f7420686176652073756666696369656e60008201527f742066756e647320666f7220647261772e000000000000000000000000000000602082015250565b6000611f84603183611726565b9150611f8f82611f28565b604082019050919050565b60006020820190508181036000830152611fb381611f77565b905091905056fea2646970667358221220b65662ceef9855afda9bdf16d567811bed9ece811246d47b1b99855f77ea673864736f6c634300080d0033a2646970667358221220bbbf99bcd93a3192b587b66e553434eee06d3b53cecc7d25eef7cf7463bbd4bd64736f6c634300080d0033",
  "immutableReferences": {},
  "source": "// SPDX-License-Identifier: MIT\npragma solidity ^0.8.0;\n\nimport \"./WorkContract.sol\";\n\ncontract WorkContractFactory {\n\n\tmapping(address => address[]) workContracts;\n\t\t\n    WorkContract[] openContracts;\n\n    function getContractsForClient(address _user) \n        public\n        view\n        returns(address[] memory)\n    {\n        return workContracts[_user];\n    }\n\n    // TODO: parameters\n    function newContract(TypeOfWork typeOfWork)\n        payable\n        public\n        returns(address)\n    {\n        WorkContract workContract = new WorkContract(msg.sender, typeOfWork);\n        workContracts[msg.sender].push(address(workContract));\n\t\t\t\topenContracts.push(workContract);\n\n\t\t\t\temit ContractCreated(address(workContract));\n\t\t\t\treturn address(workContract);\n    }\n\n\n\t function getOpenContracts() public view returns(WorkContract[] memory) {\n\t\t\treturn openContracts;\n\t }\n\n\t function delistContract(WorkContract workContract, address payable _workerAddress) public {\n\t\t \t// workContract.assignWorker(_workerAddress); // TODO: what is a safe way to do this?\n\n\t\t\t// remove from open contracts\n\t\t\tfor(uint i = 0; i < openContracts.length; i++) {\n\t\t\t\tif(address(openContracts[i]) == address(workContract)) { // is this safe?\n\t\t\t\t\tdelete openContracts[i];\n\t\t\t\t}\n\t\t\t}\n\n\t\t\t// TODO: event?\n\t }\n\n\n    event ContractCreated(address wallet);\n\n}",
  "sourcePath": "/Users/jakegny/Projects/guildhalls-hackathon/src/contracts/WorkContractFactory.sol",
  "compiler": {
    "name": "solc",
    "version": "0.8.13+commit.abaa5c0e.Emscripten.clang"
  },
  "schemaVersion": "3.4.6",
  "updatedAt": "2022-04-09T20:03:53.348Z",
  "networkType": "ethereum",
  "devdoc": {
    "kind": "dev",
    "methods": {},
    "version": 1
  },
  "userdoc": {
    "kind": "user",
    "methods": {},
    "version": 1
  }
}