{
  "contractName": "WorkContract",
  "abi": [
    {
      "inputs": [
        {
          "internalType": "address",
          "name": "_client",
          "type": "address"
        },
        {
          "internalType": "enum TypeOfWork",
          "name": "tow",
          "type": "uint8"
        }
      ],
      "stateMutability": "nonpayable",
      "type": "constructor"
    },
    {
      "inputs": [
        {
          "internalType": "address",
          "name": "",
          "type": "address"
        }
      ],
      "name": "bids",
      "outputs": [
        {
          "internalType": "uint256",
          "name": "",
          "type": "uint256"
        }
      ],
      "stateMutability": "view",
      "type": "function"
    },
    {
      "inputs": [],
      "name": "getStatementOfWork",
      "outputs": [
        {
          "internalType": "string",
          "name": "",
          "type": "string"
        }
      ],
      "stateMutability": "view",
      "type": "function"
    },
    {
      "inputs": [],
      "name": "getStatus",
      "outputs": [
        {
          "internalType": "enum Status",
          "name": "",
          "type": "uint8"
        }
      ],
      "stateMutability": "view",
      "type": "function"
    },
    {
      "inputs": [],
      "name": "getRequestedDrawValue",
      "outputs": [
        {
          "internalType": "uint256",
          "name": "",
          "type": "uint256"
        }
      ],
      "stateMutability": "view",
      "type": "function"
    },
    {
      "inputs": [],
      "name": "getDefaultChoice",
      "outputs": [
        {
          "internalType": "uint256",
          "name": "",
          "type": "uint256"
        }
      ],
      "stateMutability": "pure",
      "type": "function"
    },
    {
      "inputs": [
        {
          "internalType": "address payable",
          "name": "_worker",
          "type": "address"
        }
      ],
      "name": "assignWorker",
      "outputs": [],
      "stateMutability": "nonpayable",
      "type": "function"
    },
    {
      "inputs": [
        {
          "internalType": "uint256",
          "name": "bid",
          "type": "uint256"
        }
      ],
      "name": "bidWork",
      "outputs": [],
      "stateMutability": "nonpayable",
      "type": "function"
    },
    {
      "inputs": [
        {
          "internalType": "address",
          "name": "_worker",
          "type": "address"
        }
      ],
      "name": "acceptBid",
      "outputs": [],
      "stateMutability": "nonpayable",
      "type": "function"
    },
    {
      "inputs": [],
      "name": "workStarted",
      "outputs": [],
      "stateMutability": "payable",
      "type": "function"
    },
    {
      "inputs": [
        {
          "internalType": "enum Status",
          "name": "_status",
          "type": "uint8"
        }
      ],
      "name": "changeWorkStatus",
      "outputs": [],
      "stateMutability": "nonpayable",
      "type": "function"
    },
    {
      "inputs": [],
      "name": "contractComplete",
      "outputs": [],
      "stateMutability": "payable",
      "type": "function"
    },
    {
      "inputs": [],
      "name": "disputeContract",
      "outputs": [],
      "stateMutability": "nonpayable",
      "type": "function"
    },
    {
      "inputs": [],
      "name": "releaseDispute",
      "outputs": [],
      "stateMutability": "nonpayable",
      "type": "function"
    },
    {
      "inputs": [],
      "name": "requestDraw",
      "outputs": [],
      "stateMutability": "payable",
      "type": "function"
    },
    {
      "inputs": [],
      "name": "approveDraw",
      "outputs": [],
      "stateMutability": "nonpayable",
      "type": "function"
    },
    {
      "inputs": [],
      "name": "rejectDraw",
      "outputs": [],
      "stateMutability": "nonpayable",
      "type": "function"
    },
    {
      "inputs": [],
      "name": "withdrawFunds",
      "outputs": [],
      "stateMutability": "payable",
      "type": "function"
    },
    {
      "inputs": [],
      "name": "changeRequest",
      "outputs": [],
      "stateMutability": "nonpayable",
      "type": "function"
    }
  ],
  "bytecode": "0x60806040523480156200001157600080fd5b5060405162001b4c38038062001b4c83398181016040528101906200003791906200016c565b81600060026101000a81548173ffffffffffffffffffffffffffffffffffffffff021916908373ffffffffffffffffffffffffffffffffffffffff16021790555080600060016101000a81548160ff02191690836003811115620000a0576200009f620001b3565b5b021790555060008060006101000a81548160ff02191690836007811115620000cd57620000cc620001b3565b5b02179055505050620001e2565b600080fd5b600073ffffffffffffffffffffffffffffffffffffffff82169050919050565b60006200010c82620000df565b9050919050565b6200011e81620000ff565b81146200012a57600080fd5b50565b6000815190506200013e8162000113565b92915050565b600481106200015257600080fd5b50565b600081519050620001668162000144565b92915050565b60008060408385031215620001865762000185620000da565b5b600062000196858286016200012d565b9250506020620001a98582860162000155565b9150509250929050565b7f4e487b7100000000000000000000000000000000000000000000000000000000600052602160045260246000fd5b61195a80620001f26000396000f3fe6080604052600436106101095760003560e01c806387cf58d911610095578063a72ad9a511610064578063a72ad9a514610289578063ab467a53146102b4578063c0e929e7146102dd578063c0fdf07b14610308578063f1a660151461031f57610109565b806387cf58d914610235578063892642011461024c578063a54d50cc14610256578063a57848b61461027f57610109565b80636ba74f17116100dc5780636ba74f17146101975780636edc2848146101c05780637212d289146101e957806379a9e34514610200578063843f72581461020a57610109565b806324600fc31461010e5780634010b84e146101185780634e69d5601461012f57806362ea82db1461015a575b600080fd5b610116610336565b005b34801561012457600080fd5b5061012d6104e0565b005b34801561013b57600080fd5b5061014461059c565b604051610151919061111e565b60405180910390f35b34801561016657600080fd5b50610181600480360381019061017c919061119c565b6105b2565b60405161018e91906111e2565b60405180910390f35b3480156101a357600080fd5b506101be60048036038101906101b9919061119c565b6105ca565b005b3480156101cc57600080fd5b506101e760048036038101906101e2919061123b565b6106cd565b005b3480156101f557600080fd5b506101fe6107a1565b005b61020861084e565b005b34801561021657600080fd5b5061021f6109ca565b60405161022c91906111e2565b60405180910390f35b34801561024157600080fd5b5061024a6109e4565b005b610254610a99565b005b34801561026257600080fd5b5061027d6004803603810190610278919061128d565b610c4f565b005b610287610d7f565b005b34801561029557600080fd5b5061029e610e76565b6040516102ab91906111e2565b60405180910390f35b3480156102c057600080fd5b506102db60048036038101906102d691906112e6565b610e80565b005b3480156102e957600080fd5b506102f2610ec7565b6040516102ff91906113ac565b60405180910390f35b34801561031457600080fd5b5061031d610f59565b005b34801561032b57600080fd5b50610334610feb565b005b600160009054906101000a900473ffffffffffffffffffffffffffffffffffffffff1673ffffffffffffffffffffffffffffffffffffffff163373ffffffffffffffffffffffffffffffffffffffff16146103c6576040517f08c379a00000000000000000000000000000000000000000000000000000000081526004016103bd90611440565b60405180910390fd5b34471015610409576040517f08c379a0000000000000000000000000000000000000000000000000000000008152600401610400906114d2565b60405180910390fd5b6000803373ffffffffffffffffffffffffffffffffffffffff1660055460405161043290611523565b60006040518083038185875af1925050503d806000811461046f576040519150601f19603f3d011682016040523d82523d6000602084013e610474565b606091505b5091509150816104b9576040517f08c379a00000000000000000000000000000000000000000000000000000000081526004016104b090611584565b60405180910390fd5b60006005819055506000600660006101000a81548160ff0219169083151502179055505050565b600160009054906101000a900473ffffffffffffffffffffffffffffffffffffffff1673ffffffffffffffffffffffffffffffffffffffff163373ffffffffffffffffffffffffffffffffffffffff1614610570576040517f08c379a000000000000000000000000000000000000000000000000000000000815260040161056790611440565b60405180910390fd5b60046000806101000a81548160ff02191690836007811115610595576105946110a7565b5b0217905550565b60008060009054906101000a900460ff16905090565b60036020528060005260406000206000915090505481565b600060029054906101000a900473ffffffffffffffffffffffffffffffffffffffff1673ffffffffffffffffffffffffffffffffffffffff163373ffffffffffffffffffffffffffffffffffffffff161461065a576040517f08c379a000000000000000000000000000000000000000000000000000000000815260040161065190611616565b60405180910390fd5b600360008273ffffffffffffffffffffffffffffffffffffffff1673ffffffffffffffffffffffffffffffffffffffff1681526020019081526020016000205460048190555060016000806101000a81548160ff021916908360078111156106c5576106c46110a7565b5b021790555050565b600060029054906101000a900473ffffffffffffffffffffffffffffffffffffffff1673ffffffffffffffffffffffffffffffffffffffff163373ffffffffffffffffffffffffffffffffffffffff161461075d576040517f08c379a000000000000000000000000000000000000000000000000000000000815260040161075490611616565b60405180910390fd5b80600160006101000a81548173ffffffffffffffffffffffffffffffffffffffff021916908373ffffffffffffffffffffffffffffffffffffffff16021790555050565b600060029054906101000a900473ffffffffffffffffffffffffffffffffffffffff1673ffffffffffffffffffffffffffffffffffffffff163373ffffffffffffffffffffffffffffffffffffffff1614610831576040517f08c379a000000000000000000000000000000000000000000000000000000000815260040161082890611616565b60405180910390fd5b6001600660006101000a81548160ff021916908315150217905550565b600060029054906101000a900473ffffffffffffffffffffffffffffffffffffffff1673ffffffffffffffffffffffffffffffffffffffff163373ffffffffffffffffffffffffffffffffffffffff16146108de576040517f08c379a00000000000000000000000000000000000000000000000000000000081526004016108d590611616565b60405180910390fd5b34600060029054906101000a900473ffffffffffffffffffffffffffffffffffffffff1673ffffffffffffffffffffffffffffffffffffffff1631101561095a576040517f08c379a0000000000000000000000000000000000000000000000000000000008152600401610951906116a8565b60405180910390fd5b600454341461099e576040517f08c379a000000000000000000000000000000000000000000000000000000000815260040161099590611714565b60405180910390fd5b60026000806101000a81548160ff021916908360078111156109c3576109c26110a7565b5b0217905550565b60008060078111156109df576109de6110a7565b5b905090565b600060029054906101000a900473ffffffffffffffffffffffffffffffffffffffff1673ffffffffffffffffffffffffffffffffffffffff163373ffffffffffffffffffffffffffffffffffffffff1614610a74576040517f08c379a0000000000000000000000000000000000000000000000000000000008152600401610a6b90611616565b60405180910390fd5b60006005819055506000600660006101000a81548160ff021916908315150217905550565b600160009054906101000a900473ffffffffffffffffffffffffffffffffffffffff1673ffffffffffffffffffffffffffffffffffffffff163373ffffffffffffffffffffffffffffffffffffffff1614610b29576040517f08c379a0000000000000000000000000000000000000000000000000000000008152600401610b2090611440565b60405180910390fd5b60056007811115610b3d57610b3c6110a7565b5b60008054906101000a900460ff166007811115610b5d57610b5c6110a7565b5b14610b9d576040517f08c379a0000000000000000000000000000000000000000000000000000000008152600401610b94906117a6565b60405180910390fd5b6000803373ffffffffffffffffffffffffffffffffffffffff1647604051610bc490611523565b60006040518083038185875af1925050503d8060008114610c01576040519150601f19603f3d011682016040523d82523d6000602084013e610c06565b606091505b509150915081610c4b576040517f08c379a0000000000000000000000000000000000000000000000000000000008152600401610c4290611584565b60405180910390fd5b5050565b600060029054906101000a900473ffffffffffffffffffffffffffffffffffffffff1673ffffffffffffffffffffffffffffffffffffffff163373ffffffffffffffffffffffffffffffffffffffff1614610cdf576040517f08c379a0000000000000000000000000000000000000000000000000000000008152600401610cd690611616565b60405180910390fd5b60046007811115610cf357610cf26110a7565b5b60008054906101000a900460ff166007811115610d1357610d126110a7565b5b03610d53576040517f08c379a0000000000000000000000000000000000000000000000000000000008152600401610d4a90611812565b60405180910390fd5b806000806101000a81548160ff02191690836007811115610d7757610d766110a7565b5b021790555050565b600160009054906101000a900473ffffffffffffffffffffffffffffffffffffffff1673ffffffffffffffffffffffffffffffffffffffff163373ffffffffffffffffffffffffffffffffffffffff1614610e0f576040517f08c379a0000000000000000000000000000000000000000000000000000000008152600401610e0690611440565b60405180910390fd5b34471015610e52576040517f08c379a0000000000000000000000000000000000000000000000000000000008152600401610e49906118a4565b60405180910390fd5b6000600660006101000a81548160ff02191690831515021790555034600581905550565b6000600554905090565b80600360003373ffffffffffffffffffffffffffffffffffffffff1673ffffffffffffffffffffffffffffffffffffffff1681526020019081526020016000208190555050565b606060028054610ed6906118f3565b80601f0160208091040260200160405190810160405280929190818152602001828054610f02906118f3565b8015610f4f5780601f10610f2457610100808354040283529160200191610f4f565b820191906000526020600020905b815481529060010190602001808311610f3257829003601f168201915b5050505050905090565b600060029054906101000a900473ffffffffffffffffffffffffffffffffffffffff1673ffffffffffffffffffffffffffffffffffffffff163373ffffffffffffffffffffffffffffffffffffffff1614610fe9576040517f08c379a0000000000000000000000000000000000000000000000000000000008152600401610fe090611616565b60405180910390fd5b565b600160009054906101000a900473ffffffffffffffffffffffffffffffffffffffff1673ffffffffffffffffffffffffffffffffffffffff163373ffffffffffffffffffffffffffffffffffffffff161461107b576040517f08c379a000000000000000000000000000000000000000000000000000000000815260040161107290611440565b60405180910390fd5b60026000806101000a81548160ff021916908360078111156110a05761109f6110a7565b5b0217905550565b7f4e487b7100000000000000000000000000000000000000000000000000000000600052602160045260246000fd5b600881106110e7576110e66110a7565b5b50565b60008190506110f8826110d6565b919050565b6000611108826110ea565b9050919050565b611118816110fd565b82525050565b6000602082019050611133600083018461110f565b92915050565b600080fd5b600073ffffffffffffffffffffffffffffffffffffffff82169050919050565b60006111698261113e565b9050919050565b6111798161115e565b811461118457600080fd5b50565b60008135905061119681611170565b92915050565b6000602082840312156111b2576111b1611139565b5b60006111c084828501611187565b91505092915050565b6000819050919050565b6111dc816111c9565b82525050565b60006020820190506111f760008301846111d3565b92915050565b60006112088261113e565b9050919050565b611218816111fd565b811461122357600080fd5b50565b6000813590506112358161120f565b92915050565b60006020828403121561125157611250611139565b5b600061125f84828501611226565b91505092915050565b6008811061127557600080fd5b50565b60008135905061128781611268565b92915050565b6000602082840312156112a3576112a2611139565b5b60006112b184828501611278565b91505092915050565b6112c3816111c9565b81146112ce57600080fd5b50565b6000813590506112e0816112ba565b92915050565b6000602082840312156112fc576112fb611139565b5b600061130a848285016112d1565b91505092915050565b600081519050919050565b600082825260208201905092915050565b60005b8381101561134d578082015181840152602081019050611332565b8381111561135c576000848401525b50505050565b6000601f19601f8301169050919050565b600061137e82611313565b611388818561131e565b935061139881856020860161132f565b6113a181611362565b840191505092915050565b600060208201905081810360008301526113c68184611373565b905092915050565b7f4f6e6c792074686520616363657074656420776f726b65722063616e2070657260008201527f666f726d2074686973206f7065726174696f6e00000000000000000000000000602082015250565b600061142a60338361131e565b9150611435826113ce565b604082019050919050565b600060208201905081810360008301526114598161141d565b9050919050565b7f436f6e747261637420646f6573206e6f7420686176652073756666696369656e60008201527f742066756e647320666f722077697468647261772e0000000000000000000000602082015250565b60006114bc60358361131e565b91506114c782611460565b604082019050919050565b600060208201905081810360008301526114eb816114af565b9050919050565b600081905092915050565b50565b600061150d6000836114f2565b9150611518826114fd565b600082019050919050565b600061152e82611500565b9150819050919050565b7f4661696c656420746f2073656e64204574686572000000000000000000000000600082015250565b600061156e60148361131e565b915061157982611538565b602082019050919050565b6000602082019050818103600083015261159d81611561565b9050919050565b7f4f6e6c792074686520636c69656e742063616e20706572666f726d207468697360008201527f206f7065726174696f6e00000000000000000000000000000000000000000000602082015250565b6000611600602a8361131e565b915061160b826115a4565b604082019050919050565b6000602082019050818103600083015261162f816115f3565b9050919050565b7f436c69656e7420646f6573206e6f74206861766520656e6f756768206c69717560008201527f696469747920746f20737461727420776f726b2e000000000000000000000000602082015250565b600061169260348361131e565b915061169d82611636565b604082019050919050565b600060208201905081810360008301526116c181611685565b9050919050565b7f56616c756520646f6573206e6f74206d61746368206269642e00000000000000600082015250565b60006116fe60198361131e565b9150611709826116c8565b602082019050919050565b6000602082019050818103600083015261172d816116f1565b9050919050565b7f436c69656e7420686173206e6f74206d61726b656420776f726b20617320636f60008201527f6d706c6574650000000000000000000000000000000000000000000000000000602082015250565b600061179060268361131e565b915061179b82611734565b604082019050919050565b600060208201905081810360008301526117bf81611783565b9050919050565b7f5468697320636f6e7472616374206973206265696e672064697370757465642e600082015250565b60006117fc60208361131e565b9150611807826117c6565b602082019050919050565b6000602082019050818103600083015261182b816117ef565b9050919050565b7f436f6e747261637420646f6573206e6f7420686176652073756666696369656e60008201527f742066756e647320666f7220647261772e000000000000000000000000000000602082015250565b600061188e60318361131e565b915061189982611832565b604082019050919050565b600060208201905081810360008301526118bd81611881565b9050919050565b7f4e487b7100000000000000000000000000000000000000000000000000000000600052602260045260246000fd5b6000600282049050600182168061190b57607f821691505b60208210810361191e5761191d6118c4565b5b5091905056fea26469706673582212205f20d7f747d0a2b2f13b6e08de3b0a437ec033a947500c16bc82ed937fc16eea64736f6c634300080d0033",
  "immutableReferences": {},
  "source": "// SPDX-License-Identifier: MIT\npragma solidity ^0.8.0;\n\nenum Status{ BIDDING, PENDING, IN_PROGRESS, HALTED, DISPUTED, COMPLETE, INCOMPLETE, CHANGE_REQUEST }\n\n// TODO: improve this, make it expandable\nenum TypeOfWork { ELECTRICAL, PLUMBING, PROGRAMMING, OTHER }\n\ncontract WorkContract {\n\n\tStatus status;\n    Status constant initialState = Status.BIDDING;\n\n\n\tTypeOfWork typeOfWork;\n\n\taddress client;\n\taddress payable worker;\n\tstring statementOfWork; // TODO: needs lots more thought, probably file. Hashed statement of work?\n\n\tmapping(address => uint) public bids;\n\tuint acceptedBid;\n\n\tuint requestedDrawValue;\n\tbool isDrawApproved;\n\n\tmodifier onlyClient {\n\t\trequire(msg.sender == client, \"Only the client can perform this operation\");\n\t\t_;\n\t}\n\tmodifier onlyWorker {\n\t\trequire(msg.sender == worker, \"Only the accepted worker can perform this operation\");\n\t\t_;\n\t}\n\tmodifier eitherClientOrWorker {\n\t\trequire(msg.sender == client || msg.sender == worker, \"Only the worker or the client can perform this operation\");\n\t\t_;\n\t}\n\n\tconstructor (\n        address _client,\n\t\t\t\tTypeOfWork tow\n    ) {\n        client = _client;\n\t\t\t\ttypeOfWork = tow;\n\t\t\t\tstatus = Status.BIDDING;\n\n\t\t\t\t// TODO: statementOfWork;\n    }\n\n\t\tfunction getStatementOfWork() public view returns (string memory) {\n\t\t\treturn statementOfWork;\n\t\t}\n\n   function getStatus() public view returns (Status) {\n      return status;\n   }\n\n\t function getRequestedDrawValue() public view returns (uint) {\n      return requestedDrawValue;\n   }\n\n   function getDefaultChoice() public pure returns (uint) {\n      return uint(initialState);\n   }\n\n\t function assignWorker(address payable _worker) onlyClient public  {\n\t\t worker = _worker;\n\t\t // TODO: event?\n\t }\n\n\t // TODO: require a verified worker token?\n\t function bidWork(uint bid) public {\n\t\t bids[msg.sender] = bid;\n\t }\n\n\t function acceptBid(address _worker) onlyClient public  {\n\t\t acceptedBid = bids[_worker];\n\t\t status = Status.PENDING;\n\t\t\t// TODO: event\n\t }\n\n\t\tfunction workStarted() onlyClient public payable {\n\t\t\t// ensure client has enough to pay\n      // NOTE: client.balance in gwei?\n\t\t\trequire(client.balance >= msg.value, \"Client does not have enough liquidity to start work.\");\n\t\t\t\n\t\t\t// ensure the value being sent matches the bid\n      require(msg.value == acceptedBid, \"Value does not match bid.\");\n\n\t\t\tstatus = Status.IN_PROGRESS;\n\n\t\t\t// TODO: event\n\t\t}\n\n\t\tfunction changeWorkStatus(Status _status) onlyClient public {\n\t\t\trequire(status != Status.DISPUTED, \"This contract is being disputed.\");\n\t\t\tstatus = _status;\n\t\t}\n\n\t\tfunction contractComplete() onlyWorker public payable {\n\t\t\trequire(status == Status.COMPLETE, \"Client has not marked work as complete\");\n\n\t\t\t(bool sent, bytes memory data) = msg.sender.call{value: address(this).balance}(\"\");\n\t\t\trequire(sent, \"Failed to send Ether\");\n\n\t\t\t// TODO: event\n\t\t}\n\n\t\tfunction disputeContract() onlyWorker public {\n\t\t\tstatus = Status.DISPUTED;\n\t\t\t// TODO: event\n\t\t}\n\n\t\tfunction releaseDispute() onlyWorker public {\n\t\t\tstatus = Status.IN_PROGRESS; // TODO: might need another type here?\n\t\t\t// TODO: event\n\t\t}\n\n\t\tfunction requestDraw() onlyWorker public payable{\n\t\t\trequire(address(this).balance >= msg.value, \"Contract does not have sufficient funds for draw.\");\n\n\t\t\tisDrawApproved = false; // Make sure that the worker cant change the draw request.\n\t\t\trequestedDrawValue = msg.value;\n\t\t}\n\n\t\t// approveDraw\n\t\tfunction approveDraw() onlyClient public {\n\t\t\t// (bool sent, bytes memory data) = msg.sender.call{value: requestedDrawValue}(\"\");\n\t\t\t// require(sent, \"Failed to send Ether\");\n\t\t\t// requestedDrawValue = 0;\n\t\t\tisDrawApproved = true;\n\n\t\t\t// TODO: event\n\t\t}\n\n\t\tfunction rejectDraw() onlyClient public {\n\t\t\t// require(address(this).balance >= msg.value, \"Contract does not have sufficient funds for draw.\");\n\t\t\trequestedDrawValue = 0;\n\t\t\tisDrawApproved = false;\n\n\t\t\t// TODO: event\n\t\t}\n\n\t\tfunction withdrawFunds() onlyWorker public payable {\n\t\t\trequire(address(this).balance >= msg.value, \"Contract does not have sufficient funds for withdraw.\");\n\n\t\t\t(bool sent, bytes memory data) = msg.sender.call{value: requestedDrawValue}(\"\");\n\t\t\trequire(sent, \"Failed to send Ether\");\n\n\t\t\trequestedDrawValue = 0;\n\t\t\tisDrawApproved = false;\n\n\t\t\t// TODO: event;\n\t\t}\n\t\t\n\t\t// TODO: changeRequest\n\t\tfunction changeRequest() onlyClient public {\n\t\t\t// changing statementOfWork -\n\n\t\t\t// TODO: event\n\t\t}\n\n\t\t// TODO: need a way for the client to withdraw funds\n\n\n// Functions\n//                   Request work (client)\n//                   Bid work (guild)\n//                   Accept bid (client)\n//                   Accept work (guild)\n//                   Sign contract (both) \n//                   Work started (client) locks funds\n//                   Dispute (both)\n//                   WorkComplete \n//                   ChangeOrder\n//                   WorkIncomplete\n//                   RequestDraw\n\n}\n\n",
  "sourcePath": "/Users/jakegny/Projects/guildhalls-hackathon/src/contracts/WorkContract.sol",
  "compiler": {
    "name": "solc",
    "version": "0.8.13+commit.abaa5c0e.Emscripten.clang"
  },
  "schemaVersion": "3.4.6",
  "updatedAt": "2022-04-08T20:39:53.009Z",
  "devdoc": {
    "kind": "dev",
    "methods": {},
    "version": 1
  },
  "userdoc": {
    "kind": "user",
    "methods": {},
    "version": 1
  }
}