{
  "contractName": "WorkContract",
  "abi": [
    {
      "inputs": [
        {
          "internalType": "address",
          "name": "_client",
          "type": "address"
        },
        {
          "internalType": "enum TypeOfWork",
          "name": "tow",
          "type": "uint8"
        }
      ],
      "stateMutability": "nonpayable",
      "type": "constructor"
    },
    {
      "inputs": [],
      "name": "getStatementOfWork",
      "outputs": [
        {
          "internalType": "string",
          "name": "",
          "type": "string"
        }
      ],
      "stateMutability": "view",
      "type": "function"
    },
    {
      "inputs": [],
      "name": "getStatus",
      "outputs": [
        {
          "internalType": "enum Status",
          "name": "",
          "type": "uint8"
        }
      ],
      "stateMutability": "view",
      "type": "function"
    },
    {
      "inputs": [],
      "name": "getRequestedDrawValue",
      "outputs": [
        {
          "internalType": "uint256",
          "name": "",
          "type": "uint256"
        }
      ],
      "stateMutability": "view",
      "type": "function"
    },
    {
      "inputs": [
        {
          "internalType": "address payable",
          "name": "_worker",
          "type": "address"
        }
      ],
      "name": "assignWorker",
      "outputs": [],
      "stateMutability": "nonpayable",
      "type": "function"
    },
    {
      "inputs": [
        {
          "internalType": "uint256",
          "name": "bid",
          "type": "uint256"
        }
      ],
      "name": "bidWork",
      "outputs": [],
      "stateMutability": "nonpayable",
      "type": "function"
    },
    {
      "inputs": [],
      "name": "getBiddingAddress",
      "outputs": [
        {
          "internalType": "address[]",
          "name": "",
          "type": "address[]"
        }
      ],
      "stateMutability": "view",
      "type": "function"
    },
    {
      "inputs": [
        {
          "internalType": "address",
          "name": "bidAddress",
          "type": "address"
        }
      ],
      "name": "getBidByAddress",
      "outputs": [
        {
          "internalType": "uint256",
          "name": "",
          "type": "uint256"
        }
      ],
      "stateMutability": "view",
      "type": "function"
    },
    {
      "inputs": [
        {
          "internalType": "address",
          "name": "_worker",
          "type": "address"
        }
      ],
      "name": "acceptBid",
      "outputs": [],
      "stateMutability": "nonpayable",
      "type": "function"
    },
    {
      "inputs": [],
      "name": "workStarted",
      "outputs": [],
      "stateMutability": "payable",
      "type": "function"
    },
    {
      "inputs": [
        {
          "internalType": "enum Status",
          "name": "_status",
          "type": "uint8"
        }
      ],
      "name": "changeWorkStatus",
      "outputs": [],
      "stateMutability": "nonpayable",
      "type": "function"
    },
    {
      "inputs": [],
      "name": "contractComplete",
      "outputs": [],
      "stateMutability": "payable",
      "type": "function"
    },
    {
      "inputs": [],
      "name": "disputeContract",
      "outputs": [],
      "stateMutability": "nonpayable",
      "type": "function"
    },
    {
      "inputs": [],
      "name": "releaseDispute",
      "outputs": [],
      "stateMutability": "nonpayable",
      "type": "function"
    },
    {
      "inputs": [],
      "name": "requestDraw",
      "outputs": [],
      "stateMutability": "payable",
      "type": "function"
    },
    {
      "inputs": [],
      "name": "approveDraw",
      "outputs": [],
      "stateMutability": "nonpayable",
      "type": "function"
    },
    {
      "inputs": [],
      "name": "rejectDraw",
      "outputs": [],
      "stateMutability": "nonpayable",
      "type": "function"
    },
    {
      "inputs": [],
      "name": "withdrawFunds",
      "outputs": [],
      "stateMutability": "payable",
      "type": "function"
    },
    {
      "inputs": [],
      "name": "changeRequest",
      "outputs": [],
      "stateMutability": "nonpayable",
      "type": "function"
    }
  ],
  "bytecode": "0x60806040523480156200001157600080fd5b5060405162001dc438038062001dc483398181016040528101906200003791906200016c565b81600060026101000a81548173ffffffffffffffffffffffffffffffffffffffff021916908373ffffffffffffffffffffffffffffffffffffffff16021790555080600060016101000a81548160ff02191690836003811115620000a0576200009f620001b3565b5b021790555060008060006101000a81548160ff02191690836007811115620000cd57620000cc620001b3565b5b02179055505050620001e2565b600080fd5b600073ffffffffffffffffffffffffffffffffffffffff82169050919050565b60006200010c82620000df565b9050919050565b6200011e81620000ff565b81146200012a57600080fd5b50565b6000815190506200013e8162000113565b92915050565b600481106200015257600080fd5b50565b600081519050620001668162000144565b92915050565b60008060408385031215620001865762000185620000da565b5b600062000196858286016200012d565b9250506020620001a98582860162000155565b9150509250929050565b7f4e487b7100000000000000000000000000000000000000000000000000000000600052602160045260246000fd5b611bd280620001f26000396000f3fe6080604052600436106101095760003560e01c80638926420111610095578063ab467a5311610064578063ab467a5314610277578063c0e929e7146102a0578063c0fdf07b146102cb578063d01583bc146102e2578063f1a660151461031f57610109565b8063892642011461020f578063a54d50cc14610219578063a57848b614610242578063a72ad9a51461024c57610109565b80636ba74f17116100dc5780636ba74f17146101855780636edc2848146101ae5780637212d289146101d757806379a9e345146101ee57806387cf58d9146101f857610109565b806324600fc31461010e57806336021534146101185780634010b84e146101435780634e69d5601461015a575b600080fd5b610116610336565b005b34801561012457600080fd5b5061012d6104e0565b60405161013a919061132f565b60405180910390f35b34801561014f57600080fd5b506101586105fe565b005b34801561016657600080fd5b5061016f6106ba565b60405161017c91906113c8565b60405180910390f35b34801561019157600080fd5b506101ac60048036038101906101a79190611414565b6106d0565b005b3480156101ba57600080fd5b506101d560048036038101906101d0919061147f565b6107d3565b005b3480156101e357600080fd5b506101ec6108a7565b005b6101f6610954565b005b34801561020457600080fd5b5061020d610ad0565b005b610217610b85565b005b34801561022557600080fd5b50610240600480360381019061023b91906114d1565b610d3b565b005b61024a610e6b565b005b34801561025857600080fd5b50610261610f62565b60405161026e9190611517565b60405180910390f35b34801561028357600080fd5b5061029e6004803603810190610299919061155e565b610f6c565b005b3480156102ac57600080fd5b506102b5611016565b6040516102c29190611624565b60405180910390f35b3480156102d757600080fd5b506102e06110a8565b005b3480156102ee57600080fd5b5061030960048036038101906103049190611414565b61113a565b6040516103169190611517565b60405180910390f35b34801561032b57600080fd5b50610334611183565b005b600160009054906101000a900473ffffffffffffffffffffffffffffffffffffffff1673ffffffffffffffffffffffffffffffffffffffff163373ffffffffffffffffffffffffffffffffffffffff16146103c6576040517f08c379a00000000000000000000000000000000000000000000000000000000081526004016103bd906116b8565b60405180910390fd5b34471015610409576040517f08c379a00000000000000000000000000000000000000000000000000000000081526004016104009061174a565b60405180910390fd5b6000803373ffffffffffffffffffffffffffffffffffffffff166006546040516104329061179b565b60006040518083038185875af1925050503d806000811461046f576040519150601f19603f3d011682016040523d82523d6000602084013e610474565b606091505b5091509150816104b9576040517f08c379a00000000000000000000000000000000000000000000000000000000081526004016104b0906117fc565b60405180910390fd5b60006006819055506000600760006101000a81548160ff0219169083151502179055505050565b6060600060029054906101000a900473ffffffffffffffffffffffffffffffffffffffff1673ffffffffffffffffffffffffffffffffffffffff163373ffffffffffffffffffffffffffffffffffffffff1614610572576040517f08c379a00000000000000000000000000000000000000000000000000000000081526004016105699061188e565b60405180910390fd5b60038054806020026020016040519081016040528092919081815260200182805480156105f457602002820191906000526020600020905b8160009054906101000a900473ffffffffffffffffffffffffffffffffffffffff1673ffffffffffffffffffffffffffffffffffffffff16815260200190600101908083116105aa575b5050505050905090565b600160009054906101000a900473ffffffffffffffffffffffffffffffffffffffff1673ffffffffffffffffffffffffffffffffffffffff163373ffffffffffffffffffffffffffffffffffffffff161461068e576040517f08c379a0000000000000000000000000000000000000000000000000000000008152600401610685906116b8565b60405180910390fd5b60046000806101000a81548160ff021916908360078111156106b3576106b2611351565b5b0217905550565b60008060009054906101000a900460ff16905090565b600060029054906101000a900473ffffffffffffffffffffffffffffffffffffffff1673ffffffffffffffffffffffffffffffffffffffff163373ffffffffffffffffffffffffffffffffffffffff1614610760576040517f08c379a00000000000000000000000000000000000000000000000000000000081526004016107579061188e565b60405180910390fd5b600460008273ffffffffffffffffffffffffffffffffffffffff1673ffffffffffffffffffffffffffffffffffffffff1681526020019081526020016000205460058190555060016000806101000a81548160ff021916908360078111156107cb576107ca611351565b5b021790555050565b600060029054906101000a900473ffffffffffffffffffffffffffffffffffffffff1673ffffffffffffffffffffffffffffffffffffffff163373ffffffffffffffffffffffffffffffffffffffff1614610863576040517f08c379a000000000000000000000000000000000000000000000000000000000815260040161085a9061188e565b60405180910390fd5b80600160006101000a81548173ffffffffffffffffffffffffffffffffffffffff021916908373ffffffffffffffffffffffffffffffffffffffff16021790555050565b600060029054906101000a900473ffffffffffffffffffffffffffffffffffffffff1673ffffffffffffffffffffffffffffffffffffffff163373ffffffffffffffffffffffffffffffffffffffff1614610937576040517f08c379a000000000000000000000000000000000000000000000000000000000815260040161092e9061188e565b60405180910390fd5b6001600760006101000a81548160ff021916908315150217905550565b600060029054906101000a900473ffffffffffffffffffffffffffffffffffffffff1673ffffffffffffffffffffffffffffffffffffffff163373ffffffffffffffffffffffffffffffffffffffff16146109e4576040517f08c379a00000000000000000000000000000000000000000000000000000000081526004016109db9061188e565b60405180910390fd5b34600060029054906101000a900473ffffffffffffffffffffffffffffffffffffffff1673ffffffffffffffffffffffffffffffffffffffff16311015610a60576040517f08c379a0000000000000000000000000000000000000000000000000000000008152600401610a5790611920565b60405180910390fd5b6005543414610aa4576040517f08c379a0000000000000000000000000000000000000000000000000000000008152600401610a9b9061198c565b60405180910390fd5b60026000806101000a81548160ff02191690836007811115610ac957610ac8611351565b5b0217905550565b600060029054906101000a900473ffffffffffffffffffffffffffffffffffffffff1673ffffffffffffffffffffffffffffffffffffffff163373ffffffffffffffffffffffffffffffffffffffff1614610b60576040517f08c379a0000000000000000000000000000000000000000000000000000000008152600401610b579061188e565b60405180910390fd5b60006006819055506000600760006101000a81548160ff021916908315150217905550565b600160009054906101000a900473ffffffffffffffffffffffffffffffffffffffff1673ffffffffffffffffffffffffffffffffffffffff163373ffffffffffffffffffffffffffffffffffffffff1614610c15576040517f08c379a0000000000000000000000000000000000000000000000000000000008152600401610c0c906116b8565b60405180910390fd5b60056007811115610c2957610c28611351565b5b60008054906101000a900460ff166007811115610c4957610c48611351565b5b14610c89576040517f08c379a0000000000000000000000000000000000000000000000000000000008152600401610c8090611a1e565b60405180910390fd5b6000803373ffffffffffffffffffffffffffffffffffffffff1647604051610cb09061179b565b60006040518083038185875af1925050503d8060008114610ced576040519150601f19603f3d011682016040523d82523d6000602084013e610cf2565b606091505b509150915081610d37576040517f08c379a0000000000000000000000000000000000000000000000000000000008152600401610d2e906117fc565b60405180910390fd5b5050565b600060029054906101000a900473ffffffffffffffffffffffffffffffffffffffff1673ffffffffffffffffffffffffffffffffffffffff163373ffffffffffffffffffffffffffffffffffffffff1614610dcb576040517f08c379a0000000000000000000000000000000000000000000000000000000008152600401610dc29061188e565b60405180910390fd5b60046007811115610ddf57610dde611351565b5b60008054906101000a900460ff166007811115610dff57610dfe611351565b5b03610e3f576040517f08c379a0000000000000000000000000000000000000000000000000000000008152600401610e3690611a8a565b60405180910390fd5b806000806101000a81548160ff02191690836007811115610e6357610e62611351565b5b021790555050565b600160009054906101000a900473ffffffffffffffffffffffffffffffffffffffff1673ffffffffffffffffffffffffffffffffffffffff163373ffffffffffffffffffffffffffffffffffffffff1614610efb576040517f08c379a0000000000000000000000000000000000000000000000000000000008152600401610ef2906116b8565b60405180910390fd5b34471015610f3e576040517f08c379a0000000000000000000000000000000000000000000000000000000008152600401610f3590611b1c565b60405180910390fd5b6000600760006101000a81548160ff02191690831515021790555034600681905550565b6000600654905090565b6003339080600181540180825580915050600190039060005260206000200160009091909190916101000a81548173ffffffffffffffffffffffffffffffffffffffff021916908373ffffffffffffffffffffffffffffffffffffffff16021790555080600460003373ffffffffffffffffffffffffffffffffffffffff1673ffffffffffffffffffffffffffffffffffffffff1681526020019081526020016000208190555050565b60606002805461102590611b6b565b80601f016020809104026020016040519081016040528092919081815260200182805461105190611b6b565b801561109e5780601f106110735761010080835404028352916020019161109e565b820191906000526020600020905b81548152906001019060200180831161108157829003601f168201915b5050505050905090565b600060029054906101000a900473ffffffffffffffffffffffffffffffffffffffff1673ffffffffffffffffffffffffffffffffffffffff163373ffffffffffffffffffffffffffffffffffffffff1614611138576040517f08c379a000000000000000000000000000000000000000000000000000000000815260040161112f9061188e565b60405180910390fd5b565b6000600460008373ffffffffffffffffffffffffffffffffffffffff1673ffffffffffffffffffffffffffffffffffffffff168152602001908152602001600020549050919050565b600160009054906101000a900473ffffffffffffffffffffffffffffffffffffffff1673ffffffffffffffffffffffffffffffffffffffff163373ffffffffffffffffffffffffffffffffffffffff1614611213576040517f08c379a000000000000000000000000000000000000000000000000000000000815260040161120a906116b8565b60405180910390fd5b60026000806101000a81548160ff0219169083600781111561123857611237611351565b5b0217905550565b600081519050919050565b600082825260208201905092915050565b6000819050602082019050919050565b600073ffffffffffffffffffffffffffffffffffffffff82169050919050565b60006112968261126b565b9050919050565b6112a68161128b565b82525050565b60006112b8838361129d565b60208301905092915050565b6000602082019050919050565b60006112dc8261123f565b6112e6818561124a565b93506112f18361125b565b8060005b8381101561132257815161130988826112ac565b9750611314836112c4565b9250506001810190506112f5565b5085935050505092915050565b6000602082019050818103600083015261134981846112d1565b905092915050565b7f4e487b7100000000000000000000000000000000000000000000000000000000600052602160045260246000fd5b6008811061139157611390611351565b5b50565b60008190506113a282611380565b919050565b60006113b282611394565b9050919050565b6113c2816113a7565b82525050565b60006020820190506113dd60008301846113b9565b92915050565b600080fd5b6113f18161128b565b81146113fc57600080fd5b50565b60008135905061140e816113e8565b92915050565b60006020828403121561142a576114296113e3565b5b6000611438848285016113ff565b91505092915050565b600061144c8261126b565b9050919050565b61145c81611441565b811461146757600080fd5b50565b60008135905061147981611453565b92915050565b600060208284031215611495576114946113e3565b5b60006114a38482850161146a565b91505092915050565b600881106114b957600080fd5b50565b6000813590506114cb816114ac565b92915050565b6000602082840312156114e7576114e66113e3565b5b60006114f5848285016114bc565b91505092915050565b6000819050919050565b611511816114fe565b82525050565b600060208201905061152c6000830184611508565b92915050565b61153b816114fe565b811461154657600080fd5b50565b60008135905061155881611532565b92915050565b600060208284031215611574576115736113e3565b5b600061158284828501611549565b91505092915050565b600081519050919050565b600082825260208201905092915050565b60005b838110156115c55780820151818401526020810190506115aa565b838111156115d4576000848401525b50505050565b6000601f19601f8301169050919050565b60006115f68261158b565b6116008185611596565b93506116108185602086016115a7565b611619816115da565b840191505092915050565b6000602082019050818103600083015261163e81846115eb565b905092915050565b7f4f6e6c792074686520616363657074656420776f726b65722063616e2070657260008201527f666f726d2074686973206f7065726174696f6e00000000000000000000000000602082015250565b60006116a2603383611596565b91506116ad82611646565b604082019050919050565b600060208201905081810360008301526116d181611695565b9050919050565b7f436f6e747261637420646f6573206e6f7420686176652073756666696369656e60008201527f742066756e647320666f722077697468647261772e0000000000000000000000602082015250565b6000611734603583611596565b915061173f826116d8565b604082019050919050565b6000602082019050818103600083015261176381611727565b9050919050565b600081905092915050565b50565b600061178560008361176a565b915061179082611775565b600082019050919050565b60006117a682611778565b9150819050919050565b7f4661696c656420746f2073656e64204574686572000000000000000000000000600082015250565b60006117e6601483611596565b91506117f1826117b0565b602082019050919050565b60006020820190508181036000830152611815816117d9565b9050919050565b7f4f6e6c792074686520636c69656e742063616e20706572666f726d207468697360008201527f206f7065726174696f6e00000000000000000000000000000000000000000000602082015250565b6000611878602a83611596565b91506118838261181c565b604082019050919050565b600060208201905081810360008301526118a78161186b565b9050919050565b7f436c69656e7420646f6573206e6f74206861766520656e6f756768206c69717560008201527f696469747920746f20737461727420776f726b2e000000000000000000000000602082015250565b600061190a603483611596565b9150611915826118ae565b604082019050919050565b60006020820190508181036000830152611939816118fd565b9050919050565b7f56616c756520646f6573206e6f74206d61746368206269642e00000000000000600082015250565b6000611976601983611596565b915061198182611940565b602082019050919050565b600060208201905081810360008301526119a581611969565b9050919050565b7f436c69656e7420686173206e6f74206d61726b656420776f726b20617320636f60008201527f6d706c6574650000000000000000000000000000000000000000000000000000602082015250565b6000611a08602683611596565b9150611a13826119ac565b604082019050919050565b60006020820190508181036000830152611a37816119fb565b9050919050565b7f5468697320636f6e7472616374206973206265696e672064697370757465642e600082015250565b6000611a74602083611596565b9150611a7f82611a3e565b602082019050919050565b60006020820190508181036000830152611aa381611a67565b9050919050565b7f436f6e747261637420646f6573206e6f7420686176652073756666696369656e60008201527f742066756e647320666f7220647261772e000000000000000000000000000000602082015250565b6000611b06603183611596565b9150611b1182611aaa565b604082019050919050565b60006020820190508181036000830152611b3581611af9565b9050919050565b7f4e487b7100000000000000000000000000000000000000000000000000000000600052602260045260246000fd5b60006002820490506001821680611b8357607f821691505b602082108103611b9657611b95611b3c565b5b5091905056fea2646970667358221220bdc51314fe991c7b649b1c30cc3185d23749e7fc906ea51d5c3473e0b8e5f2e764736f6c634300080d0033",
  "immutableReferences": {},
  "source": "// SPDX-License-Identifier: MIT\npragma solidity ^0.8.0;\n\nenum Status{ BIDDING, PENDING, IN_PROGRESS, HALTED, DISPUTED, COMPLETE, INCOMPLETE, CHANGE_REQUEST }\n\n// TODO: improve this, make it expandable\nenum TypeOfWork { ELECTRICAL, PLUMBING, PROGRAMMING, OTHER }\n\ncontract WorkContract {\n\n\tStatus status;\n    Status constant initialState = Status.BIDDING;\n\n\n\tTypeOfWork typeOfWork;\n\n\taddress client;\n\taddress payable worker;\n\tstring statementOfWork; // TODO: needs lots more thought, probably file. Hashed statement of work?\n\n  address[] biddingAddresses;\n\tmapping(address => uint) bids;\n\tuint acceptedBid;\n\n\tuint requestedDrawValue;\n\tbool isDrawApproved;\n\n\tmodifier onlyClient {\n\t\trequire(msg.sender == client, \"Only the client can perform this operation\");\n\t\t_;\n\t}\n\tmodifier onlyWorker {\n\t\trequire(msg.sender == worker, \"Only the accepted worker can perform this operation\");\n\t\t_;\n\t}\n\tmodifier eitherClientOrWorker {\n\t\trequire(msg.sender == client || msg.sender == worker, \"Only the worker or the client can perform this operation\");\n\t\t_;\n\t}\n\n\tconstructor (\n        address _client,\n\t\t\t\tTypeOfWork tow\n    ) {\n\t\t\tclient = _client;\n\t\t\ttypeOfWork = tow;\n\t\t\tstatus = Status.BIDDING;\n\n\t\t\t// TODO: statementOfWork;\n\t}\n\n\tfunction getStatementOfWork() public view returns (string memory) {\n\t\t\treturn statementOfWork;\n\t}\n\n\tfunction getStatus() public view returns (Status) {\n\t\treturn status;\n\t}\n\n\tfunction getRequestedDrawValue() public view returns (uint) {\n\t\treturn requestedDrawValue;\n\t}\n\n\tfunction assignWorker(address payable _worker) onlyClient public  {\n\t\tworker = _worker;\n\t\t// TODO: event?\n\t}\n\n\t// TODO: require a verified worker token?\n\tfunction bidWork(uint bid) public {\n\t\tbiddingAddresses.push(msg.sender);\n\t\tbids[msg.sender] = bid;\n\t}\n\n\t\tfunction getBiddingAddress() onlyClient public view returns (address[] memory) {\n\t\t\t\treturn biddingAddresses;\n\t\t}\n\n\t\tfunction getBidByAddress(address bidAddress) public view returns (uint) {\n\t\t\t\treturn bids[bidAddress];\n\t\t}\n\n\t function acceptBid(address _worker) onlyClient public  {\n\t\t acceptedBid = bids[_worker];\n\t\t status = Status.PENDING;\n\t\t\t// TODO: event\n\t }\n\n\t\tfunction workStarted() onlyClient public payable {\n\t\t\t// ensure client has enough to pay\n      // NOTE: client.balance in gwei?\n\t\t\trequire(client.balance >= msg.value, \"Client does not have enough liquidity to start work.\");\n\t\t\t\n\t\t\t// ensure the value being sent matches the bid\n      require(msg.value == acceptedBid, \"Value does not match bid.\");\n\n\t\t\tstatus = Status.IN_PROGRESS;\n\n\t\t\t// TODO: event\n\t\t}\n\n\t\tfunction changeWorkStatus(Status _status) onlyClient public {\n\t\t\trequire(status != Status.DISPUTED, \"This contract is being disputed.\");\n\t\t\tstatus = _status;\n\t\t}\n\n\t\tfunction contractComplete() onlyWorker public payable {\n\t\t\trequire(status == Status.COMPLETE, \"Client has not marked work as complete\");\n\n\t\t\t(bool sent, bytes memory data) = msg.sender.call{value: address(this).balance}(\"\");\n\t\t\trequire(sent, \"Failed to send Ether\");\n\n\t\t\t// TODO: event\n\t\t}\n\n\t\tfunction disputeContract() onlyWorker public {\n\t\t\tstatus = Status.DISPUTED;\n\t\t\t// TODO: event\n\t\t}\n\n\t\tfunction releaseDispute() onlyWorker public {\n\t\t\tstatus = Status.IN_PROGRESS; // TODO: might need another type here?\n\t\t\t// TODO: event\n\t\t}\n\n\t\tfunction requestDraw() onlyWorker public payable{\n\t\t\trequire(address(this).balance >= msg.value, \"Contract does not have sufficient funds for draw.\");\n\n\t\t\tisDrawApproved = false; // Make sure that the worker cant change the draw request.\n\t\t\trequestedDrawValue = msg.value;\n\t\t}\n\n\t\t// approveDraw\n\t\tfunction approveDraw() onlyClient public {\n\t\t\t// (bool sent, bytes memory data) = msg.sender.call{value: requestedDrawValue}(\"\");\n\t\t\t// require(sent, \"Failed to send Ether\");\n\t\t\t// requestedDrawValue = 0;\n\t\t\tisDrawApproved = true;\n\n\t\t\t// TODO: event\n\t\t}\n\n\t\tfunction rejectDraw() onlyClient public {\n\t\t\t// require(address(this).balance >= msg.value, \"Contract does not have sufficient funds for draw.\");\n\t\t\trequestedDrawValue = 0;\n\t\t\tisDrawApproved = false;\n\n\t\t\t// TODO: event\n\t\t}\n\n\t\tfunction withdrawFunds() onlyWorker public payable {\n\t\t\trequire(address(this).balance >= msg.value, \"Contract does not have sufficient funds for withdraw.\");\n\n\t\t\t(bool sent, bytes memory data) = msg.sender.call{value: requestedDrawValue}(\"\");\n\t\t\trequire(sent, \"Failed to send Ether\");\n\n\t\t\trequestedDrawValue = 0;\n\t\t\tisDrawApproved = false;\n\n\t\t\t// TODO: event;\n\t\t}\n\t\t\n\t\t// TODO: changeRequest\n\t\tfunction changeRequest() onlyClient public {\n\t\t\t// changing statementOfWork -\n\n\t\t\t// TODO: event\n\t\t}\n\n\t\t// TODO: need a way for the client to withdraw funds\n\n}\n\n",
  "sourcePath": "/Users/jakegny/Projects/guildhalls-hackathon/src/contracts/WorkContract.sol",
  "compiler": {
    "name": "solc",
    "version": "0.8.13+commit.abaa5c0e.Emscripten.clang"
  },
  "schemaVersion": "3.4.6",
  "updatedAt": "2022-04-09T08:16:43.394Z",
  "networkType": "ethereum",
  "devdoc": {
    "kind": "dev",
    "methods": {},
    "version": 1
  },
  "userdoc": {
    "kind": "user",
    "methods": {},
    "version": 1
  }
}