{
  "contractName": "WorkContract",
  "abi": [
    {
      "inputs": [
        {
          "internalType": "address",
          "name": "_client",
          "type": "address"
        },
        {
          "internalType": "enum TypeOfWork",
          "name": "tow",
          "type": "uint8"
        }
      ],
      "stateMutability": "nonpayable",
      "type": "constructor"
    },
    {
      "inputs": [],
      "name": "typeOfWork",
      "outputs": [
        {
          "internalType": "enum TypeOfWork",
          "name": "",
          "type": "uint8"
        }
      ],
      "stateMutability": "view",
      "type": "function"
    },
    {
      "inputs": [],
      "name": "getStatementOfWork",
      "outputs": [
        {
          "internalType": "string",
          "name": "",
          "type": "string"
        }
      ],
      "stateMutability": "view",
      "type": "function"
    },
    {
      "inputs": [],
      "name": "getStatus",
      "outputs": [
        {
          "internalType": "enum Status",
          "name": "",
          "type": "uint8"
        }
      ],
      "stateMutability": "view",
      "type": "function"
    },
    {
      "inputs": [
        {
          "internalType": "uint256",
          "name": "enumIndex",
          "type": "uint256"
        }
      ],
      "name": "getTypeOfWorkStr",
      "outputs": [
        {
          "internalType": "string",
          "name": "",
          "type": "string"
        }
      ],
      "stateMutability": "view",
      "type": "function"
    },
    {
      "inputs": [],
      "name": "getWorker",
      "outputs": [
        {
          "internalType": "address",
          "name": "",
          "type": "address"
        }
      ],
      "stateMutability": "view",
      "type": "function"
    },
    {
      "inputs": [],
      "name": "getRequestedDrawValue",
      "outputs": [
        {
          "internalType": "uint256",
          "name": "",
          "type": "uint256"
        }
      ],
      "stateMutability": "view",
      "type": "function"
    },
    {
      "inputs": [
        {
          "internalType": "address payable",
          "name": "_worker",
          "type": "address"
        }
      ],
      "name": "assignWorker",
      "outputs": [],
      "stateMutability": "nonpayable",
      "type": "function"
    },
    {
      "inputs": [
        {
          "internalType": "uint256",
          "name": "bid",
          "type": "uint256"
        }
      ],
      "name": "bidWork",
      "outputs": [],
      "stateMutability": "nonpayable",
      "type": "function"
    },
    {
      "inputs": [],
      "name": "getBiddingAddress",
      "outputs": [
        {
          "internalType": "address[]",
          "name": "",
          "type": "address[]"
        }
      ],
      "stateMutability": "view",
      "type": "function"
    },
    {
      "inputs": [
        {
          "internalType": "address",
          "name": "bidAddress",
          "type": "address"
        }
      ],
      "name": "getBidByAddress",
      "outputs": [
        {
          "internalType": "uint256",
          "name": "",
          "type": "uint256"
        }
      ],
      "stateMutability": "view",
      "type": "function"
    },
    {
      "inputs": [
        {
          "internalType": "address",
          "name": "_worker",
          "type": "address"
        }
      ],
      "name": "acceptBid",
      "outputs": [],
      "stateMutability": "nonpayable",
      "type": "function"
    },
    {
      "inputs": [],
      "name": "getAcceptedBidder",
      "outputs": [
        {
          "internalType": "address",
          "name": "",
          "type": "address"
        }
      ],
      "stateMutability": "view",
      "type": "function"
    },
    {
      "inputs": [],
      "name": "workStarted",
      "outputs": [],
      "stateMutability": "payable",
      "type": "function"
    },
    {
      "inputs": [
        {
          "internalType": "enum Status",
          "name": "_status",
          "type": "uint8"
        }
      ],
      "name": "changeWorkStatus",
      "outputs": [],
      "stateMutability": "nonpayable",
      "type": "function"
    },
    {
      "inputs": [],
      "name": "contractComplete",
      "outputs": [],
      "stateMutability": "payable",
      "type": "function"
    },
    {
      "inputs": [],
      "name": "disputeContract",
      "outputs": [],
      "stateMutability": "nonpayable",
      "type": "function"
    },
    {
      "inputs": [],
      "name": "releaseDispute",
      "outputs": [],
      "stateMutability": "nonpayable",
      "type": "function"
    },
    {
      "inputs": [],
      "name": "requestDraw",
      "outputs": [],
      "stateMutability": "payable",
      "type": "function"
    },
    {
      "inputs": [],
      "name": "approveDraw",
      "outputs": [],
      "stateMutability": "nonpayable",
      "type": "function"
    },
    {
      "inputs": [],
      "name": "rejectDraw",
      "outputs": [],
      "stateMutability": "nonpayable",
      "type": "function"
    },
    {
      "inputs": [],
      "name": "withdrawFunds",
      "outputs": [],
      "stateMutability": "payable",
      "type": "function"
    },
    {
      "inputs": [],
      "name": "changeRequest",
      "outputs": [],
      "stateMutability": "nonpayable",
      "type": "function"
    }
  ],
  "bytecode": "0x608060405260405180608001604052806040518060400160405280600a81526020017f454c454354524943414c0000000000000000000000000000000000000000000081525081526020016040518060400160405280600881526020017f504c554d42494e4700000000000000000000000000000000000000000000000081525081526020016040518060400160405280600b81526020017f50524f4752414d4d494e4700000000000000000000000000000000000000000081525081526020016040518060400160405280600581526020017f4f5448455200000000000000000000000000000000000000000000000000000081525081525060019060046200010b929190620001e2565b503480156200011957600080fd5b50604051620024d3380380620024d383398181016040528101906200013f9190620003f9565b81600260016101000a81548173ffffffffffffffffffffffffffffffffffffffff021916908373ffffffffffffffffffffffffffffffffffffffff16021790555080600260006101000a81548160ff02191690836003811115620001a857620001a762000440565b5b021790555060008060006101000a81548160ff02191690836007811115620001d557620001d462000440565b5b02179055505050620004d3565b82805482825590600052602060002090810192821562000236579160200282015b82811115620002355782518290805190602001906200022492919062000249565b509160200191906001019062000203565b5b509050620002459190620002da565b5090565b82805462000257906200049e565b90600052602060002090601f0160209004810192826200027b5760008555620002c7565b82601f106200029657805160ff1916838001178555620002c7565b82800160010185558215620002c7579182015b82811115620002c6578251825591602001919060010190620002a9565b5b509050620002d6919062000302565b5090565b5b80821115620002fe5760008181620002f4919062000321565b50600101620002db565b5090565b5b808211156200031d57600081600090555060010162000303565b5090565b5080546200032f906200049e565b6000825580601f1062000343575062000364565b601f01602090049060005260206000209081019062000363919062000302565b5b50565b600080fd5b600073ffffffffffffffffffffffffffffffffffffffff82169050919050565b600062000399826200036c565b9050919050565b620003ab816200038c565b8114620003b757600080fd5b50565b600081519050620003cb81620003a0565b92915050565b60048110620003df57600080fd5b50565b600081519050620003f381620003d1565b92915050565b6000806040838503121562000413576200041262000367565b5b60006200042385828601620003ba565b92505060206200043685828601620003e2565b9150509250929050565b7f4e487b7100000000000000000000000000000000000000000000000000000000600052602160045260246000fd5b7f4e487b7100000000000000000000000000000000000000000000000000000000600052602260045260246000fd5b60006002820490506001821680620004b757607f821691505b602082108103620004cd57620004cc6200046f565b5b50919050565b611ff080620004e36000396000f3fe6080604052600436106101355760003560e01c80638239ca72116100ab578063a72ad9a51161006f578063a72ad9a514610336578063ab467a5314610361578063c0e929e71461038a578063c0fdf07b146103b5578063d01583bc146103cc578063f1a660151461040957610135565b80638239ca72146102b757806387cf58d9146102e257806389264201146102f9578063a54d50cc14610303578063a57848b61461032c57610135565b80635600af12116100fd5780635600af12146101ee57806367eaeddb146102195780636ba74f17146102445780636edc28481461026d5780637212d2891461029657806379a9e345146102ad57610135565b806324600fc31461013a57806336021534146101445780634010b84e1461016f578063468b0277146101865780634e69d560146101c3575b600080fd5b610142610420565b005b34801561015057600080fd5b506101596105ca565b6040516101669190611691565b60405180910390f35b34801561017b57600080fd5b506101846106e8565b005b34801561019257600080fd5b506101ad60048036038101906101a891906116ee565b6107a4565b6040516101ba91906117b4565b60405180910390f35b3480156101cf57600080fd5b506101d8610854565b6040516101e5919061184d565b60405180910390f35b3480156101fa57600080fd5b5061020361086a565b60405161021091906118b0565b60405180910390f35b34801561022557600080fd5b5061022e61087d565b60405161023b91906118da565b60405180910390f35b34801561025057600080fd5b5061026b60048036038101906102669190611921565b6108a7565b005b34801561027957600080fd5b50610294600480360381019061028f919061198c565b6109eb565b005b3480156102a257600080fd5b506102ab610abf565b005b6102b5610b6c565b005b3480156102c357600080fd5b506102cc610ce8565b6040516102d991906118da565b60405180910390f35b3480156102ee57600080fd5b506102f7610da2565b005b610301610e57565b005b34801561030f57600080fd5b5061032a600480360381019061032591906119de565b61100d565b005b61033461113d565b005b34801561034257600080fd5b5061034b611234565b6040516103589190611a1a565b60405180910390f35b34801561036d57600080fd5b50610388600480360381019061038391906116ee565b61123e565b005b34801561039657600080fd5b5061039f6112e8565b6040516103ac91906117b4565b60405180910390f35b3480156103c157600080fd5b506103ca61137a565b005b3480156103d857600080fd5b506103f360048036038101906103ee9190611921565b61140c565b6040516104009190611a1a565b60405180910390f35b34801561041557600080fd5b5061041e6114e5565b005b600360009054906101000a900473ffffffffffffffffffffffffffffffffffffffff1673ffffffffffffffffffffffffffffffffffffffff163373ffffffffffffffffffffffffffffffffffffffff16146104b0576040517f08c379a00000000000000000000000000000000000000000000000000000000081526004016104a790611aa7565b60405180910390fd5b344710156104f3576040517f08c379a00000000000000000000000000000000000000000000000000000000081526004016104ea90611b39565b60405180910390fd5b6000803373ffffffffffffffffffffffffffffffffffffffff1660095460405161051c90611b8a565b60006040518083038185875af1925050503d8060008114610559576040519150601f19603f3d011682016040523d82523d6000602084013e61055e565b606091505b5091509150816105a3576040517f08c379a000000000000000000000000000000000000000000000000000000000815260040161059a90611beb565b60405180910390fd5b60006009819055506000600a60006101000a81548160ff0219169083151502179055505050565b6060600260019054906101000a900473ffffffffffffffffffffffffffffffffffffffff1673ffffffffffffffffffffffffffffffffffffffff163373ffffffffffffffffffffffffffffffffffffffff161461065c576040517f08c379a000000000000000000000000000000000000000000000000000000000815260040161065390611c7d565b60405180910390fd5b60058054806020026020016040519081016040528092919081815260200182805480156106de57602002820191906000526020600020905b8160009054906101000a900473ffffffffffffffffffffffffffffffffffffffff1673ffffffffffffffffffffffffffffffffffffffff1681526020019060010190808311610694575b5050505050905090565b600360009054906101000a900473ffffffffffffffffffffffffffffffffffffffff1673ffffffffffffffffffffffffffffffffffffffff163373ffffffffffffffffffffffffffffffffffffffff1614610778576040517f08c379a000000000000000000000000000000000000000000000000000000000815260040161076f90611aa7565b60405180910390fd5b60046000806101000a81548160ff0219169083600781111561079d5761079c6117d6565b5b0217905550565b6060600182815481106107ba576107b9611c9d565b5b9060005260206000200180546107cf90611cfb565b80601f01602080910402602001604051908101604052809291908181526020018280546107fb90611cfb565b80156108485780601f1061081d57610100808354040283529160200191610848565b820191906000526020600020905b81548152906001019060200180831161082b57829003601f168201915b50505050509050919050565b60008060009054906101000a900460ff16905090565b600260009054906101000a900460ff1681565b6000600360009054906101000a900473ffffffffffffffffffffffffffffffffffffffff16905090565b600260019054906101000a900473ffffffffffffffffffffffffffffffffffffffff1673ffffffffffffffffffffffffffffffffffffffff163373ffffffffffffffffffffffffffffffffffffffff1614610937576040517f08c379a000000000000000000000000000000000000000000000000000000000815260040161092e90611c7d565b60405180910390fd5b600660008273ffffffffffffffffffffffffffffffffffffffff1673ffffffffffffffffffffffffffffffffffffffff1681526020019081526020016000205460078190555080600860006101000a81548173ffffffffffffffffffffffffffffffffffffffff021916908373ffffffffffffffffffffffffffffffffffffffff16021790555060016000806101000a81548160ff021916908360078111156109e3576109e26117d6565b5b021790555050565b600260019054906101000a900473ffffffffffffffffffffffffffffffffffffffff1673ffffffffffffffffffffffffffffffffffffffff163373ffffffffffffffffffffffffffffffffffffffff1614610a7b576040517f08c379a0000000000000000000000000000000000000000000000000000000008152600401610a7290611c7d565b60405180910390fd5b80600360006101000a81548173ffffffffffffffffffffffffffffffffffffffff021916908373ffffffffffffffffffffffffffffffffffffffff16021790555050565b600260019054906101000a900473ffffffffffffffffffffffffffffffffffffffff1673ffffffffffffffffffffffffffffffffffffffff163373ffffffffffffffffffffffffffffffffffffffff1614610b4f576040517f08c379a0000000000000000000000000000000000000000000000000000000008152600401610b4690611c7d565b60405180910390fd5b6001600a60006101000a81548160ff021916908315150217905550565b600260019054906101000a900473ffffffffffffffffffffffffffffffffffffffff1673ffffffffffffffffffffffffffffffffffffffff163373ffffffffffffffffffffffffffffffffffffffff1614610bfc576040517f08c379a0000000000000000000000000000000000000000000000000000000008152600401610bf390611c7d565b60405180910390fd5b34600260019054906101000a900473ffffffffffffffffffffffffffffffffffffffff1673ffffffffffffffffffffffffffffffffffffffff16311015610c78576040517f08c379a0000000000000000000000000000000000000000000000000000000008152600401610c6f90611d9e565b60405180910390fd5b6007543414610cbc576040517f08c379a0000000000000000000000000000000000000000000000000000000008152600401610cb390611e0a565b60405180910390fd5b60026000806101000a81548160ff02191690836007811115610ce157610ce06117d6565b5b0217905550565b6000600260019054906101000a900473ffffffffffffffffffffffffffffffffffffffff1673ffffffffffffffffffffffffffffffffffffffff163373ffffffffffffffffffffffffffffffffffffffff1614610d7a576040517f08c379a0000000000000000000000000000000000000000000000000000000008152600401610d7190611c7d565b60405180910390fd5b600860009054906101000a900473ffffffffffffffffffffffffffffffffffffffff16905090565b600260019054906101000a900473ffffffffffffffffffffffffffffffffffffffff1673ffffffffffffffffffffffffffffffffffffffff163373ffffffffffffffffffffffffffffffffffffffff1614610e32576040517f08c379a0000000000000000000000000000000000000000000000000000000008152600401610e2990611c7d565b60405180910390fd5b60006009819055506000600a60006101000a81548160ff021916908315150217905550565b600360009054906101000a900473ffffffffffffffffffffffffffffffffffffffff1673ffffffffffffffffffffffffffffffffffffffff163373ffffffffffffffffffffffffffffffffffffffff1614610ee7576040517f08c379a0000000000000000000000000000000000000000000000000000000008152600401610ede90611aa7565b60405180910390fd5b60056007811115610efb57610efa6117d6565b5b60008054906101000a900460ff166007811115610f1b57610f1a6117d6565b5b14610f5b576040517f08c379a0000000000000000000000000000000000000000000000000000000008152600401610f5290611e9c565b60405180910390fd5b6000803373ffffffffffffffffffffffffffffffffffffffff1647604051610f8290611b8a565b60006040518083038185875af1925050503d8060008114610fbf576040519150601f19603f3d011682016040523d82523d6000602084013e610fc4565b606091505b509150915081611009576040517f08c379a000000000000000000000000000000000000000000000000000000000815260040161100090611beb565b60405180910390fd5b5050565b600260019054906101000a900473ffffffffffffffffffffffffffffffffffffffff1673ffffffffffffffffffffffffffffffffffffffff163373ffffffffffffffffffffffffffffffffffffffff161461109d576040517f08c379a000000000000000000000000000000000000000000000000000000000815260040161109490611c7d565b60405180910390fd5b600460078111156110b1576110b06117d6565b5b60008054906101000a900460ff1660078111156110d1576110d06117d6565b5b03611111576040517f08c379a000000000000000000000000000000000000000000000000000000000815260040161110890611f08565b60405180910390fd5b806000806101000a81548160ff02191690836007811115611135576111346117d6565b5b021790555050565b600360009054906101000a900473ffffffffffffffffffffffffffffffffffffffff1673ffffffffffffffffffffffffffffffffffffffff163373ffffffffffffffffffffffffffffffffffffffff16146111cd576040517f08c379a00000000000000000000000000000000000000000000000000000000081526004016111c490611aa7565b60405180910390fd5b34471015611210576040517f08c379a000000000000000000000000000000000000000000000000000000000815260040161120790611f9a565b60405180910390fd5b6000600a60006101000a81548160ff02191690831515021790555034600981905550565b6000600954905090565b6005339080600181540180825580915050600190039060005260206000200160009091909190916101000a81548173ffffffffffffffffffffffffffffffffffffffff021916908373ffffffffffffffffffffffffffffffffffffffff16021790555080600660003373ffffffffffffffffffffffffffffffffffffffff1673ffffffffffffffffffffffffffffffffffffffff1681526020019081526020016000208190555050565b6060600480546112f790611cfb565b80601f016020809104026020016040519081016040528092919081815260200182805461132390611cfb565b80156113705780601f1061134557610100808354040283529160200191611370565b820191906000526020600020905b81548152906001019060200180831161135357829003601f168201915b5050505050905090565b600260019054906101000a900473ffffffffffffffffffffffffffffffffffffffff1673ffffffffffffffffffffffffffffffffffffffff163373ffffffffffffffffffffffffffffffffffffffff161461140a576040517f08c379a000000000000000000000000000000000000000000000000000000000815260040161140190611c7d565b60405180910390fd5b565b6000600260019054906101000a900473ffffffffffffffffffffffffffffffffffffffff1673ffffffffffffffffffffffffffffffffffffffff163373ffffffffffffffffffffffffffffffffffffffff161461149e576040517f08c379a000000000000000000000000000000000000000000000000000000000815260040161149590611c7d565b60405180910390fd5b600660008373ffffffffffffffffffffffffffffffffffffffff1673ffffffffffffffffffffffffffffffffffffffff168152602001908152602001600020549050919050565b600360009054906101000a900473ffffffffffffffffffffffffffffffffffffffff1673ffffffffffffffffffffffffffffffffffffffff163373ffffffffffffffffffffffffffffffffffffffff1614611575576040517f08c379a000000000000000000000000000000000000000000000000000000000815260040161156c90611aa7565b60405180910390fd5b60026000806101000a81548160ff0219169083600781111561159a576115996117d6565b5b0217905550565b600081519050919050565b600082825260208201905092915050565b6000819050602082019050919050565b600073ffffffffffffffffffffffffffffffffffffffff82169050919050565b60006115f8826115cd565b9050919050565b611608816115ed565b82525050565b600061161a83836115ff565b60208301905092915050565b6000602082019050919050565b600061163e826115a1565b61164881856115ac565b9350611653836115bd565b8060005b8381101561168457815161166b888261160e565b975061167683611626565b925050600181019050611657565b5085935050505092915050565b600060208201905081810360008301526116ab8184611633565b905092915050565b600080fd5b6000819050919050565b6116cb816116b8565b81146116d657600080fd5b50565b6000813590506116e8816116c2565b92915050565b600060208284031215611704576117036116b3565b5b6000611712848285016116d9565b91505092915050565b600081519050919050565b600082825260208201905092915050565b60005b8381101561175557808201518184015260208101905061173a565b83811115611764576000848401525b50505050565b6000601f19601f8301169050919050565b60006117868261171b565b6117908185611726565b93506117a0818560208601611737565b6117a98161176a565b840191505092915050565b600060208201905081810360008301526117ce818461177b565b905092915050565b7f4e487b7100000000000000000000000000000000000000000000000000000000600052602160045260246000fd5b60088110611816576118156117d6565b5b50565b600081905061182782611805565b919050565b600061183782611819565b9050919050565b6118478161182c565b82525050565b6000602082019050611862600083018461183e565b92915050565b60048110611879576118786117d6565b5b50565b600081905061188a82611868565b919050565b600061189a8261187c565b9050919050565b6118aa8161188f565b82525050565b60006020820190506118c560008301846118a1565b92915050565b6118d4816115ed565b82525050565b60006020820190506118ef60008301846118cb565b92915050565b6118fe816115ed565b811461190957600080fd5b50565b60008135905061191b816118f5565b92915050565b600060208284031215611937576119366116b3565b5b60006119458482850161190c565b91505092915050565b6000611959826115cd565b9050919050565b6119698161194e565b811461197457600080fd5b50565b60008135905061198681611960565b92915050565b6000602082840312156119a2576119a16116b3565b5b60006119b084828501611977565b91505092915050565b600881106119c657600080fd5b50565b6000813590506119d8816119b9565b92915050565b6000602082840312156119f4576119f36116b3565b5b6000611a02848285016119c9565b91505092915050565b611a14816116b8565b82525050565b6000602082019050611a2f6000830184611a0b565b92915050565b7f4f6e6c792074686520616363657074656420776f726b65722063616e2070657260008201527f666f726d2074686973206f7065726174696f6e00000000000000000000000000602082015250565b6000611a91603383611726565b9150611a9c82611a35565b604082019050919050565b60006020820190508181036000830152611ac081611a84565b9050919050565b7f436f6e747261637420646f6573206e6f7420686176652073756666696369656e60008201527f742066756e647320666f722077697468647261772e0000000000000000000000602082015250565b6000611b23603583611726565b9150611b2e82611ac7565b604082019050919050565b60006020820190508181036000830152611b5281611b16565b9050919050565b600081905092915050565b50565b6000611b74600083611b59565b9150611b7f82611b64565b600082019050919050565b6000611b9582611b67565b9150819050919050565b7f4661696c656420746f2073656e64204574686572000000000000000000000000600082015250565b6000611bd5601483611726565b9150611be082611b9f565b602082019050919050565b60006020820190508181036000830152611c0481611bc8565b9050919050565b7f4f6e6c792074686520636c69656e742063616e20706572666f726d207468697360008201527f206f7065726174696f6e00000000000000000000000000000000000000000000602082015250565b6000611c67602a83611726565b9150611c7282611c0b565b604082019050919050565b60006020820190508181036000830152611c9681611c5a565b9050919050565b7f4e487b7100000000000000000000000000000000000000000000000000000000600052603260045260246000fd5b7f4e487b7100000000000000000000000000000000000000000000000000000000600052602260045260246000fd5b60006002820490506001821680611d1357607f821691505b602082108103611d2657611d25611ccc565b5b50919050565b7f436c69656e7420646f6573206e6f74206861766520656e6f756768206c69717560008201527f696469747920746f20737461727420776f726b2e000000000000000000000000602082015250565b6000611d88603483611726565b9150611d9382611d2c565b604082019050919050565b60006020820190508181036000830152611db781611d7b565b9050919050565b7f56616c756520646f6573206e6f74206d61746368206269642e00000000000000600082015250565b6000611df4601983611726565b9150611dff82611dbe565b602082019050919050565b60006020820190508181036000830152611e2381611de7565b9050919050565b7f436c69656e7420686173206e6f74206d61726b656420776f726b20617320636f60008201527f6d706c6574650000000000000000000000000000000000000000000000000000602082015250565b6000611e86602683611726565b9150611e9182611e2a565b604082019050919050565b60006020820190508181036000830152611eb581611e79565b9050919050565b7f5468697320636f6e7472616374206973206265696e672064697370757465642e600082015250565b6000611ef2602083611726565b9150611efd82611ebc565b602082019050919050565b60006020820190508181036000830152611f2181611ee5565b9050919050565b7f436f6e747261637420646f6573206e6f7420686176652073756666696369656e60008201527f742066756e647320666f7220647261772e000000000000000000000000000000602082015250565b6000611f84603183611726565b9150611f8f82611f28565b604082019050919050565b60006020820190508181036000830152611fb381611f77565b905091905056fea2646970667358221220b65662ceef9855afda9bdf16d567811bed9ece811246d47b1b99855f77ea673864736f6c634300080d0033",
  "immutableReferences": {},
  "source": "// SPDX-License-Identifier: MIT\npragma solidity ^0.8.0;\n\nenum Status{ BIDDING, PENDING, IN_PROGRESS, HALTED, DISPUTED, COMPLETE, INCOMPLETE, CHANGE_REQUEST }\n\n// TODO: improve this, make it expandable\nenum TypeOfWork { ELECTRICAL, PLUMBING, PROGRAMMING, OTHER }\n\ncontract WorkContract {\n\n\tStatus status;\n    Status constant initialState = Status.BIDDING;\n\n    string[] TypeOfWorkStr = [\n        \"ELECTRICAL\", \"PLUMBING\", \"PROGRAMMING\", \"OTHER\"\n    ];\n\n\n\tTypeOfWork public typeOfWork;\n\n\taddress client;\n\taddress payable worker;\n\tstring statementOfWork; // TODO: needs lots more thought, probably file. Hashed statement of work?\n\n    address[] biddingAddresses;\n\tmapping(address => uint) bids;\n\tuint acceptedBid;\n    address acceptedBidderAddress;\n\n\tuint requestedDrawValue;\n\tbool isDrawApproved;\n\n\tmodifier onlyClient {\n\t\trequire(msg.sender == client, \"Only the client can perform this operation\");\n\t\t_;\n\t}\n\tmodifier onlyWorker {\n\t\trequire(msg.sender == worker, \"Only the accepted worker can perform this operation\");\n\t\t_;\n\t}\n\tmodifier eitherClientOrWorker {\n\t\trequire(msg.sender == client || msg.sender == worker, \"Only the worker or the client can perform this operation\");\n\t\t_;\n\t}\n\n\tconstructor (\n        address _client,\n\t\t\t\tTypeOfWork tow\n    ) {\n        client = _client;\n\t\ttypeOfWork = tow;\n\t\tstatus = Status.BIDDING;\n\n\t\t\t\t// TODO: statementOfWork;\n    }\n\n    function getStatementOfWork() public view returns (string memory) {\n        return statementOfWork;\n    }\n\n   function getStatus() public view returns (Status) {\n      return status;\n   }\n\n   function getTypeOfWorkStr(uint enumIndex) public view returns (string memory) {\n      return TypeOfWorkStr[enumIndex];\n   }\n\n\t function getWorker() public view returns (address) {\n\t\t return worker;\n\t }\n\n\t function getRequestedDrawValue() public view returns (uint) {\n      return requestedDrawValue;\n   }\n\n\t function assignWorker(address payable _worker) onlyClient public  {\n\t\t worker = _worker;\n\t\t // TODO: event?\n\t }\n\n\t // TODO: require a verified worker token?\n     // TODO: can't be the contract owner\n\t function bidWork(uint bid) public {\n         biddingAddresses.push(msg.sender);\n\t\t bids[msg.sender] = bid;\n\t }\n\n     function getBiddingAddress() onlyClient public view returns (address[] memory) {\n         return biddingAddresses;\n     }\n\n     function getBidByAddress(address bidAddress) onlyClient public view returns (uint) {\n         return bids[bidAddress];\n     }\n\n     // \n\t function acceptBid(address _worker) onlyClient public  {\n\t\t acceptedBid = bids[_worker];\n         acceptedBidderAddress = _worker;\n\t\t status = Status.PENDING;\n\t\t\t// TODO: event\n\t }\n\n     function getAcceptedBidder() onlyClient public view returns (address) {\n         return acceptedBidderAddress;\n     }\n\n\t\tfunction workStarted() onlyClient public payable {\n\t\t\t// ensure client has enough to pay\n            // NOTE: client.balance in gwei?\n\t\t\trequire(client.balance >= msg.value, \"Client does not have enough liquidity to start work.\");\n\t\t\t\n\t\t\t// ensure the value being sent matches the bid\n      require(msg.value == acceptedBid, \"Value does not match bid.\");\n\n\t\t\tstatus = Status.IN_PROGRESS;\n\n\t\t\t// TODO: event\n\t\t}\n\n\t\tfunction changeWorkStatus(Status _status) onlyClient public {\n\t\t\trequire(status != Status.DISPUTED, \"This contract is being disputed.\");\n\t\t\tstatus = _status;\n\t\t}\n\n\t\tfunction contractComplete() onlyWorker public payable {\n\t\t\trequire(status == Status.COMPLETE, \"Client has not marked work as complete\");\n\n\t\t\t(bool sent, bytes memory data) = msg.sender.call{value: address(this).balance}(\"\");\n\t\t\trequire(sent, \"Failed to send Ether\");\n\n\t\t\t// TODO: event\n\t\t}\n\n\t\tfunction disputeContract() onlyWorker public {\n\t\t\tstatus = Status.DISPUTED;\n\t\t\t// TODO: event\n\t\t}\n\n\t\tfunction releaseDispute() onlyWorker public {\n\t\t\tstatus = Status.IN_PROGRESS; // TODO: might need another type here?\n\t\t\t// TODO: event\n\t\t}\n\n\t\tfunction requestDraw() onlyWorker public payable{\n\t\t\trequire(address(this).balance >= msg.value, \"Contract does not have sufficient funds for draw.\");\n\n\t\t\tisDrawApproved = false; // Make sure that the worker cant change the draw request.\n\t\t\trequestedDrawValue = msg.value;\n\t\t}\n\n\t\t// approveDraw\n\t\tfunction approveDraw() onlyClient public {\n\t\t\t// (bool sent, bytes memory data) = msg.sender.call{value: requestedDrawValue}(\"\");\n\t\t\t// require(sent, \"Failed to send Ether\");\n\t\t\t// requestedDrawValue = 0;\n\t\t\tisDrawApproved = true;\n\n\t\t\t// TODO: event\n\t\t}\n\n\t\tfunction rejectDraw() onlyClient public {\n\t\t\t// require(address(this).balance >= msg.value, \"Contract does not have sufficient funds for draw.\");\n\t\t\trequestedDrawValue = 0;\n\t\t\tisDrawApproved = false;\n\n\t\t\t// TODO: event\n\t\t}\n\n\t\tfunction withdrawFunds() onlyWorker public payable {\n\t\t\trequire(address(this).balance >= msg.value, \"Contract does not have sufficient funds for withdraw.\");\n\n\t\t\t(bool sent, bytes memory data) = msg.sender.call{value: requestedDrawValue}(\"\");\n\t\t\trequire(sent, \"Failed to send Ether\");\n\n\t\t\trequestedDrawValue = 0;\n\t\t\tisDrawApproved = false;\n\n\t\t\t// TODO: event;\n\t\t}\n\t\t\n\t\t// TODO: changeRequest\n\t\tfunction changeRequest() onlyClient public {\n\t\t\t// changing statementOfWork -\n\n\t\t\t// TODO: event\n\t\t}\n\n\t\t// TODO: need a way for the client to withdraw funds\n\n}\n",
  "sourcePath": "/Users/jakegny/Projects/guildhalls-hackathon/src/contracts/WorkContract.sol",
  "compiler": {
    "name": "solc",
    "version": "0.8.13+commit.abaa5c0e.Emscripten.clang"
  },
  "schemaVersion": "3.4.6",
  "updatedAt": "2022-04-09T20:03:53.342Z",
  "networkType": "ethereum",
  "devdoc": {
    "kind": "dev",
    "methods": {},
    "version": 1
  },
  "userdoc": {
    "kind": "user",
    "methods": {},
    "version": 1
  }
}